:020000040800F2
:10000000E055002039020008C5370008AD3500086A
:10001000C137000845070008FD4000080000000047
:10002000000000000000000000000000C1380008CF
:100030008907000800000000513800083539000821
:10004000530200085302000853020008530200083C
:10005000530200085302000853020008530200082C
:10006000530200085302000853020008530200081C
:10007000530200085302000853020008530200080C
:1000800053020008530200085302000853020008FC
:1000900049070008590700085302000853020008E6
:1000A00053020008530200085302000853020008DC
:1000B00053020008530200085302000853020008CC
:1000C00053020008530200085302000853020008BC
:1000D000530200085302000853020008DD400008E4
:1000E000530200085302000853020008530200089C
:1000F000530200085302000853020008530200088C
:10010000530200085302000853020008530200087B
:100110005302000853020008313A00085302000855
:10012000530200085302000853020008530200085B
:10013000530200085302000853020008530200084B
:1001400069070008790700085302000853020008F5
:10015000530200085302000853020008ED40000853
:10016000530200085302000853020008530200081B
:100170005302000853020008530200080000000068
:10018000530200085302000800F002F800F042F8A1
:100190000AA090E8000C82448344AAF10107DA45E2
:1001A00001D100F037F8AFF2090EBAE80F0013F0F2
:1001B000010F18BFFB1A43F0010318475C760000DB
:1001C0007C760000103A24BF78C878C1FAD852076C
:1001D00024BF30C830C144BF04680C6070470000C1
:1001E0000023002400250026103A28BF78C1FBD840
:1001F000520728BF30C148BF0B6070471FB507F0DA
:10020000BFFA0FBC00F016F80FB400F023F91FBDC1
:1002100010B510BD00F069F91146FFF7EFFF04F0CB
:10022000B3F900F087F903B4FFF7F2FF03BC00F065
:1002300055F9000000F09DB909488047094800477A
:10024000FEE7FEE7FEE7FEE7FEE7FEE7FEE7FEE786
:10025000FEE7FEE704480549054A064B70470000E3
:100260001D3A000889010008E04F0020E0550020F9
:10027000E0510020E051002053EA020C00F06980B8
:100280002DE9F04B4FF00006002B1FBFB3FA83F5AA
:1002900003FA05F424FA05F65E4012BF1643B2FADB
:1002A00082F502FA05F4C5F120051EBF22FA05FC0D
:1002B00044EA0C04203556EA044C4FEA144418BFB3
:1002C000641C4FF000084FF00009904271EB030CE2
:1002D00039D3002919BFB1FA81F701FA07F6B0FA4C
:1002E00080F700FA07F6C7F120071EBF20FA07FCC7
:1002F00046EA0C062037B6FBF4FCA7EB0507103FD7
:1003000007F01F0BCBF120062CFA06F60CFA0BFBBC
:1003100044BFB3460026202FA4BF5E464FF0000B1B
:100320005BEA060C08BF4FF0010B19EB0B0948EB19
:100330000608ABFB027C06FB02CC0BFB03CCC01B0C
:1003400071EB0C01C1E70B46024641464846BDE849
:10035000F08B13B54FF000004FF00001AFF30080B9
:10036000BDE81C407047032A40F2308010F0030CB7
:1003700000F0158011F8013BBCF1020F624498BFF8
:1003800011F801CB00F8013B38BF11F8013BA2F195
:10039000040298BF00F801CB38BF00F8013B11F010
:1003A000030300F06980083AC0F0088051F8043B6C
:1003B000083A51F804CBA0E80810F5E7121D5CBF1D
:1003C00051F8043B40F8043BAFF30080D20724BF50
:1003D00011F8013B11F801CB48BF11F8012B24BFE4
:1003E00000F8013B00F801CB48BF00F8012B704733
:1003F00002F0FF0343EA032242EA024200F002B89D
:100400004FF0000200B5134694469646203922BFAD
:10041000A0E80C50A0E80C50B1F12001BFF4F7AFF8
:10042000090728BFA0E80C5048BF0CC05DF804EBDA
:10043000890028BF40F8042B08BF704748BF20F848
:10044000022B11F0804F18BF00F8012B7047704746
:100450007047704770B5064C7C44064D7D4403E000
:10046000206820448047241DAC42F9D170BD0000B3
:10047000DC730000DC73000010B5203AC0F00B8084
:10048000B1E81850A0E81850B1E81850A0E818508A
:10049000203ABFF4F5AF5FEA027C24BFB1E8185000
:1004A000A0E8185044BF18C918C0BDE810405FEA62
:1004B000827C24BF51F8043B40F8043B08BF7047DE
:1004C000D20728BF31F8023B48BF11F8012B28BFE3
:1004D00020F8023B48BF00F8012B70470149182063
:1004E000ABBEFEE7260002007047754600F0D4F868
:1004F000AE4605006946534620F00700854618B011
:1005000020B5FFF7A7FEBDE820404FF000064FF0F2
:1005100000074FF000084FF0000BAC46ACE8C009F4
:10052000ACE8C009ACE8C009ACE8C00921F007019B
:100530008D46704710B50446AFF300802046BDE8F5
:100540001040FFF770BE002801D0FFF7C7BF70470B
:100550000246C91C21F00301D2E900031B1A8B4299
:1005600001D2002070470144C91D21F0070111602C
:1005700070472DE9F34F83B000274FF48074BA46DB
:1005800003A821468DF80070FFF7E2FF5FEA00083C
:1005900001D100F0A0F82146404600F070F80600B6
:1005A00009D04FF0010B4546C14616F8014B8FB1FB
:1005B0005C2C16D01CE008F108004146C8F8000089
:1005C0000020C8F80400D8F800402070012005B0D1
:1005D000BDE8F08F222C01D0272C0FD12746BA4638
:1005E0002CE03078222807D05C2805D0272803D0BB
:1005F000BC4203D1002721E0761C04464CB12FB940
:10060000202C06D0A4F10900042802D905F8014BDA
:10061000CBE74D4502D1BAF1000F0FD05246494603
:10062000002005F8010B6846AFF300809DF800003C
:1006300070B14D464FF0000A0BF1010B002CB4D104
:100640004FEA8B0103A8FFF783FF040002D004E008
:10065000A946EFE7002000F03EF800204246C4F82B
:10066000008005E012F8011B11B9401C44F820205D
:10067000AA42F7D3002144F820102146A7E71CB571
:100680000446CDE9000169461520ABBE08B1002043
:100690001CBD20461CBD0000004870471000002013
:1006A0007047704770B505460C460A2000E06D1C87
:1006B00000F018F835B128780028F8D102E0641C61
:1006C00000F010F814B120780028F8D1BDE870408F
:1006D0000A2000F007B810B500F00CF8BDE8104093
:1006E000FFF731BF08B569468DF800000320ABBEA7
:1006F00008BD000010B5012805D0002103A0FFF7B8
:10070000D1FF012010BD09A1F8E70000534947526D
:10071000544D454D3A204F7574206F6620686561D1
:1007200070206D656D6F7279000000003A20486599
:100730006170206D656D6F727920636F7272757074
:1007400074656400FFE7FEE780B540F26450C2F2D2
:10075000000000F005FB80BD80B540F26450C2F29D
:10076000000000F0FDFA80BD80B540F28C50C2F26E
:10077000000000F0F5FA80BD80B540F28C50C2F266
:10078000000000F0EDFA80BD7047000072B6FFE790
:10079000FEE7000086B00A460346049003910498E1
:1007A00090F820008DF80B009DF80B0001280192B5
:1007B000009305D0FFE79DF80B0002280AD1FFE760
:1007C0000398049909684A691043486100208DF82C
:1007D000170008E00498416A41F480214162012039
:1007E0008DF81700FFE79DF8170006B0704700006E
:1007F000B0B58CB09C4696460C4605460A900991C9
:10080000089207930A9890F820008DF817000A982C
:10081000006880680490099880680028CDF80CC0B2
:10082000CDF808E00194009501D1FFE700E0FFE773
:100830009DF81700012806D0FFE79DF81700022851
:1008400040F08280FFE79DF81300400700280CD499
:10085000FFE79DF813000007002806D4FFE79DF886
:100860001300C006002866D5FFE70498C0F30160B6
:1008700006900698012101FA00F00799086009988E
:10088000806800280DD1FFE709980168C06840EA38
:1008900041500A990968069A01EB0211C1F88001DA
:1008A0000EE0099841688268C06842EAC1010843C5
:1008B0000A990968069A01EB0211C1F88001FFE765
:1008C000099800690A990968069A01EB0211C1F8B2
:1008D00084010998007D01280CD1FFE70A9800687F
:1008E000069900EB0110D0F8841141F48071C0F832
:1008F0008411FFE7089840680A990968069A01EB95
:100900000211C1F88C01089800680A990968069AD2
:1009100001EB0211C1F888010A980068069900EB02
:100920000110D0F8801141F00101C0F880110020C1
:100930008DF82F0011E00A98416A41F400114162DC
:1009400001208DF82F0008E00A98416A41F48021C7
:10095000416201208DF82F00FFE79DF82F000CB0B9
:10096000B0BD000088B00A4603460690059106987F
:1009700000680390069890F820008DF80B009DF811
:100980000B0001280192009306D0FFE79DF80B00B1
:10099000022840F0B880FFE746F20040C4F20000B1
:1009A00003900398D0F8001241F00101C0F8001242
:1009B0000398D0F8001221F47C51C0F80012059879
:1009C000406A0399D1F8002242EA0020C1F80002EF
:1009D0000598406900F01F00012101FA00F0049021
:1009E00004980399D1F81C2222EA0000C1F81C02E5
:1009F0000598C06900281FD1FFE704980399D1F832
:100A00000C2222EA0000C1F80C0205988188C26815
:100A1000406941EA0241039A02EBC000C0F840126B
:100A2000059801888268406941EA0241039A02EB15
:100A3000C000C0F84412FFE70598C06901281ED124
:100A4000FFE704980399D1F80C221043C1F80C0277
:100A5000059881880268406941EA0241039A02EBE5
:100A6000C000C0F84012059881898268406941EA57
:100A70000241039A02EBC000C0F84412FFE7059858
:100A80008069002809D1FFE704980399D1F804226E
:100A900022EA0000C1F8040207E004980399D1F8A3
:100AA00004221043C1F80402FFE7059800690028FA
:100AB00009D1FFE704980399D1F8142222EA000033
:100AC000C1F8140207E004980399D1F814221043E6
:100AD000C1F81402FFE70598006A012808D1FFE772
:100AE00004980399D1F81C221043C1F81C02FFE7B7
:100AF0000398D0F8001221F00101C0F80012002084
:100B00008DF81F0008E00698416A41F48021416297
:100B100001208DF81F00FFE79DF81F0008B0704707
:100B200082B001460190009102B07047B0B58AB022
:100B30009C4696460C4605460890079106920593FA
:100B4000089890F820008DF813009DF813000128F4
:100B5000CDF80CC0CDF808E00194009506D0FFE771
:100B60009DF81300022840F0ED80FFE70798002869
:100B700011D1FFE708980068C06810F0030F09D191
:100B8000FFE70898416A41F40011416201208DF8A5
:100B90002700E0E010E008980068006910F0030FFB
:100BA00009D1FFE70898416A41F400114162012030
:100BB0008DF82700CFE0FFE708980068079900EB61
:100BC0000110D0F8B00100F0040006998860069882
:100BD000806800280BD1FFE708980068079900EBB0
:100BE0000110D0F8B001400D069908600AE008989D
:100BF0000068079900EB0110D0F8B001C008069911
:100C00004860FFE708980068079900EB0110D0F8EA
:100C1000B00100F002000699C860089800680799C2
:100C200000EB0110D0F8B40100F00F00082804D345
:100C3000FFE70698082101610BE008980068079912
:100C400000EB0110D0F8B40100F00F000699086124
:100C5000FFE708980068079900EB0110D0F8B4018D
:100C6000C0F307200699886108980068079900EB8F
:100C70000110D0F8B401000C06994861089800688A
:100C8000079900EB0110D0F8B80105990870089891
:100C90000068079900EB0110D0F8B801000A059927
:100CA000487008980068079900EB0110D0F8B80167
:100CB000000C0599887008980068079900EB0110EE
:100CC000D0F8B801000E0599C87008980068079917
:100CD00000EB0110D0F8BC01059908710898006874
:100CE000079900EB0110D0F8BC01000A0599487182
:100CF00008980068079900EB0110D0F8BC01000CBF
:100D00000599887108980068079900EB0110D0F8E0
:100D1000BC01000E0599C8710798002807D1FFE7AC
:100D200008980068C16841F02001C16006E0089899
:100D30000068016941F020010161FFE700208DF8A2
:100D4000270008E00898416A41F4802141620120AF
:100D50008DF82700FFE79DF827000AB0B0BD00001E
:100D600080B58AB001460990002008900998006873
:100D700040690790099800684068069009980068E3
:100D80008068059009980068C06804900998006818
:100D90000069039009980068806902909DF81C0022
:100DA000C0070028019100F09780FFE79DF814002C
:100DB000C00700282BD0FFE7099800680121816057
:100DC0009DF814008007002804D5FFE7099800F07B
:100DD0009BFC1BE09DF814004007002805D5FFE7A9
:100DE000089840F4006008900FE09DF81400000798
:100DF000002805D5FFE7089840F48050089003E0EC
:100E0000099800F07BFCFFE7FFE7FFE7FFE79DF8AD
:100E10001500C00700282CD0FFE7099800684FF4A0
:100E2000807181609DF815008007002804D5FFE7D8
:100E3000099800F075FC1BE09DF81500400700289C
:100E400005D5FFE7089840F4005008900FE09DF8A2
:100E500015000007002805D5FFE7089840F48040FA
:100E6000089003E0099800F055FCFFE7FFE7FFE773
:100E7000FFE79DF81600C00700282CD0FFE709986F
:100E800000684FF4803181609DF8160080070028CB
:100E900004D5FFE7099800F04FFC1BE09DF8160011
:100EA0004007002805D5FFE7089840F40040089067
:100EB0000FE09DF816000007002805D5FFE7089809
:100EC00040F48030089003E0099800F02FFCFFE721
:100ED000FFE7FFE7FFE7FFE79DF81C00000700289A
:100EE00010D5FFE79DF81000C006002809D5FFE7E0
:100EF000089840F400700890099800681021C160BB
:100F0000FFE7FFE79DF81C00400700280FD5FFE72B
:100F10009DF810000007002808D5FFE70998006831
:100F20000821C160099800F0FBFAFFE7FFE79DF890
:100F30001C00800700280CD5FFE709980068C068EE
:100F400010F0030F04D0FFE7099800F0EFFAFFE775
:100F5000FFE79DF81C004006002810D5FFE79DF82C
:100F60000C00C006002809D5FFE7089840F480600F
:100F700008900998006810210161FFE7FFE79DF8DC
:100F80001C00800600280FD5FFE79DF80C00000725
:100F9000002808D5FFE70998006808210161099831
:100FA00000F050FBFFE7FFE79DF81C00C00600289B
:100FB0000CD5FFE709980068006910F0030F04D012
:100FC000FFE7099800F044FBFFE7FFE79DF81E00EC
:100FD000800700280FD5FFE79DF81800C0060028FD
:100FE00008D5FFE70998006810214160099800F0D2
:100FF00035FBFFE7FFE79DF81E00C00700280FD074
:10100000FFE79DF818000007002808D5FFE70998BA
:10101000006808214160099800F094FBFFE7FFE7B2
:101020009DF81D000006002840F18F80FFE79DF825
:1010300018004007002840F18380FFE79DF81D005D
:10104000C00700280BD0FFE79DF80800C007002864
:1010500005D0FFE7089840F001000890FFE79DF8F1
:101060001D00800700280BD5FFE79DF808008007CA
:10107000002805D5FFE7089840F002000890FFE738
:101080009DF81D00400700280BD5FFE79DF80800DC
:101090004007002805D5FFE7089840F004000890B5
:1010A000FFE79DF81D000007002848D5FFE79DF8E1
:1010B000080010F0700F42D0FFE7029800F07000B7
:1010C00001461028009114D0FFE70098202815D081
:1010D000FFE70098302816D0FFE70098402817D087
:1010E000FFE70098502818D0FFE70098602819D033
:1010F0001DE0089840F00800089019E0089840F0BA
:101100001000089014E0089840F0200008900FE0CC
:10111000089840F0400008900AE0089840F08000ED
:10112000089005E0089840F48070089000E0FFE720
:1011300009980068816921F070018161FFE7FFE78C
:101140000998006804214160FFE70898002809D049
:10115000FFE7089809994A6A104348620998FFF71F
:10116000DFFCFFE70AB080BD80B584B00146029085
:1011700002980028009104D1FFE701208DF80F00AC
:10118000E6E0029890F82000002804D1FFE70298DA
:1011900000F0E2F8FFE702980068016841F0010101
:1011A000016000F05FFD0190FFE702980068406871
:1011B00010F0010F17D1FFE700F054FDDDF804E057
:1011C000A0EB0E000B280DD3FFE70298416A41F413
:1011D000003141620298052180F8201001208DF82D
:1011E0000F00B5E0E1E702980068016821F0020114
:1011F000016000F037FD0190FFE702980068406849
:1012000010F0020F17D0FFE700F02CFDDDF804E02E
:10121000A0EB0E000B280DD3FFE70298416A41F4C2
:10122000003141620298052180F8201001208DF8DC
:101230000F008DE0E1E70298007E012807D1FFE76B
:1012400002980068016841F08001016006E00298A0
:101250000068016821F080010160FFE70298407E8C
:10126000012807D1FFE702980068016841F04001BA
:10127000016006E002980068016821F04001016009
:10128000FFE70298807E012807D1FFE702980068F7
:10129000016841F02001016006E0029800680168E1
:1012A00021F020010160FFE70298C07E012807D1EC
:1012B000FFE702980068016821F01001016006E074
:1012C00002980068016841F010010160FFE7029890
:1012D000007F012807D1FFE702980068016841F00C
:1012E0000801016006E002980068016821F0080129
:1012F0000160FFE70298407F012807D1FFE70298CD
:101300000068016841F00401016006E0029800688D
:10131000016821F004010160FFE70298016842685A
:101320008368D0F80CC043EA0C03D0F810C043EA3D
:101330000C0340691843013A1043C8610298002128
:1013400041620298012280F820208DF80F10FFE7FB
:101350009DF80F0004B080BD80B59AB00146199089
:101360000020189017901690159014901998006806
:1013700046F20042C4F2000290420E9158D1FFE7BB
:1013800040F27000C2F200000168013101600068A3
:10139000012813D1FFE7FFE70020139043F6400038
:1013A000C4F20200016841F000710160006800F0C1
:1013B0000070139013980D90FFE7FFE7FFE7002000
:1013C000129043F63000C4F20200016841F00101BE
:1013D0000160006800F00100129012980C90FFE785
:1013E0004FF4C05014900220159000201690032155
:1013F0001791092118910021C4F2020114AA0B903F
:101400000846114600F046FA142005210A90099179
:101410000B9A00F013FD0A9800F004FD15200890C7
:1014200009990B9A00F00AFD089800F0FBFC74E0A3
:101430001998006846F60001C4F2000188426BD199
:10144000FFE7FFE70020119043F64000C4F20200DE
:10145000016841F080610160006800F080601190D7
:1014600011980790FFE740F27000C2F20000016897
:10147000013101600068012813D1FFE7FFE7002078
:10148000109043F64000C4F20200016841F0007180
:101490000160006800F00070109010980690FFE75F
:1014A000FFE7FFE700200F9043F63000C4F2020090
:1014B000016841F002010160006800F002000F9035
:1014C0000F980590FFE74FF44050149002201590BC
:1014D00000201690032117910921189140F2004134
:1014E000C4F2020114AA04900846114600F0D2F991
:1014F0004020052103900291049A00F09FFC03987C
:1015000000F090FC412001900299049A00F096FCB2
:10151000019800F087FCFFE7FFE71AB080BD0000EC
:1015200082B001460190009102B0704780B594B03E
:1015300001461390139840F26452C2F200029042A6
:1015400002913AD1FFE740F26450C2F2000040F24B
:101550004E53C2F2000300210CAAFFF7E7FA00285D
:1015600003D0FFE7FFF712F9FFE700208DF82F0007
:10157000FFE79DF82F0040F24C51C2F200010978BC
:10158000884219DAFFE79DF82F0040F2FC41C2F2D1
:10159000000151F820000168496840F24E52C2F241
:1015A000000201911146019A9047FFE79DF82F0034
:1015B00001308DF82F00DCE742E0139840F28C51A7
:1015C000C2F2000188423AD1FFE740F28C50C2F2E9
:1015D000000040F25653C2F20003002104AAFFF7B4
:1015E000A5FA002803D0FFE7FFF7D0F8FFE70020B7
:1015F0008DF80F00FFE79DF80F0040F24D51C2F249
:1016000000010978884219DAFFE79DF80F0040F2DF
:101610002451C2F2000151F820000168496840F2EB
:101620005652C2F2000200911146009A9047FFE71D
:101630009DF80F0001308DF80F00DCE7FFE7FFE7B2
:1016400014B080BD82B001460190009102B0704795
:1016500082B001460190009102B0704782B001460D
:101660000190009102B0704780B584B001460290AD
:10167000029890F820000128009132D1FFE70298EB
:10168000022180F8201002980068016821F0010111
:10169000016000F0E7FA0190FFE7029800684068F7
:1016A00010F0010F17D0FFE700F0DCFADDF804E0DE
:1016B000A0EB0E000B280DD3FFE70298416A41F41E
:1016C000003141620298052180F8201001208DF838
:1016D0000F000FE0E1E70298002141628DF80F1042
:1016E00008E00298416A41F40021416201208DF82E
:1016F0000F00FFE79DF80F0004B080BD82B00146E7
:101700000190009102B0704782B0014601900091B3
:1017100002B0704782B001460190009102B070475C
:1017200082B001460190009102B0704782B001463C
:101730000190009102B0704782B001460190009183
:1017400002B0704782B001460190009102B070472C
:1017500080B586B0014604900498806D0390019195
:1017600000F080FA0290049890F8350002280DD01D
:10177000FFE7049880214165FFE70498002180F885
:101780003410FFE701208DF817005BE00498006833
:10179000016821F01601016004980068416921F098
:1017A000800141610498006C002805D1FFE704988E
:1017B000806C002807D0FFE704980068016821F0DA
:1017C00008010160FFE704980068016821F0010149
:1017D0000160FFE704980068006810F0010F1BD05B
:1017E000FFE700F03FFADDF808E0A0EB0E00062866
:1017F00011D3FFE70498202141650498032180F864
:101800003510FFE70498002180F83410FFE703202B
:101810008DF8170016E0DDE70498C06D3F2101FA4E
:1018200000F0039988600498012180F83510FFE7E3
:101830000498002180F83410FFE7FFE700208DF8BE
:101840001700FFE79DF8170006B080BD83B0014682
:101850000190019890F835000228009107D0FFE729
:1018600001988021416501208DF80B000EE0019860
:10187000052180F8351001980068016821F0010108
:101880000160FFE700208DF80B00FFE79DF80B00DB
:1018900003B0704791B00A46034610900F910020A4
:1018A0000D900C900B900E9009920893FFE70E9804
:1018B0000F2800F2D581FFE70E98012101FA00F010
:1018C0000D900F9800680D9908400C900C980D9998
:1018D000884240F0C081FFE70F98406800F00300A5
:1018E000012807D0FFE70F98406800F003000228A6
:1018F0002FD1FFE7109880680B900E9840000321CD
:1019000001FA00F00B9921EA00000B900F98C068D3
:101910000E99490088400B9908430B900B98109939
:101920008860109840680B900E98012101FA00F031
:101930000B9921EA00000B900F984068C0F300104B
:101940000E9988400B9908430B900B9810994860AA
:10195000FFE70F98406800F00300032818D0FFE766
:101960001098C0680B900E984000032101FA00F017
:101970000B9921EA00000B900F9880680E9949009E
:1019800088400B9908430B900B981099C860FFE7AB
:101990000F98406800F00300022828D1FFE7109854
:1019A0000E994FF6FC72C7F6FF7202EA5101084425
:1019B000006A0B900E9800F0070080000F2101FADA
:1019C00000F00B9921EA00000B900F9800690E9926
:1019D00001F00701890088400B9908430B900B9890
:1019E00010990E9B02EA530211440862FFE7109817
:1019F00000680B900E984000032101FA00F00B994B
:101A000021EA00000B900F98406800F003000E9947
:101A1000490088400B9908430B900B981099086077
:101A20000F9880798007002800F01481FFE7FFE716
:101A300000200A9043F64400C4F20200016841F419
:101A400080410160006800F480400A900A98079085
:101A5000FFE70E9820F0030043F60801C4F20101ED
:101A600040580B900E9800F0030080000F2101FAFF
:101A700000F00B9921EA00000B9010980021C4F2AD
:101A80000201884203D1FFE7002006905EE0109833
:101A900040F20041C4F20201884203D1FFE7012075
:101AA000059050E0109840F60001C4F2020188420F
:101AB00003D1FFE70220049042E0109840F6004175
:101AC000C4F20201884203D1FFE70320039034E00F
:101AD000109841F20001C4F20201884203D1FFE7ED
:101AE0000420029026E0109841F20041C4F2020165
:101AF000884203D1FFE70520019018E0109841F6D5
:101B00000001C4F20201884203D1FFE706200090E1
:101B10000AE0109841F60041C4F20201082288420E
:101B200008BF07220092FFE700980190FFE70198A5
:101B30000290FFE702980390FFE703980490FFE705
:101B400004980590FFE705980690FFE70698C0B255
:101B50000E9901F00301890088400B9908430B900E
:101B60000B980E9921F0030143F60802C4F201021A
:101B7000885043F60840C4F2010000680B900C98AE
:101B80000B9921EA00000B900F988079C00600287D
:101B900005D5FFE70C980B9908430B90FFE70B98CE
:101BA00043F60841C4F20101086043F60C40C4F258
:101BB000010000680B900C980B9921EA00000B9033
:101BC0000F9880798006002805D5FFE70C980B99BF
:101BD00008430B90FFE70B9843F60C41C4F2010158
:101BE000086043F60440C4F2010000680B900C98B2
:101BF0000B9921EA00000B900F988079800700284C
:101C000005D5FFE70C980B9908430B90FFE70B985D
:101C100043F60441C4F20101086043F60040C4F2F7
:101C2000010000680B900C980B9921EA00000B90C2
:101C30000F988079C007002805D0FFE70C980B9912
:101C400008430B90FFE70B9843F60041C4F20101F3
:101C50000860FFE7FFE7FFE70E9801300E9026E6E9
:101C600011B0704744F60000C2F2000000687047EF
:101C700040F20400C2F20000007844F60001C2F213
:101C800000010A68104408607047000080B582B007
:101C900043F60040C4F20200016841F400710160A3
:101CA000016841F480610160016841F48071016064
:101CB000032000F0E7F80F2000F006F8019000F094
:101CC00083F8002002B080BD80B590B001460F902F
:101CD0000020089007900391FFE70020049043F64E
:101CE0004000C4F20200016841F010010160006888
:101CF00000F01000049004980290FFE70AA806A9DB
:101D000000F006FA0D9808900898002804D1FFE723
:101D100000F038FA099004E000F034FA400009902D
:101D2000FFE709984DF68361C4F21B31A0FB010166
:101D30004FF0FF3202EB9141079140F2B451C2F2F1
:101D4000000141F20002C4F200020A6040F2E732F0
:101D5000CA60079A4A6000220A618A608A6101901B
:101D6000084600F037FE8DF817009DF81700002890
:101D700026D1FFE740F2B450C2F2000000F086FE28
:101D80008DF817009DF81700002818D1FFE73620BE
:101D900000F048F80F980F280CD8FFE70F9936206D
:101DA000002200F04BF80F9840F20801C2F2000147
:101DB000086003E001208DF81700FFE7FFE7FFE769
:101DC0009DF8170010B080BD80B584B0FFE70020FB
:101DD000039043F64400C4F20200016841F48041DC
:101DE0000160006800F48040039003980190FFE7D1
:101DF000FFE70020029043F64000C4F202000168B1
:101E000041F080510160006800F08050029002981B
:101E10000090FFE76FF001000F21002200F00EF8A4
:101E200004B080BD80B582B001468DF807009DF9F1
:101E30000700009102F0FAFA02B080BD80B58AB0C6
:101E400013468C4686468DF827000891079200209D
:101E500006900593CDF810C0CDF80CE002F002FB1F
:101E6000069006980899079A9DF92730029301F089
:101E7000ABFC029901900846019902F0FBFA0AB006
:101E800080BD000080B582B00146019001980091AC
:101E900002F03CFB02B080BD80B588B00A46034624
:101EA00006900591069800280392029304D1FFE75B
:101EB00001208DF81F0026E1059843F60041C4F289
:101EC0000201096801F00701884212D9FFE705986D
:101ED00043F60041C4F202010870086800F00700F0
:101EE0000599884204D0FFE701208DF81F000AE120
:101EF000FFE706980068800700282AD5FFE70698C4
:101F000000684007002809D5FFE743F60800C4F23F
:101F10000200016841F4E0510160FFE706980068A3
:101F20000007002809D5FFE743F60800C4F20200C5
:101F3000016841F460410160FFE743F60800C4F224
:101F40000200016821F0F001069A926811430160D5
:101F5000FFE706980068C007002870D0FFE70698E2
:101F60004068012811D1FFE743F60000C4F20200E7
:101F7000006800F400300021B1EB504F04D1FFE7BE
:101F800001208DF81F00BEE02CE006984068022872
:101F900005D0FFE706984068032811D1FFE743F614
:101FA0000000C4F20200006800F000700021B1EBF4
:101FB000506F04D1FFE701208DF81F00A3E010E06F
:101FC00043F60000C4F20200006800F002000021A5
:101FD000B1EB500F04D1FFE701208DF81F0092E014
:101FE000FFE7FFE743F60800C4F20200016821F0B2
:101FF0000301069A526811430160FFF733FE049013
:10200000FFE743F60800C4F20200006800F00C008D
:1020100006994968B0EB810F10D0FFE7FFF722FE69
:10202000DDF810E0A0EB0E0041F2893E704504D3CC
:10203000FFE703208DF81F0065E0E2E7FFE7059862
:1020400043F60041C4F20201096801F00701884229
:1020500012D2FFE7059843F60041C4F2020108706E
:10206000086800F007000599884204D0FFE70120C6
:102070008DF81F0047E0FFE706980068400700283A
:102080000CD5FFE743F60800C4F20200016821F412
:10209000E051069AD26811430160FFE70698006894
:1020A000000700280DD5FFE743F60800C4F2020040
:1020B000016821F46041069A126941EAC201016097
:1020C000FFE700F087F843F6080EC4F2020EDEF8D0
:1020D00000E0CEF3031E47F28A71C0F6000111F84A
:1020E0000E10C84040F20001C2F20001086040F248
:1020F0000800C2F200000068FFF7E6FD00218DF83D
:102100001F100190FFE79DF81F0008B080BD000080
:1021100084B00A4603460390029103980F210160A0
:1021200043F60800C4F20200016801F00301DDF883
:102130000CC0CCF80410016801F0F001DDF80CC00F
:10214000CCF80810016801F4E051DDF80CC0CCF8BF
:102150000C10006800F46040C0080399086143F661
:102160000040C4F20200006800F007000299086015
:102170000192009304B0704740F20000C2F20000E8
:102180000068704780B5FFF7F7FF43F6080EC4F20A
:10219000020EDEF800E0CEF3822E47F29A71C0F60E
:1021A000000111F80E10C84080BD000080B5FFF797
:1021B000E3FF43F6080EC4F2020EDEF800E0CEF3B1
:1021C000423E47F29A71C0F6000111F80E10C84065
:1021D00080BD000080B586B000200590049003907B
:1021E000029043F60800C4F20200006800F00C0000
:1021F00001460028019108D0FFE7019804280AD081
:10220000FFE7019808280CD04FE042F20040C0F2EE
:10221000F40002904FE041F20020C0F27A000290F8
:1022200049E043F60400C4F20200016801F03F01F6
:102230000591006810F4800F13D0FFE743F6040007
:10224000C4F202000068C0F3881041F20021C0F21D
:102250007A01A0FB0101059A0023FEF70DF8049016
:1022600012E043F60400C4F202000068C0F38810D4
:1022700042F20041C0F2F401A0FB0101059A0023E3
:10228000FDF7FAFF0490FFE743F60400C4F20200F2
:10229000006800F44030022101EBD0300390049834
:1022A0000399B0FBF1F0029005E042F20040C0F269
:1022B000F4000290FFE7029806B080BD80B588B0B8
:1022C0000146069006980028019104D1FFE70120FD
:1022D0008DF81F006EE306980068C007002800F024
:1022E000AB80FFE743F60800C4F20200006800F08C
:1022F0000C00042813D0FFE743F60800C4F20200E4
:10230000006800F00C0008281FD1FFE743F6040026
:10231000C4F20200006810F4800F16D0FFE743F605
:102320000000C4F20200006800F400300021B1EBAC
:10233000504F09D0FFE706984068002804D1FFE716
:1023400001208DF81F0035E375E0FFE7069840682F
:10235000B0F5803F09D1FFE743F60000C4F2020068
:10236000016841F48031016020E006984068B0F5D2
:10237000A02F0DD1FFE743F60000C4F20200016870
:1023800041F480210160016841F4803101600CE07A
:1023900043F60000C4F20200016821F480310160BC
:1023A000016821F480210160FFE7FFE7FFE706985D
:1023B000406800281FD0FFE7FFF754FC0590FFE7B7
:1023C00043F60000C4F20200006800F4003000216F
:1023D000B1EB504F0ED1FFE7FFF744FCDDF814E0FE
:1023E000A0EB0E00652804D3FFE703208DF81F0043
:1023F000E0E2E5E71EE0FFF735FC0590FFE743F676
:102400000000C4F20200006800F400300021B1EBCB
:10241000504F0ED0FFE7FFF725FCDDF814E0A0EBEE
:102420000E00652804D3FFE703208DF81F00C1E2EA
:10243000E5E7FFE7FFE7FFE7069800688007002869
:1024400040F19B80FFE743F60800C4F202000068F9
:1024500010F00C0F13D0FFE743F60800C4F202009F
:10246000006800F00C0008282CD1FFE743F60400B8
:10247000C4F20200006810F4800F23D1FFE743F696
:102480000000C4F20200006800F002000021B1EB7D
:10249000500F09D0FFE70698C068012804D0FFE775
:1024A00001208DF81F0085E243F60000C4F202000F
:1024B000016821F0F801069A126941EAC20101603F
:1024C000FFE759E00698C068002830D0FFE70020F9
:1024D000C4F2472001210160FFF7C4FB0590FFE72C
:1024E00043F60000C4F20200006800F00200002180
:1024F000B1EB500F0ED1FFE7FFF7B4FBDDF814E0AE
:10250000A0EB0E00032804D3FFE703208DF81F0083
:1025100050E2E5E743F60000C4F20200016821F052
:10252000F801069A126941EAC201016023E0002025
:10253000C4F2472000210160FFF794FB0590FFE7FC
:1025400043F60000C4F20200006800F0020000211F
:10255000B1EB500F0ED0FFE7FFF784FBDDF814E07E
:10256000A0EB0E00032804D3FFE703208DF81F0023
:1025700020E2E5E7FFE7FFE7FFE7069800680007CE
:10258000002850D5FFE706984069002825D0FFE7CE
:1025900040F68060C4F2472001210160FFF762FB32
:1025A0000590FFE743F67400C4F20200006800F0F3
:1025B00002000021B1EB500F0ED1FFE7FFF752FBF5
:1025C000DDF814E0A0EB0E00032804D3FFE703209E
:1025D0008DF81F00EEE1E5E724E040F68060C4F2EC
:1025E000472000210160FFF73DFB0590FFE743F620
:1025F0007400C4F20200006800F002000021B1EB98
:10260000500F0ED0FFE7FFF72DFBDDF814E0A0EB35
:102610000E00032804D3FFE703208DF81F00C9E153
:10262000E5E7FFE7FFE7069800684007002840F16C
:10263000D680FFE700208DF80F0043F64000C4F27B
:102640000200006810F0805F16D1FFE7FFE700206E
:10265000029043F64000C4F20200016841F080514C
:102660000160006800F08050029002980090FFE73F
:1026700001208DF80F00FFE747F20000C4F20000D0
:10268000006810F4807F24D1FFE747F20000C4F215
:102690000000016841F480710160FFF7E3FA0590E2
:1026A000FFE747F20000C4F20000006810F4807FEA
:1026B0000ED1FFE7FFF7D6FADDF814E0A0EB0E002D
:1026C000032804D3FFE703208DF81F0072E1E8E739
:1026D000FFE7FFE706988068012809D1FFE743F686
:1026E0007000C4F20200016841F0010101601FE0C6
:1026F0000698806805280DD1FFE743F67000C4F204
:102700000200016841F004010160016841F001012B
:1027100001600CE043F67000C4F20200016821F091
:1027200001010160016821F004010160FFE7FFE79A
:10273000FFE706988068002821D0FFE7FFF792FAAC
:102740000590FFE743F67000C4F20200006800F055
:1027500002000021B1EB500F10D1FFE7FFF782FA22
:10276000DDF814E0A0EB0E0041F2893E704504D381
:10277000FFE703208DF81F001CE1E3E720E0FFF7EF
:1027800071FA0590FFE743F67000C4F2020000689A
:1027900000F002000021B1EB500F10D0FFE7FFF76F
:1027A00061FADDF814E0A0EB0E0041F2893E7045BD
:1027B00004D3FFE703208DF81F00FBE0E3E7FFE70A
:1027C0009DF80F00012809D1FFE743F64000C4F24D
:1027D0000200016821F080510160FFE7FFE70698E1
:1027E0008069002800F0E280FFE743F60800C4F2A9
:1027F0000200006800F00C00082800F08B80FFE762
:1028000006988069022860D1FFE76020C4F2472063
:1028100000210160FFF726FA0590FFE743F600006C
:10282000C4F20200006800F000700021B1EB506FAC
:102830000ED0FFE7FFF716FADDF814E0A0EB0E006C
:10284000032804D3FFE703208DF81F00B2E0E5E77B
:102850000698C169026A436AD0F828C0114341EA68
:1028600083114FEACC324FF6FF739A43A2F58032C0
:102870001143C06A41EA006043F60401C4F2020158
:1028800008606020C4F2472001210160FFF7EAF9E7
:102890000590FFE743F60000C4F20200006800F074
:1028A00000700021B1EB506F0ED1FFE7FFF7DAF9AE
:1028B000DDF814E0A0EB0E00032804D3FFE70320AB
:1028C0008DF81F0076E0E5E723E06020C4F24720A2
:1028D00000210160FFF7C6F90590FFE743F600000D
:1028E000C4F20200006800F000700021B1EB506FEC
:1028F0000ED0FFE7FFF7B6F9DDF814E0A0EB0E000D
:10290000032804D3FFE703208DF81F0052E0E5E71A
:10291000FFE74AE006988069012804D1FFE701201B
:102920008DF81F0046E043F60400C4F20200006880
:10293000049006988069012831D0FFE7049800F4DC
:1029400080000699C969884229D1FFE7049800F000
:102950003F000699096A884221D1FFE7049847F6AB
:10296000C07108400699496AB0EB811F17D1FFE793
:10297000049800F440300699896AC9034FF6FF7243
:102980009143A1F58031884209D1FFE7049800F016
:1029900070600699C96AB0EB016F04D0FFE70120AF
:1029A0008DF81F0006E0FFE7FFE7FFE700208DF846
:1029B0001F00FFE79DF81F0008B080BD82B00146F0
:1029C0000190009102B0704782B0014601900091E1
:1029D00002B0704780B584B001460290029800288A
:1029E000019104D1FFE701208DF80F0043E0029828
:1029F00090F83D00002808D1FFE70298002180F8F8
:102A00003C10029800F03CF8FFE70298022180F8A1
:102A10003D10029850F8041B00900846009901F000
:102A20000FF80298012180F84610FFE70298012173
:102A300080F83E10029880F83F10029880F840100D
:102A4000029880F84110FFE7FFE70298012180F823
:102A50004210029880F84310029880F844100298BF
:102A600080F84510FFE70298012180F83D10002012
:102A70008DF80F00FFE79DF80F0004B080BD000047
:102A800082B001460190009102B0704784B00146C7
:102A90000290029890F83D000128009104D0FFE7D1
:102AA00001208DF80F006AE00298022180F83D10A5
:102AB00002980068C16841F00101C1600298006895
:102AC0000021C4F2010188423CD0FFE7029800686F
:102AD000B0F1804F36D0FFE70298006840F2004125
:102AE000C4F2000188422DD0FFE70298006840F64A
:102AF0000001C4F20001884224D0FFE70298006878
:102B000040F60041C4F2000188421BD0FFE7029862
:102B1000006840F20041C4F20101884212D0FFE790
:102B20000298006844F20001C4F20101884209D011
:102B3000FFE70298006841F60001C4F200018842F4
:102B400012D1FFE702980068806800F0070001904A
:102B50000198062807D0FFE702980068016841F055
:102B600001010160FFE706E002980068016841F09A
:102B700001010160FFE700208DF80F00FFE79DF8DD
:102B80000F0004B07047000082B001460190009130
:102B900002B0704780B584B0014603900398006886
:102BA000C06802900398006800690190019880074E
:102BB0000028009124D5FFE70298800700281ED541
:102BC000FFE7039800686FF002010161039801219B
:102BD000017703980068806910F0030F04D0FFE7C5
:102BE0000398FFF7D1FF06E0039800F0D7F80398A9
:102BF00000F0DAF8FFE7039800210177FFE7FFE72D
:102C000001984007002824D5FFE7029840070028D4
:102C10001ED5FFE7039800686FF004010161039877
:102C20000221017703980068806910F4407F04D086
:102C3000FFE70398FFF7A8FF06E0039800F0AEF85F
:102C4000039800F0B1F8FFE7039800210177FFE750
:102C5000FFE701980007002824D5FFE70298000746
:102C600000281ED5FFE7039800686FF00801016196
:102C700003980421017703980068C06910F0030FDE
:102C800004D0FFE70398FFF77FFF06E0039800F00A
:102C900085F8039800F088F8FFE703980021017792
:102CA000FFE7FFE70198C006002824D5FFE7029858
:102CB000C00600281ED5FFE7039800686FF01001DA
:102CC000016103980821017703980068C06910F436
:102CD000407F04D0FFE70398FFF756FF06E0039814
:102CE00000F05CF8039800F05FF8FFE7039800211C
:102CF0000177FFE7FFE70198C00700280FD0FFE743
:102D00000298C007002809D0FFE7039800686FF019
:102D100001010161039800F04DF8FFE7FFE701981A
:102D2000000600280FD5FFE702980006002809D505
:102D3000FFE7039800686FF0800101610398FFF7D7
:102D40003DFEFFE7FFE70198400600280FD5FFE7AB
:102D500002984006002809D5FFE7039800686FF045
:102D600040010161039800F039F8FFE7FFE701989F
:102D7000800600280FD5FFE702988006002809D5B5
:102D8000FFE7039800686FF0200101610398FFF7E7
:102D90001BFEFFE7FFE704B080BD000082B00146E4
:102DA0000190009102B0704782B0014601900091FD
:102DB00002B0704780B582B001460190019800686A
:102DC00041F20002C4F200029042009103D1FFE7F9
:102DD000FEF74EFFFFE702B080BD000082B0014663
:102DE0000190009102B0704784B00A4603460390F8
:102DF000ADF80A100192009304B0704782B001460A
:102E00000190009102B0704780B598B001461790CC
:102E1000179800680068169017980068C0681590A9
:102E2000179800684069149000201390129016982B
:102E300000F00F00139013980028069112D1FFE7BD
:102E40009DF85800800600280BD5FFE79DF8540038
:102E50008006002805D5FFE7179800F043FF05908E
:102E6000F9E1FFE71398002800F0CD80FFE79DF817
:102E70005000C007002807D1FFE7BDF8540010F448
:102E8000907F00F0C080FFE79DF85800C007002841
:102E90000CD0FFE79DF85500C007002806D0FFE7DB
:102EA0001798416C41F001014164FFE79DF858001B
:102EB000400700280CD5FFE79DF85000C007002808
:102EC00006D0FFE71798416C41F002014164FFE72B
:102ED0009DF85800800700280CD5FFE79DF85000AA
:102EE000C007002806D0FFE71798416C41F00401A5
:102EF0004164FFE79DF858000007002812D5FFE75E
:102F00009DF854008006002806D4FFE79DF8500085
:102F1000C007002806D0FFE71798416C41F0080170
:102F20004164FFE71798406C00286BD0FFE79DF8DD
:102F30005800800600280BD5FFE79DF85400800656
:102F4000002805D5FFE7179800F0CCFE0490FFE7B6
:102F5000179800684069C0F3801012901798406C71
:102F600010F0080F04D1FFE71298002840D0FFE7C7
:102F7000179800F055FE17980068406910F0400F50
:102F800031D0FFE7FFE7FFE71798006850E8050F2B
:102F900020F040001190FFE711981799096841E867
:102FA0000502002AF0D1FFE7FFE71798C06B002861
:102FB00014D0FFE71798C06B43F6FD31C0F600014F
:102FC00001651798C06BFEF741FC002805D0FFE7AC
:102FD0001798C06B016D8847FFE703E01798FFF76C
:102FE0000DFFFFE703E01798FFF708FFFFE708E092
:102FF0001798FFF703FF17984FF0000EC0F844E052
:10300000FFE7FFE727E11798006B012840F00181F7
:10301000FFE79DF85800C006002840F1FA80FFE75E
:103020009DF85400C006002840F1F380FFE7FFE759
:10303000002010901798006800681090179800689A
:103040004068109010980390FFE717980068406957
:1030500010F0400F00F08380FFE71798C06B006806
:103060004068ADF83E00BDF83E00002876D0FFE78E
:10307000BDF83E001799898D88426FDAFFE7BDF8E9
:103080003E001799C8851798C06BC069B0F5807F5E
:1030900059D0FFE7FFE7FFE71798006850E8030FF4
:1030A00020F480700E90FFE70E981799096841E8A8
:1030B0000302002AF0D1FFE7FFE7FFE7FFE71798D9
:1030C000006850E8050F20F001000D90FFE70D9813
:1030D0001799096841E80502002AF0D1FFE7FFE7E8
:1030E000FFE7FFE71798006850E8050F20F0400061
:1030F0000C90FFE70C981799096841E80502002A2F
:10310000F0D1FFE7FFE71798202180F842101798C9
:1031100000210163FFE7FFE71798006850E8030FFD
:1031200020F010000B90FFE70B981799096841E811
:103130000302002AF0D1FFE7FFE71798C06BFEF704
:1031400007FB0290FFE71798022141631798818DD2
:10315000C28D891A89B2FFF747FEFFE77BE0179817
:10316000818DC08D081AADF82A001798C08D0028EF
:103170004ED0FFE7BDF82A00002849D0FFE7FFE75F
:10318000FFE71798006850E8030F20F4907009904B
:10319000FFE709981799096841E80302002AF0D16E
:1031A000FFE7FFE7FFE7FFE71798006850E8050F24
:1031B00020F001000890FFE708981799096841E896
:1031C0000502002AF0D1FFE7FFE71798202180F8D9
:1031D0004210179800210163FFE7FFE71798006886
:1031E00050E8030F20F010000790FFE707981799A9
:1031F000096841E80302002AF0D1FFE7FFE71798CA
:10320000022141631798BDF82A10FFF7EDFDFFE793
:1032100021E09DF85800000600280BD5FFE79DF837
:1032200054000006002805D5FFE7179800F006FFB8
:10323000019010E09DF85800400600280BD5FFE7EC
:103240009DF854004006002805D5FFE7179800F0C8
:1032500033FD0090FFE718B080BD000080B584B05A
:103260000146029002980028019104D1FFE7012055
:103270008DF80F0043E002988069002801D0FFE735
:1032800000E0FFE7029890F84100002808D1FFE72E
:103290000298002180F84010029800F035F8FFE70E
:1032A0000298242180F8411002980068C16821F436
:1032B0000051C160029800F0D1FD029800680169D8
:1032C00021F49041016102980068416921F02A01CE
:1032D000416102980068C16841F40051C1600298E0
:1032E0000021416402984FF0200E80F841E00298DE
:1032F00080F842E0029841638DF80F10FFE79DF8D7
:103300000F0004B080BD000080B59AB0014619904E
:103310000020189017901690159014901998006836
:1033200044F60002C4F2000290420E916DD1FFE714
:10333000FFE70020139043F64000C4F2020001684A
:1033400041F480210160006800F4802013901398FC
:103350000D90FFE7FFE70020129043F63000C4F223
:103360000200016841F002010160006800F0020003
:10337000129012980C90FFE7FFE70020119043F69F
:103380003000C4F20200016841F0080101600068E9
:1033900000F00800119011980B90FFE74FF498404F
:1033A00014900220159000211691032217920723F2
:1033B000189340F2004CC4F2020C0DF1500E0A902A
:1033C000604609917146CDF820E007930692FEF71A
:1033D00061FA4FF4006014900A98159009991691BB
:1033E000069A1792079B189340F60040C4F2020019
:1033F0000899FEF74FFA272005210590099AFEF754
:103400001DFD0598FEF70EFD4CE01998006841F28D
:103410000041C4F20101884243D1FFE7FFE70020E9
:10342000109043F64400C4F20200016841F020010C
:103430000160006800F02000109010980490FFE7F1
:10344000FFE700200F9043F63000C4F2020001684D
:1034500041F040010160006800F040000F900F98BB
:103460000390FFE74FF48440149002201590002051
:103470001690032117910821189141F60001C4F21A
:10348000020114AA029008461146FEF703FA4720EB
:1034900005210190029AFEF7D1FC0198FEF7C2FCCB
:1034A000FFE7FFE71AB080BD80B588B013468C46B1
:1034B000864606900591ADF81220069890F84200D5
:1034C00020280393CDF808C0CDF804E019D1FFE718
:1034D0000598002805D0FFE7BDF81200002804D1A8
:1034E000FFE701208DF81F000FE00698002101631F
:1034F00006980599BDF8122000F064FD8DF81F00B4
:1035000003E002208DF81F00FFE79DF81F0008B0C0
:1035100080BD000080B588B001460790002005906E
:103520000491FFE7059840F2F841C2F200010968F2
:10353000884233DAFFE7059840F2D841C2F2000131
:1035400051F8200080680799884222D1FFE705984A
:1035500040F2D841C2F2000151F8200000798DF804
:103560001B00059851F82000026812689DF81B3076
:103570000391194690470598039951F820008268F5
:10358000011D012002901046029AFFF78DFF019065
:10359000FFE7FFE7059801300590C3E708B080BD5D
:1035A00082B001460190009102B07047FFE7FEE74C
:1035B00080B540F26450C2F2000046F20041C4F20D
:1035C000000101600321416000218160C1604FF46E
:1035D000002202614FF44012426101764176817609
:1035E000C17601774177FDF7BFFD002803D0FFE7E3
:1035F000FDF7CCF8FFE780BD80B540F28C50C2F2F9
:10360000000046F60001C4F20001016003214160A0
:1036100000218160C1604FF4002202614FF440122A
:103620004261017641768176C17601774177FDF777
:103630009BFD002803D0FFE7FDF7A8F8FFE780BD5A
:1036400080B543F6F500C0F6000047F2D472C0F62C
:103650000002002101F026F840F26051C2F20001A0
:10366000086080BD8CB0FFE700200B9043F630006F
:10367000C4F20200016841F004010160006800F03A
:1036800004000B900B980590FFE7FFE700200A90DD
:1036900043F63000C4F20200016841F0800101608D
:1036A000006800F080000A900A980490FFE7FFE7A6
:1036B0000020099043F63000C4F20200016841F096
:1036C00002010160006800F002000990099803906F
:1036D000FFE7FFE70020089043F63000C4F2020045
:1036E000016841F008010160006800F008000890DE
:1036F00008980290FFE7FFE70020079043F63000AC
:10370000C4F20200016841F001010160006800F0AC
:103710000100079007980190FFE7FFE7002006905F
:1037200043F63000C4F20200016841F0400101603C
:10373000006800F04000069006980090FFE70CB08B
:103740007047000080B540F2FC50C2F2000044F621
:103750000001C4F2000101604FF4E1314160002139
:103760008160C16001610C2242614FF4407282614C
:10377000C161FFF773FD002803D0FFE7FDF706F8EE
:10378000FFE780BD80B540F24460C2F2000041F224
:103790000041C4F2010101604FF4E12141600021C8
:1037A0008160C16001610C2242618161C161FFF7EA
:1037B00055FD002803D0FFE7FCF7E8FFFFE780BDD9
:1037C000FFE7FEE7FFE7FEE780B58BB013468C46C8
:1037D00086460A90099108920A9800F0070007901F
:1037E0000798C0F1070005280493CDF80CC0CDF868
:1037F00008E003D3FFE70420019004E00798C0F13C
:1038000007000190FFE7019806900798043006280A
:1038100003D8FFE70020009003E0079803380090EA
:10382000FFE70098059009980699012202FA01F134
:103830000139084005998840089B02FA01F10139D5
:10384000194008430BB080BD0000000000000000DC
:10385000EFF30980BFF36F8F154B1A681EF0100F3E
:1038600008BF20ED108A20E9F04F10602DE9090013
:103870004FF0500080F31188BFF34F8FBFF36F8F6D
:1038800002F010FD4FF0000080F31188BDE8090040
:1038900019680868B0E8F04F1EF0100F08BFB0ECD0
:1038A000108A80F30988BFF36F8F704700BF00BF95
:1038B0008007002000000000000000000000000061
:1038C000074B19680868B0E8F04F80F30988BFF328
:1038D0006F8F4FF0000080F31188704700BF00BF6A
:1038E0008007002080B56FF00400002100F0E8FDA3
:1038F00080BD000080B584B001460390029100F0C5
:1039000041FEFFE700F006F84FF4FA7000F05AFEAF
:103910000190F7E780B596B040F26451C2F2000121
:1039200001A80122009000F027FC009800F0ECFBB9
:1039300016B080BD80B582B04EF21000CEF200000D
:103940000068019003F07CFB012803D0FFE702F040
:10395000D3FDFFE702B080BD80B596B00AA8302144
:10396000FCF74EFD00200990089007900690059006
:10397000FFE70020049043F64000C4F20200016813
:1039800041F080510160006800F08050049004987C
:103990000290FFE7FFE70020039047F20000C4F227
:1039A0000000016841F480410160006800F480403B
:1039B000039003980190FFE701200A904FF48030B4
:1039C0000B90022010904FF480011191042112916C
:1039D000A8221392149015910AA8FEF76FFC0028F4
:1039E00003D0FFE7FCF7D2FEFFE70F20059002208F
:1039F0000690002007904FF4A05008904FF480509C
:103A0000099005A80521FEF747FA002803D0FFE733
:103A1000FCF7BCFEFFE716B080BD00004EF68850F4
:103A2000CEF20000016841F47001016070470000AF
:103A300080B540F2B450C2F20000FFF7ABF880BD91
:103A400085B00A46034604900391049800680290EA
:103A500004980021C4F2010188420192009325D00C
:103A6000FFE70498B0F1804F20D0FFE7049840F2C0
:103A70000041C4F20001884218D0FFE7049840F6E4
:103A80000001C4F20001884210D0FFE7049840F61C
:103A90000041C4F20001884208D0FFE7049840F2D8
:103AA0000041C4F2010188420AD1FFE7029820F0E8
:103AB0007000029003984068029908430290FFE763
:103AC00004980021C4F20101884255D0FFE7049810
:103AD000B0F1804F50D0FFE7049840F20041C4F2AB
:103AE0000001884248D0FFE7049840F60001C4F284
:103AF0000001884240D0FFE7049840F60041C4F23C
:103B00000001884238D0FFE7049840F20041C4F237
:103B10000101884230D0FFE7049844F20001C4F26A
:103B20000101884228D0FFE7049844F20041C4F222
:103B30000101884220D0FFE7049844F60001C4F256
:103B40000101884218D0FFE7049841F60001C4F251
:103B50000001884210D0FFE7049841F60041C4F20A
:103B60000001884208D0FFE7049842F20001C4F245
:103B7000000188420AD1FFE7029820F440700290C9
:103B80000398C068029908430290FFE7029820F06A
:103B900080000399496908430290029804990860DB
:103BA000039880680499C862039800680499886241
:103BB00004980021C4F20101884208D0FFE704986C
:103BC00040F20041C4F20101884205D1FFE70398A9
:103BD000006904990863FFE7049801214161049892
:103BE000006910F0010F06D0FFE70498016921F089
:103BF00001010161FFE705B07047000080B584B0A6
:103C0000014603900398806B029002980022C285BF
:103C10000298C28402980191FFF7F0F804B080BDC9
:103C200085B0014604900091FFE7FFE70498006823
:103C300050E8030F20F490700390FFE70398049975
:103C4000096841E80302002AF0D1FFE7FFE7FFE738
:103C5000FFE70498006850E8050F20F0010002908B
:103C6000FFE702980499096841E80502002AF0D1AB
:103C7000FFE7FFE70498006B012814D1FFE7FFE797
:103C8000FFE70498006850E8030F20F0100001904F
:103C9000FFE701980499096841E80302002AF0D17E
:103CA000FFE7FFE7FFE70498202180F8421004981F
:103CB0000021016305B0704780B582B001460190D4
:103CC00001980068C26822F04002C2600198202278
:103CD00080F8412001980091FFF762FC002002B0BB
:103CE00080BD000080B588B001460690069890F827
:103CF00042002228019140F0A980FFE706988068E1
:103D0000B0F5805F16D1FFE706980069002811D151
:103D1000FFE7002005900698806A049006980068E6
:103D200040686FF35F20049908800698816A023129
:103D3000816227E00698806A05900020049006982A
:103D40008068B0F5805F0AD0FFE706988068002899
:103D50000BD1FFE706980069002806D1FFE7069817
:103D6000006840680599087007E006980068406898
:103D700000F07F0005990870FFE70698816A01311D
:103D80008162FFE70698C18D0139C1854FF6FF704A
:103D9000014257D1FFE706980068C16821F0200171
:103DA000C16006980068C16821F48071C1600698FE
:103DB0000068416921F0010141610698202180F8E5
:103DC00042100698002141630698006B012831D10A
:103DD000FFE7069800210163FFE7FFE70698006808
:103DE00050E8030F20F010000390FFE703980699B6
:103DF000096841E80302002AF0D1FFE7FFE70698CF
:103E00000068006810F0100F0FD0FFE7FFE70020F8
:103E10000290069800680068029006980068406862
:103E2000029002980090FFE7FFE70698818DFEF769
:103E3000DBFF03E00698FFF76DFBFFE700208DF83E
:103E40001F0007E000208DF81F0003E002208DF81E
:103E50001F00FFE79DF81F0008B080BD80B58CB043
:103E600001460B900B980068006920F440500B9AB3
:103E70001368D268104318610B9882680369D0F800
:103E800014C0C0691A4342EA0C0210430A900B980E
:103E90000068C06849F20C6290430A9A10430B9A7A
:103EA0001268D0600B980068406920F440700B9A4B
:103EB00013689269104358610B98006841F2000240
:103EC000C4F201029042089109D0FFE70B98006804
:103ED00041F20041C4F20101884204D1FFE7FEF73C
:103EE00065F9099003E0FEF74DF90990FFE70B989B
:103EF000C069B0F5004F31D1FFE709981921A0FB47
:103F000001010B9A136852684FEA420CD20F0792D4
:103F10006246DDF81CC006936346FCF7ADF948F233
:103F20001F51C5F2EB11A0FB01235B094FF0640C9C
:103F300003FB1C004FF0320C0CEBC000A0FB010196
:103F40004FF4F87C0CEA111C0CEB0313C1F3421183
:103F50001943069B99600590049230E00998192155
:103F6000A0FB01010B9A136852684FEA820C920F72
:103F700003926246DDF80CC002936346FCF77CF9BD
:103F800048F21F51C5F2EB11A0FB01235B094FF072
:103F9000640C03FB1C004FF0320C0CEB0010A0FB78
:103FA00001014FF0F00C0CEA511C0CEB0313C1F3B0
:103FB00043111943029B996001900092FFE70CB0F6
:103FC00080BD000080B586B013468C4686460590BD
:103FD0000491ADF80E20049805998862BDF80E0092
:103FE00005998885BDF80E000599C88505980021BA
:103FF00041640598222180F8421005980069002844
:104000000293CDF804C0CDF800E007D0FFE7059893
:104010000068C16841F48071C160FFE705980068DD
:10402000416941F00101416105980068C16841F0B2
:104030002001C160002006B080BD000084B00146B0
:104040000290029890F84100212800913DD1FFE7AD
:1040500002988068B0F5805F14D1FFE7029800698C
:1040600000280FD1FFE70298006A019001980088AC
:104070006FF35F200299096848600298016A023173
:10408000016208E00298016A4A1C026208780299FB
:1040900009684860FFE70298C18C0139C1844FF676
:1040A000FF7001420DD1FFE702980068C16821F05E
:1040B0008001C16002980068C16841F04001C160A0
:1040C000FFE700208DF80F0003E002208DF80F00BD
:1040D000FFE79DF80F0004B07047000080B540F284
:1040E000FC50C2F20000FEF78FFE80BD80B540F2AA
:1040F0004460C2F20000FEF787FE80BDFFE7FEE7E6
:1041000080B500F023FA80BD80B586B001460590E9
:1041100005984FF40072034643F8082F0022C2604E
:10412000426102614FF0080CC0F818C0027703909A
:104130000291019300F018F8ADF81200BDF81200DA
:10414000000A039901F1390281F839009DF8120043
:1041500081F83A00486801F14C030199FCF748FBEB
:10416000009006B080BD000082B0014601904FF47F
:10417000FA60009102B0704780B588B013468C4653
:104180008646079006918DF81720079806999DF8A6
:10419000172004900393CDF808C0CDF804E000F098
:1041A000B5F847F2A470C0F6000008300499086022
:1041B000084608B080BD000086B00146049004980F
:1041C0000590002202600274826100F11C0200F17D
:1041D00068030391029001930092FFE70098002189
:1041E00040F8041B0146019A90420091F6D1FFE786
:1041F0004FF400700299C866059806B07047000039
:1042000084B00A460346039002910192009304B0E1
:104210007047000082B001460190009102B07047E3
:1042200080B58CB001460B900120099000220792C6
:1042300008900592069201920292039204920E2037
:104240000A9040F26450C2F2000001AA00911146A7
:10425000FCF788FB002803D0FFE7FCF797FAFFE79D
:1042600040F26450C2F20000FDF7FEF9002803D0CE
:10427000FFE7FCF78BFAFFE740F26450C2F2000060
:104280000221FCF787FA002803D0FFE7FCF77EFA4B
:10429000FFE70CB080BD000080B58CB001460B90EC
:1042A0000120099000220792089005920E200690A6
:1042B000019202920392049240F28C50C2F20000EA
:1042C00001AA00911146FCF74DFB002803D0FFE73F
:1042D000FCF75CFAFFE740F28C50C2F20000FDF7F9
:1042E000C3F9002803D0FFE7FCF750FAFFE740F2DC
:1042F0008C50C2F200000221FCF74CFA002803D0D7
:10430000FFE7FCF743FAFFE70CB080BD80B58CB047
:1043100013468C4686460A9009918DF823200A9808
:104320000B9047F2BC71C0F6000108310160099999
:1043300041609DF8231080F83810002180F8391072
:1043400000F13A0100F141020793CDF818C0CDF811
:1043500014E0049003920291FFE70298002100F814
:10436000011B0146039A90420291F6D1FFE700201B
:10437000049981F8410001F1420001F149020192E2
:104380000090FFE70098002100F8011B0146019A08
:1043900090420091F6D1FFE700200499C8640865B7
:1043A000099840F26452C2F20002904219D1FFE72C
:1043B00040F24C50C2F200000078092810DCFFE700
:1043C00040F24C50C2F20000017840F2FC42C2F2CE
:1043D0000002049B42F82130017801310170FFE7AF
:1043E00021E0099840F28C51C2F20001884219D1B3
:1043F000FFE740F24D50C2F200000078092810DCBF
:10440000FFE740F24D50C2F20000017840F2245222
:10441000C2F20002049B42F82130017801310170A0
:10442000FFE7FFE7FFE70B980CB080BD82B00146C5
:104430008DF807009DF90700002800910FDBFFE7CA
:104440009DF9070000F01F01012202FA01F1400965
:104450004EF20012CEF2000242F82010FFE702B046
:10446000704700004EF60C50CEF200000068C0F31A
:104470000220704784B00A4603468DF80F0002916F
:104480009DF90F000028019200930ADBFFE70298D4
:1044900000019DF90F104EF20042CEF20002885446
:1044A0000BE0029800019DF80F1001F00F014EF68D
:1044B0001452CEF200028854FFE704B070470000A7
:1044C00084B00A4603468DF80F0002919DF90F0053
:1044D0000028019200930ADBFFE7029800019DF992
:1044E0000F104EF20042CEF2000288540BE0029808
:1044F00000019DF80F1001F00F014EF61452CEF29C
:1045000000028854FFE704B07047000084B0014601
:104510000390039800F0070001904EF60C50CEF285
:10452000000002680292029A4FF6FF031A400292BC
:10453000029A019B42EA03220023C0F2FA531A4373
:104540000292029A0260009104B0704780B582B076
:1045500040F27800C2F200000190FFE7019800905D
:10456000FFF72AFE009800F1700E714640F27802C3
:10457000C2F2000202F58C6296450191EED1FFE78E
:1045800002B080BD7047000080B584B00020039069
:10459000FDF77CFB0290FFF7DFF9FFF763F8FFF709
:1045A00007F8FFF729F8FFF7CDF8FFF7EBF800F071
:1045B00027F80190FFF744F800F048F80090FFE773
:1045C000FEE7000080B584B001460290EFF305805D
:1045D000039003980028009104D0FFE76FF00500D6
:1045E00001900AE0002001900298002804D0FFE723
:1045F000029801F021FDFFE7FFE7019804B080BDBC
:1046000082B0EFF3058001900198002804D0FFE705
:104610006FF00500009015E040F27400C2F2000057
:104620000068002809D1FFE740F27400C2F20000E0
:10463000012101600020009003E04FF0FF30009066
:10464000FFE7FFE7009802B07047000080B582B036
:10465000EFF3058001900198002804D0FFE76FF088
:10466000050000901AE040F27400C2F200000068F9
:1046700001280ED1FFE7FFF735F940F2740EC2F2C0
:10468000000E0220CEF8000001F08CFD002000900A
:1046900003E04FF0FF300090FFE7FFE7009802B023
:1046A00080BD0000B0B590B013468C4686460D9094
:1046B0000C910B9200200890EFF305800F900F985B
:1046C00000280593CDF810C0CDF80CE040F0A48090
:1046D000FFE70D98002800F09F80FFE780200990F9
:1046E0001820079000200A904FF0FF3006900B989A
:1046F000002858D0FFE70B980068002804D0FFE797
:104700000B9800680A90FFE70B988069002804D096
:10471000FFE70B9880690790FFE7079800280AD009
:10472000FFE70798382806D8FFE70B984068C007CE
:10473000002803D0FFE700200E9070E00B9840693E
:10474000002805D0FFE70B98406980080990FFE733
:104750000B988068002812D0FFE70B98C0685C288F
:104760000DD3FFE70B980069002808D0FFE70B98EE
:104770004069002803D0FFE70120069012E00B9863
:10478000806800280DD1FFE70B98C068002808D189
:10479000FFE70B980069002803D1FFE7002006908F
:1047A000FFE7FFE702E000200690FFE706980128F8
:1047B00016D1FFE70D980A99099A0C9BDDF81CC0E9
:1047C000DDF82CE0DEF80840DEF810E06D46AC6065
:1047D000C5F804E0C5F800C002F0ACFB08901AE090
:1047E0000698002816D1FFE70D980A990C9B079AA6
:1047F000BDF824C0EE4608ACCEF80440CEF8002048
:10480000624602F037FB012803D0FFE70020089042
:10481000FFE7FFE7FFE7FFE708980E90FFE70E9836
:1048200010B0B0BD80B586B00A460346059004912D
:1048300044F6CC70C2F200000068029040F2807032
:10484000C2F20000006804300192009301F064F9A4
:10485000002801D1FFE700E0FFE7059801300028BC
:1048600011D1FFE7049800280DD0FFE740F28070D7
:10487000C2F200000068011D44F6A470C2F20000FC
:1048800001F00CFA3DE00298059908440390039862
:1048900040F28071C2F200010968486003980299F1
:1048A00088420ED2FFE740F29070C2F2000000682A
:1048B00040F28071C2F200010968043101F0B4F9DC
:1048C0001EE040F28870C2F20000006840F2807181
:1048D000C2F200010968043101F0A6F9039844F618
:1048E0003071C2F200010968884207D2FFE70398DD
:1048F00044F63071C2F20001086000E0FFE7FFE714
:10490000FFE706B080BD000080B584B0014603908B
:10491000029101F0EFF944F60400C2F200000168D0
:104920000131016040F28070C2F20000006800288E
:1049300013D1FFE7039840F28071C2F200010860D2
:1049400044F60400C2F200000068012803D1FFE72A
:1049500000F064FB00E0FFE71DE044F69870C2F24F
:1049600000000068002814D1FFE740F28070C2F216
:1049700000000068C06A0399C96A884207D8FFE747
:10498000039840F28071C2F20001086000E0FFE786
:1049900000E0FFE7FFE744F61000C2F20000016804
:1049A000013101600068039948640398C06A44F6C5
:1049B0001401C2F200010968884208D9FFE7039890
:1049C000C06A44F61401C2F200010860FFE70398D0
:1049D000C16A01EB810140F29872C2F2000202EB5F
:1049E0008101043001900846019901F057F901F066
:1049F000B1F944F69870C2F200000068002819D09E
:104A0000FFE740F28070C2F200000068C06A0399BC
:104A1000C96A88420CD2FFE74EF60450CEF200007D
:104A20004FF080510160BFF34F8FBFF36F8F00E0F5
:104A3000FFE700E0FFE704B080BD000080B584B070
:104A400001F058F944F6D07EC2F2000EDEF800E024
:104A5000BEF1000F42D1FFE744F6D060C2F2000081
:104A6000039001F0BDF844F6E460C2F20000029049
:104A700001F0B6F840F28470C2F20000DDF80CE0FC
:104A8000C0F800E040F29470C2F2000002990160A8
:104A900068460022026040F28C62C2F2000240F2DC
:104AA0002C73C2F200030A20102101F045FD44F6E8
:104AB000D071C2F200010860086800280CD0FFE73E
:104AC00044F6D070C2F20000006847F60901C0F653
:104AD000000101F043FA00E0FFE700E0FFE701F02A
:104AE00039F904B080BD000080B582B0FFE744F61C
:104AF0000800C2F20000006800282CD0FFE701F097
:104B0000F9F844F6B87EC2F2000EDEF80CE0DEF8EA
:104B10000CE0CDF804E0DDF804E00EF1040000F054
:104B2000FBFF44F6040EC2F2000EDEF8001001395D
:104B3000CEF8001044F60801C2F20001D1F800E0FE
:104B4000AEF1010EC1F800E0009001F003F9019808
:104B500000F0AEF8CBE702B080BD000080B586B0B3
:104B60000A460346059004910598006C00280392BC
:104B700002931BD0FFE70598C168026C1144C16025
:104B800005988168C068884204D3FFE705980168EA
:104B9000C16000E0FFE704980599CA68096C0191BB
:104BA0001146019AFBF7DFFB0090FFE706B080BDDE
:104BB00080B58CB013468C4686460B900A910992BC
:104BC000002008900B98806B07900B98006C0028D1
:104BD0000693CDF814C0CDF810E012D1FFE70B9882
:104BE000006800280BD1FFE70B98806802F046FBB5
:104BF00008900B984FF0000EC0F808E000E0FFE7C7
:104C00004EE0099800281CD1FFE70B980A994268EA
:104C1000006C03901046039AFBF7A5FB0B994A68BA
:104C2000D1F840E072444A600B994A6889688A4228
:104C3000029004D3FFE70B980168416000E0FFE7B2
:104C40002DE00B980A99C268006C01901046019AF9
:104C5000FBF789FB0B99CA68D1F840E0A2EB0E0282
:104C6000CA600B990A68C9689142009006D2FFE7B2
:104C70000B988168026C891AC16000E0FFE709980F
:104C800002280AD1FFE70798002804D0FFE7079819
:104C90000138079000E0FFE700E0FFE7FFE7FFE7EC
:104CA000079801300B99886308980CB080BD00000C
:104CB00080B584B001460290029890F8590000280F
:104CC000019108D1FFE70298006B01F06BF80298A0
:104CD00001F068F820E0029890F85900012804D10A
:104CE000FFE7029801F05EF815E0029890F859008D
:104CF0000238B0FA80F0400900280BD1FFE74FF0EE
:104D0000500080F31188BFF36F8FBFF34F8F039074
:104D1000FFE7FEE7FFE7FFE704B080BD83B0014691
:104D2000029040F28470C2F2000000680068B0FA9D
:104D300080F04009029A10600298006800280091F3
:104D400009D1FFE740F28470C2F200000068C06839
:104D50000068019002E000200190FFE7019803B095
:104D60007047000084B04FF47050009040F6F83067
:104D7000C2F2000001909DF804004007002811D005
:104D8000FFE7019807300190019820F0070001909B
:104D9000019840F6F831C2F20001401A0099081A51
:104DA0000090FFE701980290029844F69C71C2F2CD
:104DB00000010860002048600299009A11440191A6
:104DC000019908390191019921F007010191019997
:104DD00040F28C72C2F200021160116848601168E2
:104DE00008600298039001980399401A486010687F
:104DF000039908600398406844F62C71C2F20001E0
:104E000008600398406844F62471C2F2000108600B
:104E100044F6F860C2F200004FF00041016004B0B7
:104E20007047000080B582B0014601900091FFE715
:104E3000FFF75AFE40F2987EC2F2000EDEF800E064
:104E4000BEF1020F0CD3FFE74EF60450CEF2000085
:104E50004FF080510160BFF34F8FBFF36F8F00E0C1
:104E6000FFE7E5E770B58AB0DDF838C09E46144626
:104E70000D4606460990089107928DF81B30089858
:104E80000028CDF814E0049403950296CDF804C0F0
:104E900003D1FFE70E98006003E007980E990860C1
:104EA000FFE709980E99C86308980E9908640E9850
:104EB000012101F0E3FB9DF81B10DDF838E08EF8CE
:104EC0004C1000900AB070BD2DE9F04391B0DDF8B0
:104ED0006CC0DDF868E0199C189D1E461746884690
:104EE00081460F900E910D920C931A98006B0D99BC
:104EF0008900A52209960897CDF81C80CDF8189056
:104F0000CDF814C0CDF810E003940295FBF770FAC9
:104F10001A98006B0D9900EB810004380B900B98E8
:104F200020F007000B909DF82C0000F00700B0FA6D
:104F300080F0400900280BD1FFE74FF0500080F3CC
:104F40001188BFF36F8FBFF34F8F1090FFE7FEE71D
:104F50000E98002820D0FFE700200A90FFE70A986B
:104F60000F2814D8FFE70E980A99405C1A9A11444A
:104F700081F834000E980A99405C002801D1FFE7BF
:104F800005E0FFE7FFE70A9801300A90E7E71A9883
:104F9000002180F8431004E01A98002180F83410B2
:104FA000FFE71898382803D3FFE73720189000E070
:104FB000FFE718981A99C86218981A99C8641A983D
:104FC000002101651A980430019100F023FE1A981F
:104FD000183000F01FFE1A9800611898C0F13800D0
:104FE0001A9988611A9840621A98019941651A982D
:104FF00080F858100B980F990C9A00F055FD1A99EB
:1050000008601998002804D0FFE71A9819990860D9
:1050100000E0FFE711B0BDE8F083000080B584B088
:1050200000200390FFE70398372810D8FFE7039884
:1050300000EB800040F29871C2F2000101EB8000A9
:1050400000F0CEFDFFE7039801300390EBE744F654
:10505000FC60C2F20000029000F0C2FD44F6107045
:10506000C2F20000019000F0BBFD44F64470C2F2B1
:10507000000000F0B5FD44F6B870C2F2000000F088
:10508000AFFD44F6A470C2F2000000F0A9FD40F2AA
:105090008870C2F20000DDF808E0C0F800E040F2DD
:1050A0009070C2F200000199016004B080BD000060
:1050B00084B00146039044F69C70C2F20000029056
:1050C0000091FFE7029800680399884205D2FFE744
:1050D000FFE7029800680290F4E7029801900198B7
:1050E0000299496808440399884209D1FFE7039867
:1050F000406802994A68104448600298039000E0B2
:10510000FFE70398019001980399496808440299C0
:105110000968884220D1FFE70298006840F28C714C
:10512000C2F20001096888420DD0FFE702980068CA
:10513000406803994A681044486002980068006813
:105140000399086007E040F28C70C2F2000000682A
:1051500003990860FFE704E002980068039908607B
:10516000FFE702980399884204D0FFE70398029969
:10517000086000E0FFE704B070470000B0B58AB0F7
:105180009C4696460C460546099008910792069360
:1051900000200590089809994860099800610898CE
:1051A00007998842CDF810C0CDF80CE00294019523
:1051B00016D8FFE707980699401A09998969884225
:1051C00003D3FFE70120059009E040F29470C2F29A
:1051D000000000680999043100F026FDFFE717E0A0
:1051E00007980699884208D2FFE7089806998842EE
:1051F00003D3FFE70120059009E040F28470C2F27A
:10520000000000680999043100F00EFDFFE7FFE798
:1052100005980AB0B0BD000080B584B00146039087
:10522000019100F067FD0398806B002803D1FFE730
:105230000120029002E000200290FFE700F08AFDCA
:10524000029804B080BD000080B584B00146039090
:10525000019100F04FFD0398806B0399C96B884260
:1052600003D1FFE70120029002E000200290FFE757
:1052700000F070FD029804B080BD0000084800688E
:10528000006880F308884FF0000080F3148862B64D
:1052900061B6BFF34F8FBFF36F8F00DF00BF00BF5A
:1052A00008ED00E080B58AB00A46034608900791F1
:1052B00040F28470C2F200000068C068C0680590C7
:1052C000059804300492039300F026FC059991F8A8
:1052D000281049070029029029D5FFE70598089969
:1052E00082690A44079B019111461A46019BFFF708
:1052F00045FF002819D0FFE70598089A6946002362
:105300000B60194602F0D6F90690069800280BD1DA
:10531000FFE74FF0500080F31188BFF36F8FBFF3AA
:105320004F8F0990FFE7FEE700E0FFE707E00598F1
:1053300090F8281001F0FE0180F82810FFE705988A
:10534000016A88470AB080BD80B594B0FFE744F693
:10535000D070C2F2000000680DA9002201F0FEFB2F
:10536000002800F0D280FFE70D98B0F1FF3F1EDC6F
:10537000FFE70DA804300890089800280BD1FFE73C
:105380004FF0500080F31188BFF36F8FBFF34F8F42
:105390001190FFE7FEE7089801684268806807906F
:1053A0001046079A06911146069B984700E0FFE7D2
:1053B0000D980028C0F2A880FFE70F980C900C9879
:1053C0004069B0FA80F04009002806D1FFE70C9848
:1053D000043000F0A1FB059000E0FFE70BA800F00F
:1053E00019F909900D980928049000F28B8004990E
:1053F000DFE801F0050505434B740505434B0C98A8
:1054000090F8281041F0010180F828100C980E99AE
:1054100082690A44099B039111461A46039BFFF7D0
:10542000ADFE002827D0FFE70C98016A88470C984A
:1054300090F82800400700281BD5FFE70C980E992C
:1054400082690A44694600230B60194602F032F96A
:105450000A900A9800280BD1FFE74FF0500080F324
:105460001188BFF36F8FBFF34F8F1290FFE7FEE7F6
:1054700000E0FFE700E0FFE745E00C9890F8281017
:1054800001F0FE0180F828103DE00C9890F82810FB
:1054900041F0010180F828100E980C9988610C9851
:1054A0008069002818BF012000280BD1FFE74FF0CA
:1054B000500080F31188BFF36F8FBFF34F8F1390AD
:1054C000FFE7FEE70C98099982690A4402911146A8
:1054D000029A029BFFF752FE019014E00C9890F89C
:1054E00028008007002804D4FFE70C9800F05AFC3D
:1054F00007E00C9890F8281001F0FE0180F82810C1
:10550000FFE700E0FFE7FFE721E714B080BD000000
:1055100080B588B00A46034607900691039202932D
:1055200000F0B8FE04A800F075F805900498002873
:1055300041D1FFE7069800280FD1FFE707980599AA
:1055400088420AD8FFE701F08FFFDDF81CE00599DB
:1055500001907046FFF7A6FE2CE0069800280BD0BD
:10556000FFE740F29470C2F2000000680068B0FAF1
:1055700080F040090690FFE744F6D070C2F20000C8
:1055800000680799059A891A069A00F015FD01F03E
:105590006BFF00280CD1FFE74EF60450CEF200005E
:1055A0004FF080510160BFF34F8FBFF36F8F00E06A
:1055B000FFE7FFE703E001F057FF0090FFE708B0C7
:1055C00080BD000081B040F28870C2F20000006827
:1055D0000068B0FA80F04009002808D0FFE744F6E0
:1055E0003070C2F200004FF0FF3101600FE040F276
:1055F0008870C2F200000068C068C068009000981F
:10560000406844F63071C2F200010860FFE701B063
:105610007047000080B584B001460390019101F00D
:105620002DFD0290029840F27C71C2F200010968DF
:10563000884208D2FFE700F013F8DDF80CE0012003
:10564000CEF8000003E0039800210160FFE7029814
:1056500040F27C71C2F200010860029804B080BD83
:1056600080B588B0FFE740F28470C2F200000068A5
:105670000068B0FA80F04009002852D1FFE740F2FC
:105680008470C2F200000168C96809680691006868
:10569000C068C06803900398043000F03DFA039995
:1056A000D1F820E001900846F047039890F82800D0
:1056B0004007002833D5FFE7069803998969084415
:1056C00005900598069988420FD9FFE70598039938
:1056D00048600398006140F28470C2F200000068E4
:1056E0000399043100F0A0FA18E00398069A69467D
:1056F00000230B60194601F0DDFF0290029800289C
:105700000BD1FFE74FF0500080F31188BFF36F8F8C
:10571000BFF34F8F0790FFE7FEE7FFE700E0FFE7EB
:10572000A1E740F28470C2F200000168049140F2E7
:105730009471C2F200010A6802600498086008B01F
:1057400080BD000083B00020009040F20C00C2F247
:10575000000000680130B0FA80F0400900280BD149
:10576000FFE74FF0500080F31188BFF36F8FBFF356
:105770004F8F0190FFE7FEE74FF0500080F3118854
:10578000BFF36F8FBFF34F8F0290FFE700980028A1
:1057900001D1FFE7FAE703B07047000080B584B09D
:1057A000014603900091FFE701A8FFF7B7FA0290C6
:1057B00002980199FFF7ACFEFFF7C6FDF4E7000081
:1057C00080B584B001460390019100F093FA0398EC
:1057D00090F845008DF80B00FFE79DF90B000128BC
:1057E0001BDBFFE70398406AB0FA80F0400900280D
:1057F0000CD1FFE70398243001F0C2FD002803D04C
:10580000FFE700F06DFC00E0FFE700E005E09DF839
:105810000B0001388DF80B00DFE70398FF2180F8BB
:10582000451000F097FA00F065FA039890F84400EC
:105830008DF80A00FFE79DF90A0001281BDBFFE74E
:1058400003980069B0FA80F04009002811D1FFE701
:105850000398103001F094FD002803D0FFE700F01A
:105860003FFC00E0FFE79DF80A0001388DF80A00D0
:1058700000E000E0DFE70398FF2180F8441000F02B
:1058800069FA04B080BD000080B58CB00146089074
:1058900000200490039100F0FDFC40F28C70C2F2F5
:1058A00000000068002803D1FFE7FFF75BFA00E083
:1058B000FFE7089844F6F861C2F20001096808425F
:1058C00040F0D480FFE70898002828D0FFE7089828
:1058D000083008909DF82000400700281DD0FFE701
:1058E000089800F00701C1F10801084408909DF8EC
:1058F000200000F00700B0FA80F0400900280BD12A
:10590000FFE74FF0500080F31188BFF36F8FBFF3B4
:105910004F8F0990FFE7FEE700E0FFE700E0FFE7B9
:105920000898002800F0A080FFE7089844F624714A
:10593000C2F200010968884200F29680FFE744F64F
:105940009C70C2F20000069000680790FFE707987D
:105950004068089900228842029207D2FFE7079820
:105960000068002818BF01200290FFE70298C007D6
:10597000002806D0FFE70798069007980068079070
:10598000E5E7079840F28C71C2F20001096888428D
:1059900068D0FFE706980068083004900798006810
:1059A00006990860079840680899401A112826D37C
:1059B000FFE707980899084405909DF8140000F047
:1059C0000700B0FA80F0400900280BD1FFE74FF044
:1059D000500080F31188BFF36F8FBFF34F8F0A9091
:1059E000FFE7FEE7079840680899401A0599486064
:1059F0000898079948600598FFF75AFB00E0FFE711
:105A00000798406844F62471C2F200010A68101A2F
:105A10000860086844F62C71C2F2000109688842E7
:105A20000BD2FFE744F62470C2F20000006844F68F
:105A30002C71C2F20001086000E0FFE744F6F86054
:105A4000C2F20000006807994A681043486007984E
:105A50000021016044F63870C2F200000168013193
:105A6000016000E0FFE700E0FFE700E0FFE701F092
:105A7000FBFC9DF810E00EF0070EBEFA8EFE4FEA1A
:105A80005E1EBEF1000F01900BD1FFE74FF05000FA
:105A900080F31188BFF36F8FBFF34F8F0B90FFE739
:105AA000FEE704980CB080BD80B586B013468C46E6
:105AB0008646059004910392059804380590059850
:105AC0004FF080710160059804380590049820F02B
:105AD000010005990860059804380590059845F27D
