:020000040800F2
:10000000E857002041020008F58D0008DD8B00084C
:10001000F18D0008F90A0008C9A1000800000000DD
:10002000000000000000000000000000F18E000849
:10003000A50B000800000000818E0008A58F0008B5
:100040005B0200085B0200085B0200085B0200081C
:100050005B0200085B0200085B0200085B0200080C
:100060005B0200085B0200085B0200085B020008FC
:100070005B0200085B0200085B0200085B020008EC
:100080005B0200085B0200085B0200085B020008DC
:10009000FD0A00080D0B00085B0200085B02000867
:1000A0005B0200085B0200085B0200085B020008BC
:1000B0005B0200085B0200085B0200085B020008AC
:1000C0005B0200085B0200085B0200085B0200089C
:1000D0005B0200085B0200085B020008A9A100089F
:1000E0005B0200085B0200085B0200085B0200087C
:1000F0005B0200085B0200085B0200085B0200086C
:100100005B0200085B0200085B0200085B0200085B
:100110005B0200085B020008D59100085B02000842
:100120005B0200085B0200085B0200085B0200083B
:100130005B0200085B0200085B0200085B0200082B
:100140001D0B00082D0B00085B0200085B02000875
:100150005B0200085B0200085B020008B9A100080E
:100160005B0200085B0200085B0200085B020008FB
:100170005B0200085B0200085B0200080000000050
:100180005B0200085B02000800F002F800F046F88D
:100190000AA090E8000C82448344AAF10107DA45E2
:1001A00001D100F03BF8AFF2090EBAE80F0013F0EE
:1001B000010F18BFFB1A43F00103184790380100E4
:1001C000B0380100103A24BF78C878C1FAD8520775
:1001D00024BF30C830C144BF04680C6070470000C1
:1001E0000023002400250026103A28BF78C1FBD840
:1001F000520728BF30C148BF0B6070471FB513F0CE
:1002000060F89DE8030000F085FA00F017F88DE82B
:100210000F0000F045F91FBD10B510BD00F061FBE7
:100220001146FFF7EBFF0DF03DFA00F0AFFB03B412
:10023000FFF7F2FF03BC00F04BFA000000F0A7BA92
:100240000948804709480047FEE7FEE7FEE7FEE76A
:10025000FEE7FEE7FEE7FEE7FEE7FEE704480549A6
:10026000054A064B70470000C1910008890100084B
:10027000E8510020E8570020E8530020E853002010
:1002800053EA020C00F069802DE9F04B4FF00006B4
:10029000002B1FBFB3FA83F503FA05F424FA05F621
:1002A0005E4012BF1643B2FA82F502FA05F4C5F1B8
:1002B00020051EBF22FA05FC44EA0C04203556EA4C
:1002C000044C4FEA144418BF641C4FF000084FF070
:1002D0000009904271EB030C39D3002919BFB1FA20
:1002E00081F701FA07F6B0FA80F700FA07F6C7F1CE
:1002F00020071EBF20FA07FC46EA0C062037B6FB93
:10030000F4FCA7EB0507103F07F01F0BCBF120060D
:100310002CFA06F60CFA0BFB44BFB3460026202F3E
:10032000A4BF5E464FF0000B5BEA060C08BF4FF01F
:10033000010B19EB0B0948EB0608ABFB027C06FB33
:1003400002CC0BFB03CCC01B71EB0C01C1E70B46CD
:10035000024641464846BDE8F08B13B54FF0000019
:100360004FF00001AFF30080BDE81C407047032A46
:1003700040F2308010F0030C00F0158011F8013BC2
:10038000BCF1020F624498BF11F801CB00F8013BA9
:1003900038BF11F8013BA2F1040298BF00F801CB6D
:1003A00038BF00F8013B11F0030300F04681083A22
:1003B000C0F0088051F8043B083A51F804CBA0E89B
:1003C0000810F5E7121D5CBF51F8043B40F8043BF0
:1003D000AFF30080D20724BF11F8013B11F801CB25
:1003E00048BF11F8012B24BF00F8013B00F801CBF6
:1003F00048BF00F8012B704702F0FF0343EA0322D5
:1004000042EA024200F024B84FF000020429C0F092
:10041000128010F0030C00F01B80CCF1040CBCF136
:10042000020F18BF00F8012BA8BF20F8022BA1EB88
:100430000C0100F00DB85FEAC17C24BF00F8012B6D
:1004400000F8012B48BF00F8012B70474FF0000265
:1004500000B5134694469646203922BFA0E80C50BA
:10046000A0E80C50B1F12001BFF4F7AF090728BF95
:10047000A0E80C5048BF0CC05DF804EB890028BF11
:1004800040F8042B08BF704748BF20F8022B11F03A
:10049000804F18BF00F8012B7047704770477047B6
:1004A00070B5064C7C44064D7D4403E02068204432
:1004B0008047241DAC42F9D170BD0000C435010055
:1004C000C435010070B5064600F008F9056806F16C
:1004D0000B0020F00704B4429CBF002070BD2B46E7
:1004E0006A68BAB11068A04210D304F108018842CA
:1004F0003CBF5068586007D35168101941601168BB
:10050000091B016058601460101D70BD13465268CD
:10051000002AE7D12146284600F0E8F80028DED17D
:1005200070BD70B50446051F00F0D8F80068002CB7
:1005300014BF446870BD002C18BFAC423CBF2046BD
:100540006468F8D301680A18AA4218BF456003D14D
:100550002A6805461144016028684119A1421CBF60
:100560006C6070BD6168696021680844286070BD76
:100570002DE9F04791460C46804600F0AFF8076839
:10058000604234EA000001D1042C02D20520BDE80B
:10059000F087601E40F0070609F10B0020F0070508
:1005A0004D459CBF0020BDE8F0873B467A6882B38A
:1005B0001468101D404206EA000C644525D9A4EBDE
:1005C0000C00854221D8BCF1000F0BD01046016809
:1005D0006244A1EB0C01116041685160C0F800C099
:1005E00058600346116805F10800814205D350198F
:1005F000491B016015605860034652F8040F5860AB
:100600000020C8F80020BDE8F08713465268002A91
:10061000CED12946384600F069F80028C5D1062019
:10062000BDE8F08710B5002000F0AAF8FFF7F4FD50
:10063000BDE81040012000F04BB810B5203AC0F0E2
:100640000B80B1E81850A0E81850B1E81850A0E8A5
:100650001850203ABFF4F5AF5FEA027C24BFB1E83E
:100660001850A0E8185044BF18C918C0BDE8104081
:100670005FEA827C24BF51F8043B40F8043B08BF8A
:100680007047D20728BF31F8023B48BF11F8012B51
:1006900028BF20F8023B48BF00F8012B704700003C
:1006A00080E8FF1FC0F834D0C0F838E0C0F83CE064
:1006B0004FF00000704700BF80EC200B704700BF78
:1006C00080EC200B704700BFC0EC200B704700008F
:1006D00001491820ABBEFEE7260002000048704723
:1006E00020000020704770477047704738B50446B7
:1006F0000A4600206946AFF30080002808BF38BDD5
:1007000002460099204600F027F9012038BD01205B
:1007100000F062B9F8B5AFF30080054600200C4642
:10072000102000BF0646A819A0420DD932466946DE
:100730000020AFF30080070008BF00F04DF90098DB
:10074000A04218BF0546C419FFF7C8FF0560074659
:10075000F01D20F007004619284600F00AF8B442C0
:1007600008BFF8BDA21B31463868BDE8F84000F06C
:10077000F3B800210160C0E90110704710207047F4
:1007800010B500F011F9BDE8104000F008B92DE9EE
:10079000FE4F00274FF48074BA4620468DF8007053
:1007A000FFF790FE5FEA000801D100F015F921463D
:1007B000404600F084F8060009D04FF0010B454692
:1007C000C14616F8014B8FB15C2C16D01CE008F125
:1007D00008004146C8F800000020C8F80400D8F816
:1007E00000402070012003B0BDE8F08F222C01D022
:1007F000272C0FD12746BA462CE03078222807D084
:100800005C2805D0272803D0BC4203D1002721E073
:10081000761C04464CB12FB9202C06D0A4F1090057
:10082000042802D905F8014BCBE74D4502D1BAF1B6
:10083000000F0FD052464946002005F8010B6846CC
:10084000AFF300809DF8000068B14D464FF0000AFC
:100850000BF1010B002CB4D14FEA8B00FFF732FEF5
:10086000040002D004E0A946F0E7002000F0B4F84C
:1008700000264046C4F8008005E010F8011B11B9BD
:10088000761C44F82600A842F7D32146002044F8FD
:1008900026003046A7E7000086469EE8FF1FDEF8E8
:1008A00034D0DEF83CE0704790EC200B704700BF7E
:1008B00090EC200B704700BFD0EC200B70471CB5AC
:1008C0000446CDE9000169461520ABBE08B1002001
:1008D0001CBD20461CBD00000048704718000020C9
:1008E00070477546FFF7F8FFAE4605006946534668
:1008F00020F00700854618B020B5FFF7AFFCBDE833
:1009000020404FF000064FF000074FF000084FF076
:10091000000BAC46ACE8C009ACE8C009ACE8C009C3
:10092000ACE8C00921F007018D4670477047704759
:1009300070B5A0FB0140B4F1805170F1000024BFFC
:10094000002070BD2046FFF7BDFD05001CBF2146FD
:10095000FFF75AFD284670BD034640688C460028C4
:1009600018BF88423CBF03464068F8D31868184453
:10097000884207D00CF1030020F00700001D411A47
:10098000521A0146081D0A60FFF7CBBD10B5044698
:10099000AFF300802046BDE81040FFF748BC0028B8
:1009A00001D0FFF795BE704710B5002102A000F0FE
:1009B00059F8012010BD0000534947414252543AB2
:1009C0002041626E6F726D616C207465726D696E2C
:1009D0006174696F6E00000010B500F05DF8BDE84D
:1009E0001040FFF7DCBF000030B44FF0013C50F87E
:1009F000042B51F8043BCCFA52F4D51A20D1FCB99F
:100A000050F8042B51F8043BCCFA52F4D51A17D104
:100A1000B4B950F8042B51F8043BCCFA52F4D51A6F
:100A20000ED16CB950F8042B51F8043BCCFA52F4B7
:100A3000D51A05D1002CDAD030BC4FF00000704739
:100A400029BAB1FA81F111F01801D1F120008440E6
:100A5000F2D1CA40CB4012F0FF0213F0FF0330BCCA
:100A6000D01A704770B505460C460A2000E06D1C90
:100A700000F03AF835B128780028F8D102E0641C7B
:100A800000F032F814B120780028F8D1BDE87040A9
:100A90000A2000F029B8000010B5012805D0002177
:100AA00003A0FFF7DFFF012010BD09A1F8E7000058
:100AB00053494752544D454D3A204F7574206F6647
:100AC0002068656170206D656D6F727900000000AF
:100AD0003A2048656170206D656D6F727920636F93
:100AE000727275707465640008B569468DF800000F
:100AF0000320ABBE08BD0000FFE7FEE780B540F273
:100B00007070C2F2000000F01FFA80BD80B540F2A4
:100B10007070C2F2000000F017FA80BD80B540F29C
:100B20009870C2F2000000F00FFA80BD80B540F26C
:100B30009870C2F2000000F007FA80BDB0B588B02E
:100B40009C4696460C4605460790069105920493EE
:100B500007980068016821F48021016004980799D2
:100B600009684860079880684028CDF80CC0CDF827
:100B700008E00194009509D1FFE7059807990968F5
:100B80008860069807990968C86008E00698079980
:100B900009688860059807990968C860FFE708B088
:100BA000B0BD00007047000072B6FFE7FEE700002E
:100BB00086B00A46034604900391049890F82000FA
:100BC0008DF80B009DF80B0001280192009305D0D1
:100BD000FFE79DF80B0002280AD1FFE7039804996C
:100BE00009684A691043486100208DF8170008E041
:100BF0000498416A41F48021416201208DF8170078
:100C0000FFE79DF8170006B070470000B0B58CB044
:100C10009C4696460C4605460A9009910892079311
:100C20000A9890F820008DF817000A9800688068EC
:100C30000490099880680028CDF80CC0CDF808E031
:100C40000194009501D1FFE700E0FFE79DF8170050
:100C5000012806D0FFE79DF81700022840F08280A7
:100C6000FFE79DF81300400700280CD4FFE79DF82C
:100C700013000007002806D4FFE79DF81300C00604
:100C8000002866D5FFE70498C0F301600690069837
:100C9000012101FA00F0079908600998806800288E
:100CA0000DD1FFE709980168C06840EA41500A99F0
:100CB0000968069A01EB0211C1F880010EE009985B
:100CC00041688268C06842EAC10108430A9909681C
:100CD000069A01EB0211C1F88001FFE7099800694B
:100CE0000A990968069A01EB0211C1F88401099872
:100CF000007D01280CD1FFE70A980068069900EBF7
:100D00000110D0F8841141F48071C0F88411FFE71C
:100D1000089840680A990968069A01EB0211C1F81F
:100D20008C01089800680A990968069A01EB02117B
:100D3000C1F888010A980068069900EB0110D0F804
:100D4000801141F00101C0F8801100208DF82F00C2
:100D500011E00A98416A41F40011416201208DF8C6
:100D60002F0008E00A98416A41F480214162012085
:100D70008DF82F00FFE79DF82F000CB0B0BD0000EC
:100D800088B00A46034606900591069800680390CD
:100D9000069890F820008DF80B009DF80B000128B4
:100DA0000192009306D0FFE79DF80B00022840F067
:100DB000B880FFE746F20040C4F2000003900398B9
:100DC000D0F8001241F00101C0F800120398D0F8E9
:100DD000001221F47C51C0F800120598406A039972
:100DE000D1F8002242EA0020C1F8000205984069CB
:100DF00000F01F00012101FA00F00490049803990B
:100E0000D1F81C2222EA0000C1F81C020598C06932
:100E100000281FD1FFE704980399D1F80C2222EA99
:100E20000000C1F80C0205988188C268406941EA57
:100E30000241039A02EBC000C0F8401205980188F5
:100E40008268406941EA0241039A02EBC000C0F89F
:100E50004412FFE70598C06901281ED1FFE70498F6
:100E60000399D1F80C221043C1F80C02059881882F
:100E70000268406941EA0241039A02EBC000C0F8EF
:100E80004012059881898268406941EA0241039ACB
:100E900002EBC000C0F84412FFE705988069002803
:100EA00009D1FFE704980399D1F8042222EA00004F
:100EB000C1F8040207E004980399D1F80422104312
:100EC000C1F80402FFE705980069002809D1FFE78F
:100ED00004980399D1F8142222EA0000C1F8140200
:100EE00007E004980399D1F814221043C1F81402C2
:100EF000FFE70598006A012808D1FFE704980399E5
:100F0000D1F81C221043C1F81C02FFE70398D0F867
:100F1000001221F00101C0F8001200208DF81F001E
:100F200008E00698416A41F48021416201208DF871
:100F30001F00FFE79DF81F0008B0704782B0014610
:100F40000190009102B0704780B58AB001460990C7
:100F50000020089009980068406907900998006887
:100F600040680690099800688068059009980068B4
:100F7000C0680490099800680069039009980068A7
:100F8000806902909DF81C00C0070028019100F0C4
:100F90009780FFE79DF81400C00700282BD0FFE7DB
:100FA00009980068012181609DF8140080070028DD
:100FB00004D5FFE7099800F07DFC1BE09DF81400C4
:100FC0004007002805D5FFE7089840F40060089026
:100FD0000FE09DF814000007002805D5FFE70898EA
:100FE00040F48050089003E0099800F05DFCFFE7B2
:100FF000FFE7FFE7FFE79DF81500C00700282CD0AA
:10100000FFE7099800684FF4807181609DF8150032
:101010008007002804D5FFE7099800F057FC1BE083
:101020009DF815004007002805D5FFE7089840F413
:10103000005008900FE09DF815000007002805D526
:10104000FFE7089840F48040089003E0099800F01A
:1010500037FCFFE7FFE7FFE7FFE79DF81600C00753
:1010600000282CD0FFE7099800684FF48031816098
:101070009DF816008007002804D5FFE7099800F0C6
:1010800031FC1BE09DF816004007002805D5FFE75E
:10109000089840F4004008900FE09DF81600000703
:1010A000002805D5FFE7089840F48030089003E059
:1010B000099800F011FCFFE7FFE7FFE7FFE7FFE714
:1010C0009DF81C000007002810D5FFE79DF81000D0
:1010D000C006002809D5FFE7089840F40070089082
:1010E000099800681021C160FFE7FFE79DF81C0028
:1010F000400700280FD5FFE79DF8100000070028E3
:1011000008D5FFE7099800680821C160099800F038
:1011100063FBFFE7FFE79DF81C00800700280CD564
:10112000FFE709980068C06810F0030F04D0FFE7DC
:10113000099800F057FBFFE7FFE79DF81C00400609
:10114000002810D5FFE79DF80C00C006002809D53F
:10115000FFE7089840F48060089009980068102123
:101160000161FFE7FFE79DF81C00800600280FD50E
:10117000FFE79DF80C000007002808D5FFE7099855
:10118000006808210161099800F032FBFFE7FFE7E2
:101190009DF81C00C00600280CD5FFE709980068E0
:1011A000006910F0030F04D0FFE7099800F026FB58
:1011B000FFE7FFE79DF81E00800700280FD5FFE737
:1011C0009DF81800C006002808D5FFE709980068B8
:1011D00010214160099800F017FBFFE7FFE79DF839
:1011E0001E00C00700280FD0FFE79DF81800000779
:1011F000002808D5FFE70998006808214160099890
:1012000000F076FBFFE7FFE79DF81D0000060028D1
:1012100040F18F80FFE79DF818004007002840F15B
:101220008380FFE79DF81D00C00700280BD0FFE773
:101230009DF80800C007002805D0FFE7089840F097
:1012400001000890FFE79DF81D00800700280BD5DE
:10125000FFE79DF808008007002805D5FFE70898FC
:1012600040F002000890FFE79DF81D0040070028AD
:101270000BD5FFE79DF808004007002805D5FFE7DC
:10128000089840F004000890FFE79DF81D00000753
:10129000002848D5FFE79DF8080010F0700F42D0F5
:1012A000FFE7029800F0700001461028009114D06A
:1012B000FFE70098202815D0FFE70098302816D0C7
:1012C000FFE70098402817D0FFE70098502818D073
:1012D000FFE70098602819D01DE0089840F008004A
:1012E000089019E0089840F01000089014E0089861
:1012F00040F0200008900FE0089840F0400008906F
:101300000AE0089840F08000089005E0089840F452
:101310008070089000E0FFE709980068816921F07B
:1013200070018161FFE7FFE70998006804214160CF
:10133000FFE70898002809D0FFE7089809994A6A4A
:10134000104348620998FFF7F9FDFFE70AB080BD36
:1013500080B584B00146029002980028009104D123
:10136000FFE701208DF80F00E6E0029890F82000DA
:10137000002804D1FFE7029800F04AF9FFE702983D
:101380000068016841F00101016001F06FF801900F
:10139000FFE702980068406810F0010F17D1FFE7DF
:1013A00001F064F8DDF804E0A0EB0E000B280DD38B
:1013B000FFE70298416A41F4003141620298052139
:1013C00080F8201001208DF80F00B5E0E1E70298C9
:1013D0000068016821F00201016001F047F8019006
:1013E000FFE702980068406810F0020F17D0FFE78F
:1013F00001F03CF8DDF804E0A0EB0E000B280DD363
:10140000FFE70298416A41F40031416202980521E8
:1014100080F8201001208DF80F008DE0E1E70298A0
:10142000007E012807D1FFE702980068016841F0BB
:101430008001016006E002980068016821F08001E7
:101440000160FFE70298407E012807D1FFE702987C
:101450000068016841F04001016006E00298006800
:10146000016821F040010160FFE70298807E0128B9
:1014700007D1FFE702980068016841F02001016090
:1014800006E002980068016821F020010160FFE792
:101490000298C07E012807D1FFE702980068016822
:1014A00021F01001016006E002980068016841F037
:1014B00010010160FFE70298007F012807D1FFE7D4
:1014C00002980068016841F00801016006E0029896
:1014D0000068016821F008010160FFE70298407F81
:1014E000012807D1FFE702980068016841F0040174
:1014F000016006E002980068016821F004010160C3
:10150000FFE70298016842688368D0F80CC043EA9C
:101510000C03D0F810C043EA0C0340691843013AA9
:101520001043C8610298002141620298012280F8AC
:1015300020208DF80F10FFE79DF80F0004B080BD4C
:1015400080B582B0014601900198006846F20042E1
:10155000C4F200029042009122D1FFE740F27800ED
:10156000C2F200000168013901600068002809D159
:10157000FFE743F64000C4F20200016821F0007169
:101580000160FFE70020C4F202004FF4C05100F0F8
:1015900061FC142001F0C0F9152001F0BDF934E020
:1015A0000198006846F60001C4F2000188422BD180
:1015B000FFE743F64000C4F20200016821F08061B9
:1015C000016040F27800C2F2000001680139016058
:1015D0000068002809D1FFE743F64000C4F202008A
:1015E000016821F000710160FFE740F20040C4F2A1
:1015F00002004FF4405100F02DFC402001F08CF926
:10160000412001F089F9FFE7FFE702B080BD00004B
:1016100080B59AB001461990002018901790169046
:10162000159014901998006846F20042C4F2000226
:1016300090420E9158D1FFE740F27800C2F20000CC
:101640000168013101600068012813D1FFE7FFE75D
:101650000020139043F64000C4F20200016841F0FC
:1016600000710160006800F00070139013980D90F5
:10167000FFE7FFE7FFE70020129043F63000C4F2D7
:101680000200016841F001010160006800F0010002
:10169000129012980C90FFE74FF4C0501490022063
:1016A000159000201690032117910921189100210F
:1016B000C4F2020114AA0B900846114600F0EEFC99
:1016C000142005210A9009910B9A01F041F90A981A
:1016D00001F02EF91520089009990B9A01F038F9BC
:1016E000089801F025F974E01998006846F60001A1
:1016F000C4F2000188426BD1FFE7FFE700201190A0
:1017000043F64000C4F20200016841F080610160CC
:10171000006800F08060119011980790FFE740F298
:101720007800C2F200000168013101600068012800
:1017300013D1FFE7FFE70020109043F64000C4F20A
:101740000200016841F000710160006800F0007063
:10175000109010980690FFE7FFE7FFE700200F903A
:1017600043F63000C4F20200016841F0020101605A
:10177000006800F002000F900F980590FFE74FF40B
:1017800040501490022015900020169003211791CC
:101790000921189140F20041C4F2020114AA0490F8
:1017A0000846114600F07AFC402005210390029182
:1017B000049A01F0CDF8039801F0BAF841200190A5
:1017C0000299049A01F0C4F8019801F0B1F8FFE71A
:1017D000FFE71AB080BD000082B001460190009181
:1017E00002B0704782B001460190009102B070478C
:1017F00082B001460190009102B0704782B001466C
:101800000190009102B0704782B0014601900091B2
:1018100002B0704780B584B001460290029890F8FB
:1018200020000128009132D1FFE70298022180F8C0
:10183000201002980068016821F00101016000F0A9
:1018400015FE0190FFE702980068406810F0010F54
:1018500017D0FFE700F00AFEDDF804E0A0EB0E0071
:101860000B280DD3FFE70298416A41F40031416231
:101870000298052180F8201001208DF80F000FE05C
:10188000E1E70298002141628DF80F1008E002980C
:10189000416A41F40021416201208DF80F00FFE709
:1018A0009DF80F0004B080BD82B001460190009108
:1018B00002B0704782B001460190009102B07047BB
:1018C00082B001460190009102B0704782B001469B
:1018D0000190009102B0704782B0014601900091E2
:1018E00002B0704782B001460190009102B070478B
:1018F00082B001460190009102B0704780B586B079
:10190000014604900498806D0390019100F0AEFDB3
:101910000290049890F8350002280DD0FFE7049853
:1019200080214165FFE70498002180F83410FFE72B
:1019300001208DF817005BE004980068016821F031
:101940001601016004980068416921F0800141613D
:101950000498006C002805D1FFE70498806C0028EB
:1019600007D0FFE704980068016821F008010160D2
:10197000FFE704980068016821F001010160FFE7BA
:1019800004980068006810F0010F1BD0FFE700F01A
:101990006DFDDDF808E0A0EB0E00062811D3FFE78F
:1019A0000498202141650498032180F83510FFE751
:1019B0000498002180F83410FFE703208DF8170009
:1019C00016E0DDE70498C06D3F2101FA00F00399AD
:1019D00088600498012180F83510FFE70498002101
:1019E00080F83410FFE7FFE700208DF81700FFE7CD
:1019F0009DF8170006B080BD83B0014601900198A4
:101A000090F835000228009107D0FFE70198802167
:101A1000416501208DF80B000EE00198052180F84A
:101A2000351001980068016821F001010160FFE7AD
:101A300000208DF80B00FFE79DF80B0003B0704706
:101A400080B58EB013468C4686460C908DF82F10CC
:101A50000A9200208DF827000493CDF80CC0CDF831
:101A600008E000F003FD07900C9890F8350002287C
:101A70000DD0FFE70C9880214165FFE70C9800210D
:101A800080F83410FFE701208DF83700F5E00C985E
:101A90000068006810F4807F08D0FFE70C984FF4CE
:101AA0008071416501208DF83700E6E09DF82F0038
:101AB000002807D1FFE70C98C06D202101FA00F043
:101AC000089006E00C98C06D102101FA00F0089013
:101AD000FFE70C98806D0590059800680690FFE779
:101AE0000698089900220842019207D1FFE70C9856
:101AF000406D012121EA00000190FFE70198C00735
:101B000000286CD0FFE70A980130002821D0FFE7B9
:101B10000A9800280BD0FFE700F0A8FCDDF81CE0D5
:101B2000A0EB0E00DDF828E0704511D9FFE70C9816
:101B3000202141650C98012180F83510FFE70C98B1
:101B4000002180F83410FFE703208DF8370094E07F
:101B5000FFE705980068069006980C99C96D082261
:101B600002FA01F108420DD0FFE70C98416D41F0F7
:101B7000010141650C98C06D082101FA00F005993A
:101B80008860FFE706980C99C96D012202FA01F1FD
:101B900008420DD0FFE70C98416D41F0020141650C
:101BA0000C98C06D012101FA00F005998860FFE7EB
:101BB00006980C99C96D042202FA01F108420DD071
:101BC000FFE70C98416D41F0040141650C98C06D30
:101BD000042101FA00F005998860FFE780E70C987E
:101BE000406D002825D0FFE70C98406D10F0010FE4
:101BF0001ED0FFE70C98FFF781FEDDF830E0DEF83D
:101C00005CE0302101FA0EF1DDF814E0CEF80810A6
:101C10000C994FF0010E81F835E00090FFE70C9829
:101C2000002180F83410FFE701208DF8370024E010
:101C3000FFE79DF82F00002812D1FFE70C98C06D38
:101C4000302101FA00F0059988600C98012180F894
:101C50003510FFE70C98002180F83410FFE707E00B
:101C60000C98C06D102101FA00F005998860FFE71B
:101C70009DF827008DF83700FFE79DF837000EB07C
:101C800080BD0000B0B58AB09C4696460C4605461D
:101C9000089007910692059300208DF81300CDF867
:101CA0000CC0CDF808E001940095FFE7089890F883
:101CB0003400012804D1FFE702208DF827002EE030
:101CC0000898012180F83410FFE7FFE7089890F8A2
:101CD0003500012814D1FFE70898022180F835105B
:101CE00008980021416508980799069A059BFEF718
:101CF00025FF08980068016841F00101016009E0D2
:101D0000FFE70898002180F83410FFE702208DF8E3
:101D10001300FFE79DF813008DF82700FFE79DF8FB
:101D200027000AB0B0BD0000B0B58CB09C46964606
:101D30000C4605460A9009910892079300208DF8F9
:101D40001B000A98806D0590CDF810C0CDF80CE00E
:101D500002940195FFE70A9890F83400012804D115
:101D6000FFE702208DF82F0047E00A98012180F854
:101D70003410FFE7FFE70A9890F8350001282DD1CD
:101D8000FFE70A98022180F835100A980021416582
:101D90000A980999089A079BFEF7D0FE0A98C06D29
:101DA0003F2101FA00F0059988600A9800680168EF
:101DB00041F0160101600A98006C002807D0FFE787
:101DC0000A980068016841F008010160FFE70A987D
:101DD0000068016841F00101016009E0FFE70A982D
:101DE000002180F83410FFE702208DF81B00FFE788
:101DF0009DF81B008DF82F00FFE79DF82F000CB019
:101E0000B0BD000080B584B001460390009100F0A1
:101E10002DFB02900398019001980130002809D011
:101E2000FFE740F20C00C2F200000078019908447C
:101E30000190FFE7FFE700F019FBDDF808E0A0EBF9
:101E40000E00DDF804E0704501D2FFE7F3E704B0CF
:101E500080BD000090B00A4603460F900E9100200E
:101E60000C900B900A900D9009920893FFE70D9843
:101E70000F2800F21081FFE70D98012101FA00F010
:101E80000C900E980C9908400B900B980C99884276
:101E900040F0FC80FFE70D9820F0030043F60801B6
:101EA000C4F2010140580A900D9800F00300800030
:101EB0000F2101FA00F00A9908400A900A980F9938
:101EC0000022C4F202029142079003D1FFE70020F2
:101ED00006905EE00F9840F20041C4F20201884291
:101EE00003D1FFE70120059050E00F9840F6000174
:101EF000C4F20201884203D1FFE70220049042E0CD
:101F00000F9840F60041C4F20201884203D1FFE776
:101F10000320039034E00F9841F20001C4F2020163
:101F2000884203D1FFE70420029026E00F9841F297
:101F30000041C4F20201884203D1FFE7052001906D
:101F400018E00F9841F60001C4F20201884203D163
:101F5000FFE7062000900AE00F9841F60041C4F226
:101F600002010822884208BF07220092FFE700987A
:101F70000190FFE701980290FFE702980390FFE7C6
:101F800003980490FFE704980590FFE705980690F2
:101F9000FFE70698C0B20D9901F00301890088405F
:101FA0000799814239D1FFE70B9843F60041C4F20B
:101FB00001010A6822EA000008600B9843F6044118
:101FC000C4F201010A6822EA000008600B9843F697
:101FD0000C41C4F201010A6822EA000008600B9873
:101FE00043F60841C4F201010A6822EA00000860D1
:101FF0000D9800F0030080000F2101FA00F00A9014
:102000000A980D9921F0030143F60802C4F2010277
:102010008B5823EA00008850FFE70D984000032109
:1020200001FA00F00F9A136823EA000010600D987F
:1020300000F0070292000F2303FA02F20F9B4FF603
:10204000FC7CC7F6FF7C0CEA50001844036A23EAC4
:10205000020202620D98400001FA00F00F9AD36864
:1020600023EA0000D0600D98012202FA00F00F9AD6
:10207000536823EA000050600D98400001FA00F018
:102080000F998A6822EA00008860FFE7FFE70D9851
:1020900001300D90EBE610B07047000091B00A4699
:1020A000034610900F9100200D900C900B900E9015
:1020B00009920893FFE70E980F2800F2D581FFE7F9
:1020C0000E98012101FA00F00D900F9800680D990B
:1020D00008400C900C980D99884240F0C081FFE7B1
:1020E0000F98406800F00300012807D0FFE70F9821
:1020F000406800F0030002282FD1FFE710988068A5
:102100000B900E984000032101FA00F00B9921EA90
:1021100000000B900F98C0680E99490088400B99F9
:1021200008430B900B9810998860109840680B90AA
:102130000E98012101FA00F00B9921EA00000B90A2
:102140000F984068C0F300100E9988400B9908431F
:102150000B900B9810994860FFE70F98406800F0CB
:102160000300032818D0FFE71098C0680B900E9862
:102170004000032101FA00F00B9921EA00000B90C6
:102180000F9880680E99490088400B9908430B907E
:102190000B981099C860FFE70F98406800F00300A3
:1021A000022828D1FFE710980E994FF6FC72C7F667
:1021B000FF7202EA51010844006A0B900E9800F089
:1021C000070080000F2101FA00F00B9921EA0000BE
:1021D0000B900F9800690E9901F007018900884063
:1021E0000B9908430B900B9810990E9B02EA53022F
:1021F00011440862FFE7109800680B900E984000A9
:10220000032101FA00F00B9921EA00000B900F98CE
:10221000406800F003000E99490088400B9908437C
:102220000B900B98109908600F9880798007002810
:1022300000F01481FFE7FFE700200A9043F6440016
:10224000C4F20200016841F480410160006800F4BA
:1022500080400A900A980790FFE70E9820F003004C
:1022600043F60801C4F2010140580B900E9800F0AB
:10227000030080000F2101FA00F00B9921EA000011
:102280000B9010980021C4F20201884203D1FFE7AD
:10229000002006905EE0109840F20041C4F2020176
:1022A000884203D1FFE70120059050E0109840F6E6
:1022B0000001C4F20201884203D1FFE7022004902A
:1022C00042E0109840F60041C4F20201884203D176
:1022D000FFE70320039034E0109841F20001C4F2BC
:1022E0000201884203D1FFE70420029026E0109803
:1022F00041F20041C4F20201884203D1FFE7052008
:10230000019018E0109841F60001C4F202018842E1
:1023100003D1FFE7062000900AE0109841F6004143
:10232000C4F202010822884208BF07220092FFE798
:1023300000980190FFE701980290FFE70298039050
:10234000FFE703980490FFE704980590FFE70598DE
:102350000690FFE70698C0B20E9901F003018900CC
:1023600088400B9908430B900B980E9921F00301BC
:1023700043F60802C4F20102885043F60840C4F252
:10238000010000680B900C980B9921EA00000B905B
:102390000F988079C006002805D5FFE70C980B99A7
:1023A00008430B90FFE70B9843F60841C4F2010184
:1023B000086043F60C40C4F2010000680B900C98D2
:1023C0000B9921EA00000B900F9880798006002875
:1023D00005D5FFE70C980B9908430B90FFE70B9886
:1023E00043F60C41C4F20101086043F60440C4F214
:1023F000010000680B900C980B9921EA00000B90EB
:102400000F9880798007002805D5FFE70C980B9975
:1024100008430B90FFE70B9843F60441C4F2010117
:10242000086043F60040C4F2010000680B900C986D
:102430000B9921EA00000B900F988079C0070028C3
:1024400005D0FFE70C980B9908430B90FFE70B981A
:1024500043F60041C4F201010860FFE7FFE7FFE730
:102460000E9801300E9026E611B0704744F60C200D
:10247000C2F200000068704740F20C00C2F2000097
:102480000078704740F21000C2F200000068704708
:1024900080B584B00146029002980028019104D1D1
:1024A000FFE701208DF80F0042E0029890F841000C
:1024B000002808D1FFE70298002180F84010029818
:1024C00006F01EF8FFE70298242180F841100298D8
:1024D0000068C16821F40051C160029807F012FC45
:1024E00002980068016921F4904101610298006836
:1024F000416921F02201416102980068416941F07F
:102500000801416102980068C16841F40051C1604E
:1025100002980021416402984FF0200E80F841E0BB
:10252000029880F842E0029841638DF80F10FFE7AF
:102530009DF80F0004B080BD40F20C00C2F2000014
:10254000007844F60C21C2F200010A6810440860C9
:102550007047000080B582B043F60040C4F202002C
:10256000016841F400710160016841F4806101601B
:10257000016841F480710160032000F00DFA0F2022
:1025800000F006F8019000F025F9002002B080BDAF
:1025900080B590B001460F900020089007900391FD
:1025A000FFE70020049043F64000C4F202000168F7
:1025B00041F010010160006800F0100004900498E0
:1025C0000290FFE70AA806A900F02CFB0D980890DE
:1025D0000898002804D1FFE700F05EFB099004E0B2
:1025E00000F05AFB40000990FFE709984DF683611F
:1025F000C4F21B31A0FB01014FF0FF3202EB91410D
:10260000079140F2C071C2F2000141F20002C4F22F
:1026100000020A6040F2E732CA60079A4A6000226C
:102620000A618A608A610190084601F035F88DF8E8
:1026300017009DF81700002826D1FFE740F2C07070
:10264000C2F2000001F04EF98DF817009DF8170056
:10265000002818D1FFE7362000F06AF90F980F28FC
:102660000CD8FFE70F993620002200F071F90F987F
:1026700040F21001C2F20001086003E001208DF871
:102680001700FFE7FFE7FFE79DF8170010B080BDD8
:1026900080B584B00146029040F20000C2F2000012
:1026A000006840F20C02C2F2000212784FF47A7312
:1026B000B3FBF2F2B0FBF2F0019100F013FF00283F
:1026C00004D0FFE701208DF80F0018E002980F28D2
:1026D0000DD8FFE702994FF0FF30002200F038F9E3
:1026E000029840F21001C2F20001086003E00120EC
:1026F0008DF80F0003E000208DF80F00FFE79DF834
:102700000F0004B080BD000080B586B00A460346C5
:1027100004900391049800280292019304D1FFE7EA
:1027200001208DF8170050E0049890F8410000282F
:1027300008D1FFE70498002180F84010049805F0C4
:10274000DFFEFFE70498242180F841100498006818
:10275000C16821F40051C160049807F0D3FA0498CD
:102760000068016921F40061016104980068416911
:1027700021F02A01416104980068016941F4804117
:10278000016104980068016921F02001016103984A
:1027900004990968D1F810E040EA0E000861049835
:1027A0000068C16841F40051C1600498002141648F
:1027B00004984FF0200E80F841E0049880F842E041
:1027C000049841638DF81710FFE79DF8170006B0D5
:1027D00080BD000080B584B0FFE70020039043F681
:1027E0004400C4F20200016841F4804101600068C5
:1027F00000F48040039003980190FFE7FFE700207A
:10280000029043F64000C4F20200016841F080519A
:102810000160006800F08050029002980090FFE78D
:102820006FF001000F21002200F092F804B080BD8B
:1028300080B588B013468C46864606908DF81710F2
:102840000492069800280393CDF808C0CDF804E060
:1028500004D1FFE701208DF81F0059E0069890F899
:102860004100002808D1FFE70698002180F84010B9
:10287000069805F045FEFFE70698242180F84110F0
:1028800006980068C16821F40051C160069807F0FD
:1028900039FA06980068016921F4904101610698AF
:1028A0000068416921F02A014161069800680169C8
:1028B00021F00F0101619DF8170006990968D1F810
:1028C00010E040EA0E00086106980068C16821F433
:1028D0000061C160049806990968D1F80CE040EAEB
:1028E0000E00C86006980068C16841F40051C160DC
:1028F00006980021416406984FF0200E80F841E0D0
:10290000069880F842E0069841638DF81F10FFE7B3
:102910009DF81F0008B080BD80B582B001468DF8DB
:1029200007009DF9070000910AF070F902B080BD20
:1029300080B582B001468DF807009DF9070000912F
:102940000AF084F902B080BD80B50AF09BF980BD21
:1029500080B58AB013468C4686468DF827000891CC
:102960000792002006900593CDF810C0CDF80CE03A
:102970000AF088F9069006980899079A9DF9273079
:10298000029306F039FA02990190084601990AF07B
:1029900081F90AB080BD000080B582B00146019087
:1029A000019800910AF0C2F902B080BD80B588B0EC
:1029B0000A46034606900591069800280392029362
:1029C00004D1FFE701208DF81F0026E1059843F6AA
:1029D0000041C4F20201096801F00701884212D9DE
:1029E000FFE7059843F60041C4F202010870086849
:1029F00000F007000599884204D0FFE701208DF818
:102A00001F000AE1FFE706980068800700282AD522
:102A1000FFE7069800684007002809D5FFE743F65E
:102A20000800C4F20200016841F4E0510160FFE7D0
:102A3000069800680007002809D5FFE743F608005C
:102A4000C4F20200016841F460410160FFE743F60F
:102A50000800C4F20200016821F0F001069A9268B1
:102A600011430160FFE706980068C007002870D096
:102A7000FFE706984068012811D1FFE743F6000000
:102A8000C4F20200006800F400300021B1EB504FA6
:102A900004D1FFE701208DF81F00BEE02CE006986E
:102AA0004068022805D0FFE706984068032811D146
:102AB000FFE743F60000C4F20200006800F0007077
:102AC0000021B1EB506F04D1FFE701208DF81F000A
:102AD000A3E010E043F60000C4F20200006800F03A
:102AE00002000021B1EB500F04D1FFE701208DF867
:102AF0001F0092E0FFE7FFE743F60800C4F2020080
:102B0000016821F00301069A526811430160FFF742
:102B1000ADFC0490FFE743F60800C4F20200006831
:102B200000F00C0006994968B0EB810F10D0FFE768
:102B3000FFF79CFCDDF810E0A0EB0E0041F2893EAF
:102B4000704504D3FFE703208DF81F0065E0E2E73E
:102B5000FFE7059843F60041C4F20201096801F05D
:102B60000701884212D2FFE7059843F60041C4F2FC
:102B700002010870086800F007000599884204D037
:102B8000FFE701208DF81F0047E0FFE70698006887
:102B9000400700280CD5FFE743F60800C4F2020006
:102BA000016821F4E051069AD26811430160FFE701
:102BB00006980068000700280DD5FFE743F60800D7
:102BC000C4F20200016821F46041069A126941EAE8
:102BD000C2010160FFE700F087F843F6080EC4F277
:102BE000020EDEF800E0CEF3031E43F2D451C0F62D
:102BF000010111F80E10C84040F20001C2F20001BC
:102C0000086040F21000C2F200000068FFF7C0FC4C
:102C100000218DF81F100190FFE79DF81F0008B0FC
:102C200080BD000084B00A460346039002910398D9
:102C30000F21016043F60800C4F20200016801F0B0
:102C40000301DDF80CC0CCF80410016801F0F001BC
:102C5000DDF80CC0CCF80810016801F4E051DDF893
:102C60000CC0CCF80C10006800F46040C008039958
:102C7000086143F60040C4F20200006800F007005B
:102C8000029908600192009304B0704740F200007E
:102C9000C2F200000068704780B5FFF7F7FF43F607
:102CA000080EC4F2020EDEF800E0CEF3822E43F2EC
:102CB000E451C0F6010111F80E10C84080BD0000BB
:102CC00080B5FFF7E3FF43F6080EC4F2020EDEF80C
:102CD00000E0CEF3423E43F2E451C0F6010111F8A8
:102CE0000E10C84080BD000080B586B00020059061
:102CF00004900390029043F60800C4F202000068BA
:102D000000F00C0001460028019108D0FFE701986F
:102D100004280AD0FFE7019808280CD04FE042F2BF
:102D20000040C0F2F40002904FE041F20020C0F2F7
:102D30007A00029049E043F60400C4F20200016800
:102D400001F03F010591006810F4800F13D0FFE7F8
:102D500043F60400C4F202000068C0F3881041F298
:102D60000021C0F27A01A0FB0101059A0023FDF7C2
:102D700087FA049012E043F60400C4F202000068EF
:102D8000C0F3881042F20041C0F2F401A0FB01013F
:102D9000059A0023FDF774FA0490FFE743F6040058
:102DA000C4F20200006800F44030022101EBD03090
:102DB000039004980399B0FBF1F0029005E042F211
:102DC0000040C0F2F4000290FFE7029806B080BD18
:102DD00080B588B00146069006980028019104D17C
:102DE000FFE701208DF81F006EE306980068C0071A
:102DF000002800F0AB80FFE743F60800C4F20200B1
:102E0000006800F00C00042813D0FFE743F6080028
:102E1000C4F20200006800F00C0008281FD1FFE790
:102E200043F60400C4F20200006810F4800F16D0CC
:102E3000FFE743F60000C4F20200006800F400302F
:102E40000021B1EB504F09D0FFE7069840680028F9
:102E500004D1FFE701208DF81F0035E375E0FFE79F
:102E600006984068B0F5803F09D1FFE743F60000BF
:102E7000C4F20200016841F48031016020E006984C
:102E80004068B0F5A02F0DD1FFE743F60000C4F273
:102E90000200016841F480210160016841F4803141
:102EA00001600CE043F60000C4F20200016821F466
:102EB00080310160016821F480210160FFE7FFE7B4
:102EC000FFE70698406800281FD0FFE7FFF7CEFA1B
:102ED0000590FFE743F60000C4F20200006800F42A
:102EE00000300021B1EB504F0ED1FFE7FFF7BEFAE3
:102EF000DDF814E0A0EB0E00652804D3FFE7032003
:102F00008DF81F00E0E2E5E71EE0FFF7AFFA05905D
:102F1000FFE743F60000C4F20200006800F400304E
:102F20000021B1EB504F0ED0FFE7FFF79FFADDF81D
:102F300014E0A0EB0E00652804D3FFE703208DF812
:102F40001F00C1E2E5E7FFE7FFE7FFE7069800683B
:102F50008007002840F19B80FFE743F60800C4F299
:102F60000200006810F00C0F13D0FFE743F60800D2
:102F7000C4F20200006800F00C0008282CD1FFE722
:102F800043F60400C4F20200006810F4800F23D15D
:102F9000FFE743F60000C4F20200006800F0020000
:102FA0000021B1EB500F09D0FFE70698C068012857
:102FB00004D0FFE701208DF81F0085E243F60000F2
:102FC000C4F20200016821F0F801069A126941EA90
:102FD000C2010160FFE759E00698C068002830D0C0
:102FE000FFE70020C4F2472001210160FFF73EFA0D
:102FF0000590FFE743F60000C4F20200006800F00D
:1030000002000021B1EB500F0ED1FFE7FFF72EFABF
:10301000DDF814E0A0EB0E00032804D3FFE7032043
:103020008DF81F0050E2E5E743F60000C4F202000D
:10303000016821F0F801069A126941EAC2010160B3
:1030400023E00020C4F2472000210160FFF70EFAC0
:103050000590FFE743F60000C4F20200006800F0AC
:1030600002000021B1EB500F0ED0FFE7FFF7FEF991
:10307000DDF814E0A0EB0E00032804D3FFE70320E3
:103080008DF81F0020E2E5E7FFE7FFE7FFE706987E
:1030900000680007002850D5FFE70698406900281F
:1030A00025D0FFE740F68060C4F24720012101608F
:1030B000FFF7DCF90590FFE743F67400C4F2020065
:1030C000006800F002000021B1EB500F0ED1FFE7C5
:1030D000FFF7CCF9DDF814E0A0EB0E00032804D3D1
:1030E000FFE703208DF81F00EEE1E5E724E040F65E
:1030F0008060C4F2472000210160FFF7B7F9059016
:10310000FFE743F67400C4F20200006800F002001A
:103110000021B1EB500F0ED0FFE7FFF7A7F9DDF864
:1031200014E0A0EB0E00032804D3FFE703208DF882
:103130001F00C9E1E5E7FFE7FFE7069800684007E1
:10314000002840F1D680FFE700208DF80F0043F6FD
:103150004000C4F20200006810F0805F16D1FFE763
:10316000FFE70020029043F64000C4F2020001682D
:1031700041F080510160006800F080500290029898
:103180000090FFE701208DF80F00FFE747F20000F5
:10319000C4F20000006810F4807F24D1FFE747F2FA
:1031A0000000C4F20000016841F480710160FFF783
:1031B0005DF90590FFE747F20000C4F200000068E7
:1031C00010F4807F0ED1FFE7FFF750F9DDF814E02F
:1031D000A0EB0E00032804D3FFE703208DF81F00A7
:1031E00072E1E8E7FFE7FFE706988068012809D168
:1031F000FFE743F67000C4F20200016841F00101EC
:1032000001601FE00698806805280DD1FFE743F6AE
:103210007000C4F20200016841F00401016001681D
:1032200041F0010101600CE043F67000C4F20200BD
:10323000016821F001010160016821F004010160D1
:10324000FFE7FFE7FFE706988068002821D0FFE747
:10325000FFF70CF90590FFE743F67000C4F2020097
:10326000006800F002000021B1EB500F10D1FFE721
:10327000FFF7FCF8DDF814E0A0EB0E0041F2893E08
:10328000704504D3FFE703208DF81F001CE1E3E73E
:1032900020E0FFF7EBF80590FFE743F67000C4F27B
:1032A0000200006800F002000021B1EB500F10D0C6
:1032B000FFE7FFF7DBF8DDF814E0A0EB0E0041F2CA
:1032C000893E704504D3FFE703208DF81F00FBE023
:1032D000E3E7FFE79DF80F00012809D1FFE743F678
:1032E0004000C4F20200016821F080510160FFE754
:1032F000FFE706988069002800F0E280FFE743F6C8
:103300000800C4F20200006800F00C00082800F079
:103310008B80FFE706988069022860D1FFE7602074
:10332000C4F2472000210160FFF7A0F80590FFE7F5
:1033300043F60000C4F20200006800F000700021B3
:10334000B1EB506F0ED0FFE7FFF790F8DDF814E017
:10335000A0EB0E00032804D3FFE703208DF81F0025
:10336000B2E0E5E70698C169026A436AD0F828C06E
:10337000114341EA83114FEACC324FF6FF739A436F
:10338000A2F580321143C06A41EA006043F60401AD
:10339000C4F2020108606020C4F2472001210160EC
:1033A000FFF764F80590FFE743F60000C4F202005F
:1033B000006800F000700021B1EB506F0ED1FFE704
:1033C000FFF754F8DDF814E0A0EB0E00032804D357
:1033D000FFE703208DF81F0076E0E5E723E060209B
:1033E000C4F2472000210160FFF740F80590FFE795
:1033F00043F60000C4F20200006800F000700021F3
:10340000B1EB506F0ED0FFE7FFF730F8DDF814E0B6
:10341000A0EB0E00032804D3FFE703208DF81F0064
:1034200052E0E5E7FFE74AE006988069012804D109
:10343000FFE701208DF81F0046E043F60400C4F2C8
:1034400002000068049006988069012831D0FFE7E7
:10345000049800F480000699C969884229D1FFE7E1
:10346000049800F03F000699096A884221D1FFE7DD
:10347000049847F6C07108400699496AB0EB811F6D
:1034800017D1FFE7049800F440300699896AC90310
:103490004FF6FF729143A1F58031884209D1FFE7D1
:1034A000049800F070600699C96AB0EB016F04D00F
:1034B000FFE701208DF81F0006E0FFE7FFE7FFE7C9
:1034C00000208DF81F00FFE79DF81F0008B080BDA9
:1034D00040F2C070C2F200000068C16841F0010112
:1034E000C160704780B582B001460190019800919B
:1034F00005F02AFD02B080BD80B582B001468DF88E
:10350000070000208DF8060040F20C00C2F2000017
:1035100000789DF807209042009121D0FFE740F20B
:103520000C00C2F2000001788DF805109DF807101C
:10353000017040F21000C2F200000068FFF728F8A6
:103540008DF806009DF80600002808D0FFE79DF8DA
:10355000050040F20C01C2F200010870FFE7FFE72E
:103560009DF8060002B080BD40F2C070C2F20000BB
:103570000068C16821F00101C160704782B0014656
:103580000190009102B0704782B001460190009115
:1035900002B0704782B001460190009102B07047BE
:1035A00080B587B013468C468646059004910392F9
:1035B0000293CDF804C0CDF800E0FFE7059890F83D
:1035C0003C00012804D1FFE702208DF81B005FE0DA
:1035D0000598012180F83C10FFE7FFE704980028D8
:1035E0000CD0FFE70498102808D0FFE704982028A3
:1035F00004D0FFE7049830280DD1FFE70598006854
:10360000816821F0700181600498059909688A68D1
:1036100010438860FFE705980068416841F00101A8
:10362000416005980068416821F0040141600398F9
:10363000059909684A68104348600598406B49F24B
:10364000E511C0F60001C1630598406B49F20921FC
:10365000C0F6000101640598406B49F2DD61C0F6D7
:103660000001C16405980068C16821F02001C160B3
:1036700005980068C16841F40051C160FFE70598F2
:10368000002180F83C10FFE700208DF81B00FFE7C9
:103690009DF81B0007B080BD80B584B00146029044
:1036A00002980028019104D1FFE701208DF80F0056
:1036B00043E0029890F83D00002808D1FFE7029807
:1036C000002180F83C10029800F03CF8FFE70298D7
:1036D000022180F83D10029850F8041B0090084623
:1036E000009905F0A3FD0298012180F84610FFE73C
:1036F0000298012180F83E10029880F83F1002984D
:1037000080F84010029880F84110FFE7FFE7029828
:10371000012180F84210029880F84310029880F846
:103720004410029880F84510FFE70298012180F8C4
:103730003D1000208DF80F00FFE79DF80F0004B04A
:1037400080BD000082B001460190009102B0704738
:1037500080B58AB013468C46864608900791ADF82E
:103760001A20089890F83D0002280493CDF80CC068
:10377000CDF808E004D1FFE702208DF82700ACE087
:10378000089890F83D00012813D1FFE7079800281A
:1037900005D0FFE7BDF81A00002804D1FFE701209B
:1037A0008DF8270099E00898022180F83D10FFE786
:1037B00003E001208DF827008FE0FFE70898006AFA
:1037C00049F28171C0F60001C1630898006A49F2AC
:1037D000B171C0F6000101640898006A49F2DD6128
:1037E000C0F60001C16408980168006A079A2C318C
:1037F000BDF81A3001911146019AFEF795FA00289A
:1038000004D0FFE701208DF8270066E008980068E3
:10381000C16841F48071C160089800680021C4F259
:10382000010188423CD0FFE708980068B0F1804F62
:1038300036D0FFE70898006840F20041C4F200016A
:1038400088422DD0FFE70898006840F60001C4F2D6
:103850000001884224D0FFE70898006840F6004144
:10386000C4F2000188421BD0FFE70898006840F2CC
:103870000041C4F20101884212D0FFE708980068B5
:1038800044F20001C4F20101884209D0FFE7089820
:10389000006841F60001C4F20001884212D1FFE73E
:1038A00008980068806800F00700059005980628D1
:1038B00007D0FFE708980068016841F00101016046
:1038C000FFE706E008980068016841F00101016027
:1038D000FFE700208DF82700FFE79DF827000AB0DA
:1038E00080BD000084B001460290029890F83D002F
:1038F0000128009104D0FFE701208DF80F006AE055
:103900000298022180F83D1002980068C16841F0D9
:103910000101C160029800680021C4F201018842DF
:103920003CD0FFE702980068B0F1804F36D0FFE747
:103930000298006840F20041C4F2000188422DD094
:10394000FFE70298006840F60001C4F200018842D7
:1039500024D0FFE70298006840F60041C4F200015D
:1039600088421BD0FFE70298006840F20041C4F291
:103970000101884212D0FFE70298006844F200017A
:10398000C4F20101884209D0FFE70298006841F6BD
:103990000001C4F20001884212D1FFE702980068DA
:1039A000806800F0070001900198062807D0FFE723
:1039B00002980068016841F001010160FFE706E03C
:1039C00002980068016841F001010160FFE70020F2
:1039D0008DF80F00FFE79DF80F0004B0704700005E
:1039E000F0B58DB0DDF84CC0DDF848E01C4615465A
:1039F0000E4607460B900A910992089300208DF815
:103A00001F000B9890F8460002280694059504962E
:103A10000397CDF808C0CDF804E004D1FFE70220F9
:103A20008DF833005FE10B9890F84600012812D121
:103A3000FFE70898002808D1FFE71298002804D073
:103A4000FFE701208DF833004DE10B98022180F84B
:103A50004610FFE700E0FFE7FFE70998B0F5807F39
:103A6000009022D0FFE70098B0F5007F42D0FFE73A
:103A70000098B0F5806F62D0FFE70098B0F5006F56
:103A800000F08280FFE70098B0F5805F00F0A18031
:103A9000FFE70098B0F5005F00F0C080FFE70098F6
:103AA000B0F5804F00F0DF8002E10B98006A49F228
:103AB0008171C0F60001C1630B98006A49F2B171CF
:103AC000C0F6000101640B98006A49F2DD61C0F69E
:103AD0000001C1640B980168006A4C31089A139B7D
:103AE000FEF722F9002804D0FFE701208DF833000B
:103AF000F9E0E1E00B98406A49F23541C0F6000177
:103B0000C1630B98406A49F21951C0F60001016483
:103B10000B98406A49F2DD61C0F60001C1640B9860
:103B20000168406A4C31089A139BFEF7FDF80028A3
:103B300004D0FFE701208DF83300D4E0BCE00B98FF
:103B4000806A49F23541C0F60001C1630B98806A72
:103B500049F21951C0F6000101640B98806A49F2DC
:103B6000DD61C0F60001C1640B980168806A4C31C8
:103B7000089A139BFEF7D8F8002804D0FFE701202D
:103B80008DF83300AFE097E00B98C06A49F23541F9
:103B9000C0F60001C1630B98C06A49F21951C0F622
:103BA000000101640B98C06A49F2DD61C0F60001B2
:103BB000C1640B980168C06A4C31089A139BFEF7E8
:103BC000B3F8002804D0FFE701208DF833008AE025
:103BD00072E00B98006B49F23541C0F60001C163F9
:103BE0000B98006B49F21951C0F6000101640B9863
:103BF000006B49F2DD61C0F60001C1640B980168F9
:103C0000006B4C31089A139BFEF78EF8002804D005
:103C1000FFE701208DF8330065E04DE00B98406B25
:103C200049F2E511C0F60001C1630B98406B49F2FF
:103C30000921C0F6000101640B98406B49F2DD6177
:103C4000C0F60001C1640B980168406B4C31089AC2
:103C5000139BFEF769F8002804D0FFE701208DF8D8
:103C6000330040E028E00B98806B49F2CD71C0F63C
:103C70000001C1630B98806B49F2FD71C0F6000131
:103C800001640B98806B49F2DD61C0F60001C164EC
:103C90000B980168806B4C31089A139BFEF744F82F
:103CA000002804D0FFE701208DF833001BE003E07B
:103CB00001208DF81F00FFE79DF81F0000280DD19F
:103CC000FFE70A98129908430B99096888640998D4
:103CD0000B990968CA681043C860FFE79DF81F0088
:103CE0008DF83300FFE79DF833000DB0F0BD000004
:103CF000F0B595B0DDF86CC0DDF868E01C461546FF
:103D00000E460746139012911192109300208DF8E1
:103D10003F00139890F8460002280E940D950C96DB
:103D20000B97CDF828C0CDF824E004D1FFE702209E
:103D30008DF8530074E1139890F84600012812D1D1
:103D4000FFE71098002808D1FFE71A98002804D050
:103D5000FFE701208DF8530062E11398022180F8FB
:103D60004610FFE700E0FFE7FFE71198B0F5807F1E
:103D7000089022D0FFE70898B0F5007F45D0FFE714
:103D80000898B0F5806F68D0FFE70898B0F5006F2D
:103D900000F08B80FFE70898B0F5805F00F0AD8001
:103DA000FFE70898B0F5005F00F0CF80FFE70898C4
:103DB000B0F5804F00F0F18017E11398006A49F2E6
:103DC0008171C0F60001C1631398006A49F2B171B4
:103DD000C0F6000101641398006A49F2DD61C0F683
:103DE0000001C16413980168006A109A4C311B9B52
:103DF00007911146079AFDF797FF002804D0FFE7C7
:103E000001208DF853000BE1F3E01398406A49F26A
:103E10009551C0F60001C1631398406A49F261618F
:103E2000C0F6000101641398406A49F2DD61C0F6F2
:103E30000001C16413980168406A109A4C311B9BC1
:103E400006911146069AFDF76FFF002804D0FFE7A0
:103E500001208DF85300E3E0CBE01398806A49F22B
:103E60009551C0F60001C1631398806A49F26161FF
:103E7000C0F6000101641398806A49F2DD61C0F662
:103E80000001C16413980168806A109A4C311B9B31
:103E900005911146059AFDF747FF002804D0FFE77A
:103EA00001208DF85300BBE0A3E01398C06A49F2EB
:103EB0009551C0F60001C1631398C06A49F261616F
:103EC000C0F6000101641398C06A49F2DD61C0F6D2
:103ED0000001C16413980168C06A109A4C311B9BA1
:103EE00004911146049AFDF71FFF002804D0FFE754
:103EF00001208DF8530093E07BE01398006B49F2AA
:103F00009551C0F60001C1631398006B49F26161DD
:103F1000C0F6000101641398006B49F2DD61C0F640
:103F20000001C16413980168006B109A4C311B9B0F
:103F300003911146039AFDF7F7FE002804D0FFE72E
:103F400001208DF853006BE053E01398406B49F269
:103F5000E511C0F60001C1631398406B49F20921D5
:103F6000C0F6000101641398406B49F2DD61C0F6B0
:103F70000001C16413980168406B109A4C311B9B7F
:103F800002911146029AFDF7CFFE002804D0FFE708
:103F900001208DF8530043E02BE01398806B49F229
:103FA000CD71C0F60001C1631398806B49F2FD71B9
:103FB000C0F6000101641398806B49F2DD61C0F620
:103FC0000001C16413980168806B109A4C311B9BEF
:103FD00001911146019AFDF7A7FE002804D0FFE7E2
:103FE00001208DF853001BE003E001208DF83F0015
:103FF000FFE79DF83F0000280DD1FFE712981A99BE
:104000000843139909688864119813990968CA6864
:104010001043C860FFE79DF83F008DF85300FFE7AD
:104020009DF8530015B0F0BD2DE9F0438DB0DDF8DB
:1040300050C09E4614460D4606460C900B910A92BF
:1040400009930C980B990A9A099B149F4FF0010849
:1040500008EB1728E946C9F80480C9F80070CDF8C4
:104060001CE0069405950496CDF80CC0FFF7B8FC4B
:104070008DF823009DF823000DB0BDE8F08300000B
:104080002DE9F0438DB0DDF850C09E4614460D4634
:1040900006460C900B910A9209930C980B990A9A78
:1040A000099B149F4FF0010808EB1728E946C9F84F
:1040B0000480C9F80070CDF81CE0069405950496BC
:1040C000CDF80CC0FFF714FE8DF823009DF82300F7
:1040D0000DB0BDE8F083000080B58AB00A46034603
:1040E00008900791089800280392029304D1FFE7F3
:1040F00001208DF827008CE0089890F83D000028FA
:1041000008D1FFE70898002180F83C10089800F0DB
:1041100085F8FFE70898022180F83D1008980068AC
:10412000816844F2070291438160089850F8041BAB
:1041300001900846019905F079F8089800688068B0
:104140000690089800688069059008980068006AE1
:10415000049007980068069908430690059840F275
:1041600003318843059007988168806941EA0020FF
:10417000059908430590059840F60C418843059041
:1041800005984FF2F001884305900798C168C0690F
:1041900041EA002005990843059007980169006AE3
:1041A000090141EA0030059908430590049820F080
:1041B00022000490049820F0880004900798416839
:1041C000406941EA00100499084304900698089950
:1041D00009688860059808990968886104980899B1
:1041E000096808620898012180F84610089880F84C
:1041F0003E10089880F83F10089880F84210089800
:1042000080F84310089880F83D1000208DF82700B2
:10421000FFE79DF827000AB080BD000082B001468C
:104220000190009102B0704780B588B00A460346FD
:1042300006900591069890F83E008DF813000698B8
:1042400090F83F008DF81200069890F842008DF823
:104250001100069890F843008DF81000059800288A
:104260000392029317D1FFE79DF81300012805D1AF
:10427000FFE79DF81100012804D0FFE701208DF829
:104280001F007AE00698022180F83E10069880F818
:104290004210FFE742E00598042817D1FFE79DF898
:1042A0001200012805D1FFE79DF81000012804D075
:1042B000FFE701208DF81F005FE00698022180F8DB
:1042C0003F10069880F84310FFE726E09DF81300A2
:1042D00001280FD1FFE79DF8120001280AD1FFE75E
:1042E0009DF81100012805D1FFE79DF81000012875
:1042F00004D0FFE701208DF81F003EE00698022160
:1043000080F83E10069880F83F10069880F842101A
:10431000069880F84310FFE7FFE7FFE705980028BD
:10432000019004D0FFE70198042807D00DE006981B
:1043300000680021012205F057F814E00698006893
:104340000421012205F050F80DE0069800680021D4
:104350000122009205F048F8069800680421009AAE
:1043600005F042F8FFE706980068016841F0010196
:10437000016000208DF81F00FFE79DF81F0008B0C6
:1043800080BD000070B58EB0DDF848C09E46144672
:104390000D4606460C900B910A920993ADF822C087
:1043A0000C9890F83E008DF821000C9890F83F0092
:1043B0008DF820000C9890F842008DF81F000C98A2
:1043C00090F843008DF81E000B980028CDF818E0F7
:1043D00005940495039634D1FFE79DF82100022847
:1043E00005D0FFE79DF81F00022804D1FFE7022057
:1043F0008DF8370097E19DF8210001281BD1FFE7D8
:104400009DF81F00012816D1FFE70A98002805D063
:10441000FFE7BDF82200002804D1FFE701208DF856
:10442000370080E10C98022180F83E100C9880F84B
:104430004210FFE703E001208DF8370073E1FFE74A
:104440008AE00B98042834D1FFE79DF82000022869
:1044500005D0FFE79DF81E00022804D1FFE70220E7
:104460008DF837005FE19DF8200001281BD1FFE7A0
:104470009DF81E00012816D1FFE70998002805D0F5
:10448000FFE7BDF82200002804D1FFE701208DF8E6
:10449000370048E10C98022180F83F100C9880F812
:1044A0004310FFE703E001208DF837003BE1FFE711
:1044B00051E09DF8210002280FD0FFE79DF8200071
:1044C00002280AD0FFE79DF81F00022805D0FFE769
:1044D0009DF81E00022804D1FFE702208DF8370066
:1044E00021E19DF8210001282FD1FFE79DF8200050
:1044F00001282AD1FFE79DF81F00012825D1FFE7F9
:104500009DF81E00012820D1FFE70A98002809D055
:10451000FFE70998002805D0FFE7BDF82200002832
:1045200004D1FFE701208DF83700FCE00C98022150
:1045300080F83E100C9880F83F100C9880F84210DC
:104540000C9880F84310FFE703E001208DF8370056
:10455000E9E0FFE7FFE7FFE70B980028029004D0AF
:10456000FFE70298042838D06FE00C98406A49F2BF
:104570003541C0F60001C1630C98406A49F21951F7
:10458000C0F6000101640C98406A49F2DD61C0F692
:104590000001C1640C980168406A34310A9ABDF880
:1045A0002230FDF7C1FB002804D0FFE701208DF881
:1045B0003700B8E00C980068C16841F40071C16030
:1045C0000C9800680021012204F00EFF0C9800688E
:1045D000016841F001010160A1E00C98806A49F294
:1045E0003541C0F60001C1630C98806A49F2195147
:1045F000C0F6000101640C98806A49F2DD61C0F6E2
:104600000001C1640C980168806A3831099ABDF8CC
:104610002230FDF789FB002804D0FFE701208DF848
:10462000370080E00C980068C16841F48061C16087
:104630000C9800680421012204F0D6FE0C98006852
:10464000016841F00101016069E00C98406A49F29B
:104650003541C0F60001C1630C98406A49F2195116
:10466000C0F6000101640C98406A49F2DD61C0F6B1
:104670000001C1640C980168406A34310A9ABDF89F
:104680002230FDF751FB002804D0FFE701208DF810
:10469000370048E00C98806A49F23541C0F60001C5
:1046A000C1630C98806A49F21951C0F60001016497
:1046B0000C98806A49F2DD61C0F60001C1640C9873
:1046C0000168806A3831099ABDF82230FDF72CFB69
:1046D000002804D0FFE701208DF8370023E00C9874
:1046E0000068C16841F40071C1600C980068C1683D
:1046F00041F48061C1600C980068002101220192A0
:1047000004F072FE0C9800680421019A04F06CFE1B
:104710000C980068016841F001010160FFE700208A
:104720008DF83700FFE79DF837000EB070BD000030
:1047300080B588B00A46034606900591069890F821
:104740003E008DF81300069890F83F008DF8120097
:10475000069890F842008DF81100069890F84300F2
:104760008DF81000059800280392029317D1FFE7F7
:104770009DF81300012805D1FFE79DF811000128DD
:1047800004D0FFE701208DF81F0092E00698022177
:1047900080F83E10069880F84210FFE742E0059846
:1047A000042817D1FFE79DF81200012805D1FFE783
:1047B0009DF81000012804D0FFE701208DF81F00AC
:1047C00077E00698022180F83F10069880F84310A1
:1047D000FFE726E09DF8130001280FD1FFE79DF8C1
:1047E000120001280AD1FFE79DF81100012805D128
:1047F000FFE79DF81000012804D0FFE701208DF8A5
:104800001F0056E00698022180F83E10069880F8B6
:104810003F10069880F84210069880F84310FFE792
:10482000FFE7FFE705980028019004D0FFE7019813
:1048300004280DD019E0069800680021012204F038
:10484000D3FD06980068C16841F00201C16026E00E
:10485000069800680421012204F0C6FD069800684D
:10486000C16841F00401C16019E0069800680021A8
:104870000122009204F0B8FD069800680421009A15
:1048800004F0B2FD06980068C16841F00201C16001
:1048900006980068C16841F00401C160FFE706980E
:1048A0000068016841F00101016000208DF81F00DF
:1048B000FFE79DF81F0008B080BD000080B58EB0F6
:1048C0000A4603460D900C910C9800280B920A930F
:1048D000099004D0FFE70998042808D00EE00D984D
:1048E000006800210891089A04F07EFD14E00D98FC
:1048F00000680421002204F077FD0DE00D980068A7
:1049000000210791079A04F06FFD0D9800680421BB
:10491000079A04F069FDFFE7FFE70D980068006A59
:1049200041F21111084210D1FFE70D980068006AAA
:1049300040F24441084207D1FFE70D980068016842
:1049400021F001010160FFE7FFE7FFE70C98002875
:1049500004D0FFE70C98042853D1FFE70C980028F7
:1049600005D1FFE70D98012180F83E101FE00C985B
:10497000042806D1FFE70D98012180F83F10069129
:1049800012E00C98082806D1FFE70D98012180F865
:104990004010059105E00D98012180F84110059126
:1049A000FFE705980690FFE706980490FFE70C984C
:1049B000002805D1FFE70D98012180F842101FE083
:1049C0000C98042806D1FFE70D98012180F84310C8
:1049D000039112E00C98082806D1FFE70D980121F9
:1049E00080F84410029105E00D98012180F84510EF
:1049F0000291FFE702980390FFE703980190FFE719
:104A00000DE00D98012180F83E100D9880F83F10C0
:104A10000D9880F842100D9880F84310FFE70020B1
:104A20000EB080BD80B590B00A4603460F900E913F
:104A30000E9800280D920C9313D1FFE70F98006891
:104A400000210B910B9A04F0CFFC0F980068C1680D
:104A500021F40071C1600F98406AFCF7CDFF0A9005
:104A60003BE00E98042812D1FFE70F98006804215C
:104A7000002204F0B9FC0F980068C16821F480613D
:104A8000C1600F98806AFCF7B7FF099024E00F9887
:104A9000006800210891089A04F0A6FC0F980068AD
:104AA0000421089A04F0A0FC0F980068C16821F462
:104AB0000071C1600F980068C16821F48061C16015
:104AC0000F98406AFCF798FF0F99896A079008468B
:104AD000FCF792FF0690FFE7FFE7FFE70F980068FB
:104AE000006A41F21111084210D1FFE70F980068E7
:104AF000006A40F24441084207D1FFE70F9800687E
:104B0000016821F001010160FFE7FFE7FFE70E9870
:104B1000002804D0FFE70E98042853D1FFE70E9831
:104B2000002805D1FFE70F98012180F83E101FE013
:104B30000E98042806D1FFE70F98012180F83F1056
:104B4000059112E00E98082806D1FFE70F98012181
:104B500080F84010049105E00F98012180F8411081
:104B60000491FFE704980590FFE705980390FFE79D
:104B70000E98002805D1FFE70F98012180F8421018
:104B80001FE00E98042806D1FFE70F98012180F856
:104B90004310029112E00E98082806D1FFE70F9803
:104BA000012180F84410019105E00F98012180F85F
:104BB00045100191FFE701980290FFE702980090ED
:104BC000FFE70DE00F98012180F83E100F9880F864
:104BD0003F100F9880F842100F9880F84310FFE7BD
:104BE000002010B080BD000080B58CB00A4603469E
:104BF0000B900A910A980028099208930ED1FFE7BA
:104C00000B98006800210791079A04F0EDFB0B98C0
:104C10000068C16821F00201C1602BE00A980428F5
:104C20000DD1FFE70B9800680421002204F0DCFBA3
:104C30000B980068C16821F00401C16019E00B986D
:104C4000006800210691069A04F0CEFB0B980068DC
:104C50000421069A04F0C8FB0B980068C16821F093
:104C60000201C1600B980068C16821F00401C160B5
:104C7000FFE7FFE7FFE70B980068006A41F21111B8
:104C8000084210D1FFE70B980068006A40F24441E7
:104C9000084207D1FFE70B980068016821F0010185
:104CA0000160FFE7FFE7FFE70A98002804D0FFE76D
:104CB0000A98042853D1FFE70A98002805D1FFE796
:104CC0000B98012180F83E101FE00A98042806D1B5
:104CD000FFE70B98012180F83F10059112E00A9838
:104CE000082806D1FFE70B98012180F840100491B5
:104CF00005E00B98012180F841100491FFE704982A
:104D00000590FFE705980390FFE70A98002805D172
:104D1000FFE70B98012180F842101FE00A98042851
:104D200006D1FFE70B98012180F84310029112E0B1
:104D30000A98082806D1FFE70B98012180F8441053
:104D4000019105E00B98012180F845100191FFE7E2
:104D500001980290FFE702980090FFE70DE00B98A2
:104D6000012180F83E100B9880F83F100B9880F8D6
:104D700042100B9880F84310FFE700200CB080BD74
:104D800082B001460190009102B0704782B00146A6
:104D90000190009102B0704782B0014601900091ED
:104DA00002B0704780B584B0014602900298002896
:104DB000019104D1FFE701208DF80F0043E0029834
:104DC00090F83D00002808D1FFE70298002180F804
:104DD0003C10029800F03CF8FFE70298022180F8AE
:104DE0003D10029850F8041B00900846009904F00A
:104DF0001DFA0298012180F84610FFE70298012170
:104E000080F83E10029880F83F10029880F8401019
:104E1000029880F84110FFE7FFE70298012180F82F
:104E20004210029880F84310029880F844100298CB
:104E300080F84510FFE70298012180F83D1000201E
:104E40008DF80F00FFE79DF80F0004B080BD000053
:104E500082B001460190009102B0704780B594B0D5
:104E60000A46034612901191119800280E920D9354
:104E700005D1FFE7129890F83E000C901CE01198C5
:104E8000042805D1FFE7129890F83F000B9010E03E
:104E90001198082805D1FFE7129890F840000A9071
:104EA00004E0129890F841000A90FFE70A980B90EE
:104EB000FFE70B980C90FFE70C988DF83F001198D6
:104EC000002805D1FFE7129890F8420009901CE0F5
:104ED0001198042805D1FFE7129890F84300089034
:104EE00010E01198082805D1FFE7129890F84400C7
:104EF000079004E0129890F845000790FFE70798A4
:104F00000890FFE708980990FFE709988DF83E00A0
:104F10009DF83F00012805D1FFE79DF83E000128DC
:104F200004D0FFE701208DF84F00B8E01198002869
:104F300005D1FFE71298022180F83E101FE011987A
:104F4000042806D1FFE71298022180F83F1006914D
:104F500012E01198082806D1FFE71298022180F884
:104F60004010059105E01298022180F8411005914A
:104F7000FFE705980690FFE706980490FFE7119871
:104F8000002805D1FFE71298022180F842101FE0A7
:104F90001198042806D1FFE71298022180F84310E7
:104FA000039112E01198082806D1FFE71298022118
:104FB00080F84410029105E01298022180F8451013
:104FC0000291FFE702980390FFE703980190FFE743
:104FD000129800681199012204F006FA12980068EC
:104FE0000021C4F2010188423CD0FFE7129800681A
:104FF000B0F1804F36D0FFE71298006840F20041D0
:10500000C4F2000188422DD0FFE71298006840F6F4
:105010000001C4F20001884224D0FFE71298006822
:1050200040F60041C4F2000188421BD0FFE712980D
:10503000006840F20041C4F20101884212D0FFE74B
:105040001298006844F20001C4F20101884209D0BC
:10505000FFE71298006841F60001C4F2000188429F
:1050600012D1FFE712980068806800F007001090E6
:105070001098062807D0FFE712980068016841F0F1
:1050800001010160FFE706E012980068016841F045
:1050900001010160FFE700208DF84F00FFE79DF858
:1050A0004F0014B080BD0000B0B598B09C46964645
:1050B0000C460546169015911492ADF84E3000201E
:1050C0008DF84D0015980028CDF840C0CDF83CE093
:1050D0000E940D9505D1FFE7169890F83E000C90C0
:1050E0001CE01598042805D1FFE7169890F83F00BA
:1050F0000B9010E01598082805D1FFE7169890F856
:1051000040000A9004E0169890F841000A90FFE7EA
:105110000A980B90FFE70B980C90FFE70C988DF81E
:1051200047001598002805D1FFE7169890F842002F
:1051300009901CE01598042805D1FFE7169890F80F
:105140004300089010E01598082805D1FFE716984D
:1051500090F84400079004E0169890F845000790F6
:10516000FFE707980890FFE708980990FFE709987C
:105170008DF846009DF84700022805D0FFE79DF80E
:105180004600022804D1FFE702208DF85F009AE173
:105190009DF84700012866D1FFE79DF846000128E9
:1051A00061D1FFE71498002805D0FFE7BDF84E0055
:1051B000002804D1FFE701208DF85F0083E11598F6
:1051C000002805D1FFE71698022180F83E101FE065
:1051D0001598042806D1FFE71698022180F83F10A1
:1051E000069112E01598082806D1FFE716980221CB
:1051F00080F84010059105E01698022180F84110D2
:105200000591FFE705980690FFE706980490FFE7F1
:105210001598002805D1FFE71698022180F8421062
:105220001FE01598042806D1FFE71698022180F8A0
:105230004310039112E01598082806D1FFE716984D
:10524000022180F84410029105E01698022180F8AE
:1052500045100291FFE702980390FFE70398019041
:10526000FFE7FFE703E001208DF85F002BE1FFE798
:10527000169800681599012204F0B6F815980C28C4
:10528000009000F2BA800099DFE801F007B7B7B7E5
:1052900033B7B7B75FB7B7B78B001698406A49F214
:1052A0003541C0F60001C1631698406A49F21951B0
:1052B000C0F6000101641698406A49F2DD61C0F64B
:1052C0000001C16416980168406A3431149ABDF82F
:1052D0004E30FCF729FD002804D0FFE701208DF8AF
:1052E0005F00F0E016980068C16841F40071C16089
:1052F00087E01698806A49F23541C0F60001C16323
:105300001698806A49F21951C0F600010164169896
:10531000806A49F2DD61C0F60001C1641698016837
:10532000806A3831149ABDF84E30FCF7FDFC002835
:1053300004D0FFE701208DF85F00C4E016980068F4
:10534000C16841F48061C1605BE01698C06A49F2AF
:105350003541C0F60001C1631698C06A49F219517F
:10536000C0F6000101641698C06A49F2DD61C0F61A
:105370000001C16416980168C06A3C31149ABDF8F6
:105380004E30FCF7D1FC002804D0FFE701208DF857
:105390005F0098E016980068C16841F40061C16040
:1053A0002FE01698006B49F23541C0F60001C16349
:1053B0001698006B49F21951C0F600010164169865
:1053C000006B49F2DD61C0F60001C1641698016806
:1053D000006B4031149ABDF84E30FCF7A5FC002854
:1053E00004D0FFE701208DF85F006CE0169800689C
:1053F000C16841F48051C16003E001208DF84D0087
:10540000FFE7169800680021C4F2010188423CD0F1
:10541000FFE716980068B0F1804F36D0FFE7169886
:10542000006840F20041C4F2000188422DD0FFE73D
:105430001698006840F60001C4F20001884224D0AA
:10544000FFE71698006840F60041C4F20001884268
:105450001BD0FFE71698006840F20041C4F201013A
:10546000884212D0FFE71698006844F20001C4F2A7
:105470000101884209D0FFE71698006841F6000153
:10548000C4F20001884212D1FFE7169800688068D4
:1054900000F0070012901298062807D0FFE7169830
:1054A0000068016841F001010160FFE706E016981D
:1054B0000068016841F001010160FFE79DF84D00BF
:1054C0008DF85F00FFE79DF85F0018B0B0BD0000E9
:1054D00080B596B00A4603461490139100208DF8CB
:1054E0004B00139800280F920E9305D1FFE71498F4
:1054F00090F83E000D901CE01398042805D1FFE7BA
:10550000149890F83F000C9010E01398082805D1EB
:10551000FFE7149890F840000B9004E0149890F87E
:1055200041000B90FFE70B980C90FFE70C980D9053
:10553000FFE70D988DF843001398002805D1FFE789
:10554000149890F842000A901CE01398042805D1A2
:10555000FFE7149890F84300099010E0139808288A
:1055600005D1FFE7149890F84400089004E01498DF
:1055700090F845000890FFE708980990FFE7099820
:105580000A90FFE70A988DF842009DF84300012831
:1055900005D1FFE79DF84200012804D0FFE7012074
:1055A0008DF85700EDE01398002805D1FFE7149817
:1055B000022180F83E101FE01398042806D1FFE76F
:1055C0001498022180F83F10079112E013980828E0
:1055D00006D1FFE71498022180F84010069105E0FB
:1055E0001498022180F841100691FFE70698079071
:1055F000FFE707980590FFE71398002805D1FFE71C
:105600001498022180F842101FE01398042806D154
:10561000FFE71498022180F84310049112E01398D8
:10562000082806D1FFE71498022180F8441003915E
:1056300005E01498022180F845100391FFE70398D4
:105640000490FFE704980290FFE713980C2801905C
:1056500025D80199DFE801F0072323230E23232314
:10566000152323231C0014980068C16841F002012F
:10567000C16018E014980068C16841F00401C1607D
:1056800011E014980068C16841F00801C1600AE0A7
:1056900014980068C16841F01001C16003E0012066
:1056A0008DF84B00FFE79DF84B00002864D1FFE721
:1056B000149800681399012203F096FE149800686C
:1056C0000021C4F2010188423CD0FFE71498006831
:1056D000B0F1804F36D0FFE71498006840F20041E7
:1056E000C4F2000188422DD0FFE71498006840F60C
:1056F0000001C4F20001884224D0FFE7149800683A
:1057000040F60041C4F2000188421BD0FFE7149824
:10571000006840F20041C4F20101884212D0FFE764
:105720001498006844F20001C4F20101884209D0D3
:10573000FFE71498006841F60001C4F200018842B6
:1057400012D1FFE714980068806800F007001190FC
:105750001198062807D0FFE714980068016841F007
:1057600001010160FFE706E014980068016841F05C
:1057700001010160FFE7FFE79DF84B008DF857003E
:10578000FFE79DF8570016B080BD000080B58AB0D5
:105790000A460346099008910998006808994FF055
:1057A000000C07926246069303F01EFEFFE709987D
:1057B0000068006A41F21111084210D1FFE7099810
:1057C0000068006A40F24441084207D1FFE70998A7
:1057D0000068016821F001010160FFE7FFE7FFE7D2
:1057E0000898002805D1FFE70998012180F83E10AC
:1057F0001FE00898042806D1FFE70998012180F8E6
:105800003F10059112E00898082806D1FFE7099893
:10581000012180F84010049105E00998012180F8E9
:1058200041100491FFE704980590FFE70598039065
:10583000FFE70898002805D1FFE70998012180F8C3
:1058400042101FE00898042806D1FFE709980121BB
:1058500080F84310029112E00898082806D1FFE76B
:105860000998012180F84410019105E0099801216F
:1058700080F845100191FFE701980290FFE7029838
:105880000090FFE700200AB080BD000080B592B014
:105890000A4603461190109100208DF83F0011999F
:1058A0000968DDF840C00E9008466146DDF838C052
:1058B0000D9262460C9303F097FD10980C280B9004
:1058C00039D80B99DFE801F0073737371337373707
:1058D0001F3737372B0011980068C16821F4007119
:1058E000C1601198406AFCF787F80A9027E0119888
:1058F0000068C16821F48061C1601198806AFCF77A
:105900007BF809901BE011980068C16821F40061E0
:10591000C1601198C06AFCF76FF808900FE0119809
:105920000068C16821F48051C1601198006BFCF7D8
:1059300063F8079003E001208DF83F00FFE79DF832
:105940003F0000286DD1FFE7FFE711980068006A6B
:1059500041F21111084210D1FFE711980068006A66
:1059600040F24441084207D1FFE7119800680168FE
:1059700021F001010160FFE7FFE7FFE71098002831
:1059800005D1FFE71198012180F83E101FE0109823
:10599000042806D1FFE71198012180F83F100691F5
:1059A00012E01098082806D1FFE71198012180F82D
:1059B0004010059105E01198012180F841100591F2
:1059C000FFE705980690FFE706980490FFE7109818
:1059D000002805D1FFE71198012180F842101FE04F
:1059E0001098042806D1FFE71198012180F8431090
:1059F000039112E01098082806D1FFE711980121C1
:105A000080F84410029105E01198012180F84510BA
:105A10000291FFE702980390FFE703980190FFE7E8
:105A2000FFE79DF83F0012B080BD000080B58CB04C
:105A30000A4603460B900A9100208DF827000A9829
:105A40000C2808920793069025D80699DFE801F004
:105A5000072323230E232323152323231C000B9822
:105A60000068C16821F00201C16018E00B9800686D
:105A7000C16821F00401C16011E00B980068C168A1
:105A800021F00801C1600AE00B980068C16821F0AC
:105A90001001C16003E001208DF82700FFE79DF8A9
:105AA0002700002873D1FFE70B9800680A990022AD
:105AB00003F09AFCFFE70B980068006A41F21111AD
:105AC000084210D1FFE70B980068006A40F2444199
:105AD000084207D1FFE70B980068016821F0010137
