:020000040800F2
:100000003056002059020008BD330008993100081D
:10001000B93300087D0500084D3C000800000000D1
:10002000000000000000000000000000A1340008F3
:10003000C105000800000000313400080135000847
:1000400073020008730200087302000873020008BC
:1000500073020008730200087302000873020008AC
:10006000730200087302000873020008730200089C
:10007000730200087302000873020008730200088C
:10008000730200087302000873020008730200087C
:10009000810500089105000873020008730200083A
:1000A000730200087302000873020008730200085C
:1000B000730200087302000873020008730200084C
:1000C000730200087302000873020008730200083C
:1000D0007302000873020008730200082D3C000838
:1000E000730200087302000873020008730200081C
:1000F000730200087302000873020008730200080C
:1001000073020008730200087302000873020008FB
:100110007302000873020008F1350008730200083A
:1001200073020008730200087302000873020008DB
:1001300073020008730200087302000873020008CB
:10014000A1050008B1050008730200087302000849
:100150007302000873020008730200083D3C0008A7
:10016000730200087302000873020008730200089B
:100170007302000873020008730200080000000008
:10018000730200087302000800F002F800F054F84F
:1001900014A696E8000CB244B344DA4501D100F04D
:1001A0004BF8BAE80F000FA696E83000A5EB04055F
:1001B00004EB0607AAEB0704A7F101074FEA1515A0
:1001C0004FEA3414A4F10104AC4201D300F034F836
:1001D00013F0010F18BFFB1A43F0010300F001F800
:1001E000DBE71847EC6B00000C6C0000103A24BFF2
:1001F00078C878C1FAD8520724BF30C830C144BF8C
:1002000004680C6070470000704700000023002461
:1002100000250026103A28BF78C1FBD8520728BF16
:1002200030C148BF0B6070471FB506F079FD00F084
:1002300023F91FBD10B510BD00F06CF91146FFF792
:10024000F3FF03F03FFF00F08AF903B4FFF7F2FF7A
:1002500003BC00F059F900000948804709480047ED
:10026000FEE7FEE7FEE7FEE7FEE7FEE7FEE7FEE766
:10027000FEE7FEE704480549054A064B70470000C3
:10028000DD3500088901000830500020305600207C
:10029000305200203052002053EA020C00F06980F6
:1002A0002DE9F04B4FF00006002B1FBFB3FA83F58A
:1002B00003FA05F424FA05F65E4012BF1643B2FABB
:1002C00082F502FA05F4C5F120051EBF22FA05FCED
:1002D00044EA0C04203556EA044C4FEA144418BF93
:1002E000641C4FF000084FF00009904271EB030CC2
:1002F00039D3002919BFB1FA81F701FA07F6B0FA2C
:1003000080F700FA07F6C7F120071EBF20FA07FCA6
:1003100046EA0C062037B6FBF4FCA7EB0507103FB6
:1003200007F01F0BCBF120062CFA06F60CFA0BFB9C
:1003300044BFB3460026202FA4BF5E464FF0000BFB
:100340005BEA060C08BF4FF0010B19EB0B0948EBF9
:100350000608ABFB027C06FB02CC0BFB03CCC01BEC
:1003600071EB0C01C1E70B46024641464846BDE829
:10037000F08B13B5084318BF4FF0FF300146AFF3C1
:100380000080BDE81C407047032A40F2308010F026
:10039000030C00F0158011F8013BBCF1020F624420
:1003A00098BF11F801CB00F8013B38BF11F8013BB1
:1003B000A2F1040298BF00F801CB38BF00F8013B5E
:1003C00011F0030300F06E80083AC0F0088051F885
:1003D000043B083A51F804CBA0E80810F5E7121DD9
:1003E0005CBF51F8043B40F8043BAFF30080D207F8
:1003F00024BF11F8013B11F801CB48BF11F8012BC4
:1004000024BF00F8013B00F801CB48BF00F8012BE6
:10041000704702F0FF0343EA032242EA024200F07F
:1004200002B84FF0000200B51346944696462039B4
:1004300022BFA0E80C50A0E80C50B1F12001BFF49D
:10044000F7AF090728BFA0E80C5048BF0CC05DF803
:1004500004EB890028BF40F8042B08BF704748BF51
:1004600020F8022B11F0804F18BF00F8012B7047C5
:10047000704770477047000008487CB5784400908A
:1004800007487844009C0546019004E02046016836
:1004900008448047241DAC42F8D17CBD706900003F
:1004A0007269000010B5203AC0F00B80B1E8185016
:1004B000A0E81850B1E81850A0E81850203ABFF44E
:1004C000F5AF5FEA027C24BFB1E81850A0E81850ED
:1004D00044BF18C918C0BDE810405FEA827C24BF41
:1004E00051F8043B40F8043B08BF7047D20728BFCF
:1004F00031F8023B48BF11F8012B28BF20F8023B1E
:1005000048BF00F8012B704701491820ABBEFEE739
:1005100026000200754600F02BF8AE46050069463D
:10052000534620F00700854618B020B5FFF7A2FE1D
:10053000BDE820404FF000064FF000074FF00008E4
:100540004FF0000BAC46ACE8C009ACE8C009ACE821
:10055000C009ACE8C00921F007018D46704710B50D
:100560000446AFF300802046BDE81040FFF76DBEA3
:10057000004870471000002070470000FFE7FEE7CA
:1005800080B540F2B850C2F2000000F0D5FA80BD4C
:1005900080B540F2B850C2F2000000F0CDFA80BD44
:1005A00080B540F2E050C2F2000000F0C5FA80BD14
:1005B00080B540F2E050C2F2000000F0BDFA80BD0C
:1005C0007047000072B6FFE7FEE7000084B00290BB
:1005D0000191029890F820008DF803009DF8030027
:1005E000012805D0FFE79DF8030002280AD1FFE7A4
:1005F000019A0298016848691043486100208DF80B
:100600000F0008E00299486A40F480204862012007
:100610008DF80F00FFE79DF80F0004B07047000051
:1006200088B00690059104920393069890F82000F4
:100630008DF807000698006880680090059880682B
:1006400008B9FFE700E0FFE79DF80700012806D0A2
:10065000FFE79DF80700022840F08080FFE79DF843
:100660000300400700280CD4FFE79DF803000007B3
:10067000002806D4FFE79DF80300C006002864D5D3
:10068000FFE70098C0F301600290029901208840C2
:10069000039908600598806868B9FFE705980168C4
:1006A000C06840EA415006990968029A01EB0211BC
:1006B000C1F880010EE005994A688868C96840EA77
:1006C000C200084306990968029A01EB0211C1F8B9
:1006D0008001FFE70598006906990968029A01EB15
:1006E0000211C1F884010598007D01280CD1FFE7B3
:1006F00006980068029900EB0111D1F8840140F4DA
:100700008070C1F88401FFE7049840680699096881
:10071000029A01EB0211C1F88C0104980068069955
:100720000968029A01EB0211C1F888010698006875
:10073000029900EB0111D1F8800140F00100C1F8ED
:10074000800100208DF81F0011E00699486A40F4EE
:100750000010486201208DF81F0008E00699486AE1
:1007600040F48020486201208DF81F00FFE79DF8CB
:100770001F0008B07047000086B0049003910498F1
:1007800000680190049890F820008DF803009DF80F
:100790000300012806D0FFE79DF80300022840F07F
:1007A000B080FFE746F20040C4F2000001900199DA
:1007B000D1F8000240F00100C1F800020199D1F81F
:1007C000000220F47C50C1F800020398426A0199AB
:1007D000D1F8000240EA0220C1F800020398406903
:1007E00000F01F01012088400290029A0199D1F87F
:1007F0001C029043C1F81C020398C069F0B9FFE7DE
:10080000029A0199D1F80C029043C1F80C02039AA4
:100810009088D168526940EA0140019901EBC20118
:10082000C1F84002039A10889168526940EA014079
:10083000019901EBC201C1F84402FFE70398C069C6
:1008400001281ED1FFE7029A0199D1F80C0210434A
:10085000C1F80C02039A90881168526940EA01407D
:10086000019901EBC201C1F84002039A9089916895
:10087000526940EA0140019901EBC201C1F844020A
:10088000FFE70398806940B9FFE7029A0199D1F820
:1008900004029043C1F8040207E0029A0199D1F8DA
:1008A00004021043C1F80402FFE70398006940B94D
:1008B000FFE7029A0199D1F814029043C1F814029B
:1008C00007E0029A0199D1F814021043C1F814020A
:1008D000FFE70398006A012808D1FFE7029A01990F
:1008E000D1F81C021043C1F81C02FFE70199D1F8AE
:1008F000000220F00100C1F8000200208DF817006E
:1009000008E00499486A40F48020486201208DF88C
:100910001700FFE79DF8170006B0704781B0009000
:1009200001B0704786B0049003910292019304983D
:1009300090F820008DF803009DF80300012806D0F0
:10094000FFE79DF80300022840F0E880FFE70398E6
:1009500080B9FFE704980068C068800748B9FFE7DE
:100960000499486A40F40010486201208DF817008D
:10097000DDE00FE0049800680069800748B9FFE7F0
:100980000499486A40F40010486201208DF817006D
:10099000CDE0FFE704980068039900EB0110D0F860
:1009A000B00100F00400029988600298806858B98C
:1009B000FFE704980068039900EB0110D0F8B0013C
:1009C000400D029908600AE004980068039900EB62
:1009D0000110D0F8B001C00802994860FFE7049800
:1009E0000068039900EB0110D0F8B00100F002009C
:1009F0000299C86004980068039900EB0110D0F8D0
:100A0000B40100F00F00082804D3FFE70299082082
:100A100008610BE004980068039900EB0110D0F81E
:100A2000B40100F00F0002990861FFE70498006824
:100A3000039900EB0110D0F8B40180B2000A0299CA
:100A4000886104980068039900EB0110D0F8B401A4
:100A5000000C0299486104980068039900EB0110AA
:100A6000D0F8B8010199087004980068039900EB68
:100A70000110D0F8B801000A019948700498006884
:100A8000039900EB0110D0F8B801000C01998870AF
:100A900004980068039900EB0110D0F8B801000E2B
:100AA0000199C87004980068039900EB0110D0F810
:100AB000BC010199087104980068039900EB0110CA
:100AC000D0F8BC01000A01994871049800680399A4
:100AD00000EB0110D0F8BC01000C0199887104985A
:100AE0000068039900EB0110D0F8BC01000E0199D9
:100AF000C871039838B9FFE704980168C86840F0E6
:100B00002000C86006E004980168086940F02000F1
:100B10000861FFE700208DF8170008E00499486A93
:100B200040F48020486201208DF81700FFE79DF80F
:100B3000170006B07047000080B58AB00990002009
:100B40000890099800684069079009980068406813
:100B50000690099800688068059009980068C06848
:100B600004900998006800690390099800688069FA
:100B700002909DF81C00C007002800F09480FFE759
:100B80009DF81400C00758B3FFE7099801680120D9
:100B900088609DF814008007002804D5FFE70998B5
:100BA00000F068FC1BE09DF814004007002805D504
:100BB000FFE7089840F4006008900FE09DF81400EB
:100BC0000007002805D5FFE7089840F480500890FA
:100BD00003E0099800F04AFCFFE7FFE7FFE7FFE7C3
:100BE0009DF81500C00760B3FFE7099801684FF44E
:100BF000807088609DF815008007002804D5FFE705
:100C0000099800F03FFC1BE09DF815004007002804
:100C100005D5FFE7089840F4005008900FE09DF8D4
:100C200015000007002805D5FFE7089840F480402C
:100C3000089003E0099800F021FCFFE7FFE7FFE7D9
:100C4000FFE79DF81600C00760B3FFE70998016849
:100C50004FF4803088609DF816008007002804D586
:100C6000FFE7099800F016FC1BE09DF8160040070E
:100C7000002805D5FFE7089840F4004008900FE0F1
:100C80009DF816000007002805D5FFE7089840F4F6
:100C90008030089003E0099800F0F8FBFFE7FFE7D9
:100CA000FFE7FFE7FFE79DF81C000007002810D5CD
:100CB000FFE79DF81000C006002809D5FFE7089857
:100CC00040F400700890099801681020C860FFE7A0
:100CD000FFE79DF81C00400700280FD5FFE79DF8AF
:100CE00010000007002808D5FFE7099801680820D0
:100CF000C860099800F0E2FAFFE7FFE79DF81C00E2
:100D0000800700280BD5FFE709980068C0688007B6
:100D100020B1FFE7099800F0D5FAFFE7FFE79DF85B
:100D20001C004006002810D5FFE79DF80C00C00607
:100D3000002809D5FFE7089840F4806008900998DA
:100D4000016810200861FFE7FFE79DF81C0080069E
:100D500000280FD5FFE79DF80C000007002808D5F4
:100D6000FFE70998016808200861099800F02CFB4A
:100D7000FFE7FFE79DF81C00C00600280BD5FFE742
:100D8000099800680069800720B1FFE7099800F022
:100D90001FFBFFE7FFE79DF81E00800700280FD527
:100DA000FFE79DF81800C006002808D5FFE709985E
:100DB000016810204860099800F00EFBFFE7FFE78C
:100DC0009DF81E00C00778B1FFE79DF818000007E6
:100DD000002808D5FFE709980168082048600998AD
:100DE00000F05CFBFFE7FFE79DF81D000006002810
:100DF00040F18D80FFE79DF818004007002840F182
:100E00008180FFE79DF81D00C00750B1FFE79DF806
:100E10000800C00728B1FFE7089840F001000890DB
:100E2000FFE79DF81D00800700280BD5FFE79DF820
:100E300008008007002805D5FFE7089840F0020069
:100E40000890FFE79DF81D00400700280BD5FFE73D
:100E50009DF808004007002805D5FFE7089840F0F6
:100E600004000890FFE79DF81D000007002848D502
:100E7000FFE79DF8080010F0700F42D0FFE70298DE
:100E800000F0700001460191102814D0FFE701988E
:100E9000202815D0FFE70198302816D0FFE70198E9
:100EA000402817D0FFE70198502818D0FFE7019895
:100EB000602819D01DE0089840F00800089019E05B
:100EC000089840F01000089014E0089840F02000C6
:100ED00008900FE0089840F0400008900AE0089859
:100EE00040F08000089005E0089840F48070089079
:100EF00000E0FFE709980168886920F070008861C8
:100F0000FFE7FFE70998016804204860FFE70898B9
:100F100048B1FFE7089A0999486A1043486209985E
:100F2000FFF7FCFCFFE70AB080BD000080B584B08D
:100F30000290029820B9FFE701208DF80F00E0E051
:100F4000029890F8200020B9FFE7029800F0DEF840
:100F5000FFE702980168086840F00100086000F0AF
:100F600015FD0190FFE7029800684068C007A8B926
:100F7000FFE700F00BFD0199401A0B280DD3FFE7A6
:100F80000299486A40F4003048620299052081F8CD
:100F9000200001208DF80F00B3E0E4E7029801681B
:100FA000086820F00200086000F0F0FC0190FFE704
:100FB0000298006840688007002815D5FFE700F018
:100FC000E5FC0199401A0B280DD3FFE70299486A06
:100FD00040F4003048620299052081F82000012089
:100FE0008DF80F008DE0E3E70298007E012807D11D
:100FF000FFE702980168086840F08000086006E09A
:1010000002980168086820F080000860FFE70298F5
:10101000407E012807D1FFE702980168086840F088
:101020004000086006E002980168086820F040006F
:101030000860FFE70298807E012807D1FFE7029849
:101040000168086840F02000086006E00298016826
:10105000086820F020000860FFE70298C07E0128A1
:1010600007D1FFE702980168086820F010000860C7
:1010700006E002980168086840F010000860FFE789
:101080000298007F012807D1FFE7029801680868ED
:1010900040F00800086006E002980168086820F047
:1010A00008000860FFE70298407F012807D1FFE7AA
:1010B00002980168086840F00400086006E00298A1
:1010C0000168086820F004000860FFE7029B1968C7
:1010D0005A689868D3F80CC040EA0C00D3F810C0E6
:1010E00040EA0C005B691843013A1043C861029959
:1010F00000204862029A012182F820108DF80F002A
:10110000FFE79DF80F0004B080BD000080B594B0EB
:10111000139000201290119010900F900E90139841
:10112000006846F20041C4F20001884254D1FFE752
:1011300040F27000C2F200000168013101600068F5
:10114000012812D1FFE7FFE700200D9043F6400091
:10115000C4F20200016841F000710160006800F013
:1011600000700D900D98FFE7FFE7FFE700200C905F
:1011700043F63000C4F20200016841F00101016051
:10118000006800F001000C900C98FFE74FF4C0508D
:101190000E9002200F9000200790109003201190D5
:1011A000092012900020C4F202000EA900F012FAE9
:1011B000079A142005900521069100F0C5FC0598BA
:1011C00000F0B8FC0699079A1520089000F0BCFCC6
:1011D000089800F0AFFC6FE01398006846F6000135
:1011E000C4F20001884266D1FFE7FFE700200B90C0
:1011F00043F64000C4F20200016841F080610160E2
:10120000006800F080600B900B98FFE740F27000E0
:10121000C2F200000168013101600068012812D1AA
:10122000FFE7FFE700200A9043F64000C4F2020007
:10123000016841F000710160006800F000700A90E0
:101240000A98FFE7FFE7FFE70020099043F6300028
:10125000C4F20200016841F002010160006800F080
:10126000020009900998FFE74FF440500E900220C9
:101270000F900020039010900320119009201290ED
:1012800040F20040C4F202000EA900F0A3F9039A54
:10129000402001900521029100F056FC019800F0D9
:1012A00049FC0299039A4120049000F04DFC0498F7
:1012B00000F040FCFFE7FFE714B080BD81B0009074
:1012C00001B0704780B592B01190119840F2B851BA
:1012D000C2F20001884236D1FFE740F2B850C2F2B4
:1012E000000040F2A253C2F2000300210AAAFFF755
:1012F00019FB18B1FFE7FFF765F9FFE700208DF84C
:101300002700FFE79DF8270040F2A051C2F200013C
:101310000978884216DAFFE79DF8271040F250500E
:10132000C2F2000050F8210001684A6840F2A25160
:10133000C2F200019047FFE79DF8270001308DF8C9
:101340002700DFE73EE0119840F2E051C2F20001D1
:10135000884236D1FFE740F2E050C2F2000040F28E
:10136000AA53C2F20003002102AAFFF7DBFA18B168
:10137000FFE7FFF727F9FFE700208DF80700FFE7F9
:101380009DF8070040F2A151C2F20001097888429D
:1013900016DAFFE79DF8071040F27850C2F200001D
:1013A00050F8210001684A6840F2AA51C2F20001D7
:1013B0009047FFE79DF8070001308DF80700DFE751
:1013C000FFE7FFE712B080BD81B0009001B0704729
:1013D00081B0009001B0704781B0009001B07047BB
:1013E00080B584B00290029890F8200001282FD197
:1013F000FFE70299022081F820000298016808683E
:1014000020F00100086000F0C1FA0190FFE70298A7
:1014100000684068C007A8B1FFE700F0B7FA01997B
:10142000401A0B280DD3FFE70299486A40F40030B8
:1014300048620299052081F8200001208DF80F00F4
:101440000FE0E4E70299002048628DF80F0008E001
:101450000299486A40F40020486201208DF80F008C
:10146000FFE79DF80F0004B080BD000081B0009040
:1014700001B0704781B0009001B0704781B000901A
:1014800001B0704781B0009001B0704781B000900A
:1014900001B0704781B0009001B0704781B00090FA
:1014A00001B0704780B584B002900298806D0190C1
:1014B00000F06CFA0090029890F8350002280DD0E8
:1014C000FFE7029980204865FFE70299002081F834
:1014D0003400FFE701208DF80F0055E00298016805
:1014E000086820F01600086002980168486920F03A
:1014F000800048610298006C20B9FFE70298806C78
:1015000038B1FFE702980168086820F00800086019
:10151000FFE702980168086820F001000860FFE713
:10152000029800680068C007C8B1FFE700F02EFA13
:101530000099401A062811D3FFE702992020486538
:101540000299032081F83500FFE70299002081F815
:101550003400FFE703208DF80F0015E0E0E7029864
:10156000C16D3F208840019988600299012081F86F
:101570003500FFE70299002081F83400FFE7FFE71C
:1015800000208DF80F00FFE79DF80F0004B080BD2C
:1015900082B00090009890F83500022807D0FFE74D
:1015A00000998020486501208DF807000EE0009921
:1015B000052081F8350000980168086820F00100D6
:1015C0000860FFE700208DF80700FFE79DF807009F
:1015D00002B070478EB00D900C9100200A900990D7
:1015E00008900B90FFE70B980F2800F2CC81FFE7E3
:1015F0000B99012088400A900C9800680A990840CD
:10160000099009980A99884240F0B881FFE70C9840
:10161000406800F00300012807D0FFE70C984068FD
:1016200000F0030002282FD1FFE70D988068089092
:101630000B984100032000FA01F1089888430890B4
:101640000C98C0680B99490000FA01F1089808430A
:10165000089008980D9988600D98406808900B993B
:10166000012000FA01F10898884308900C9840681E
:10167000C0F300100B9900FA01F108980843089094
:1016800008980D994860FFE70C98406800F0030047
:10169000032818D0FFE70D98C06808900B98410008
:1016A000032000FA01F10898884308900C9880689C
:1016B0000B99490000FA01F108980843089008982E
:1016C0000D99C860FFE70C98406800F003000228FD
:1016D00026D1FFE70D980B996FF0030202EA510142
:1016E0000844006A08900B9800F0070081000F2062
:1016F00000FA01F10898884308900C9800690B994A
:1017000001F00701890000FA01F1089808430890E8
:1017100008980D990B9B02EA530211440862FFE7F7
:101720000D98006808900B984100032000FA01F121
:101730000898884308900C98406800F003000B99C3
:10174000490000FA01F108980843089008980D999B
:1017500008600C9880798007002800F00E81FFE770
:10176000FFE70020079043F64400C4F2020001683E
:1017700041F480410160006800F4804007900798C0
:10178000FFE70B9820F0030043F60801C4F20101C3
:10179000405808900B9800F0030081000F2000FAD9
:1017A00001F10898884308900D980021C4F20201C5
:1017B000884203D1FFE7002006905EE00D9840F2DA
:1017C0000041C4F20201884203D1FFE701200590E5
:1017D00050E00D9840F60001C4F20201884203D1A6
:1017E000FFE70220049042E00D9840F60041C4F269
:1017F0000201884203D1FFE70320039034E00D98F3
:1018000041F20001C4F20201884203D1FFE7042043
:10181000029026E00D9841F20041C4F20201884294
:1018200003D1FFE70520019018E00D9841F6000173
:10183000C4F20201884203D1FFE7062000900AE0CB
:101840000D9941F60042C4F202020820914208BFFD
:1018500007200090FFE700980190FFE701980290B1
:10186000FFE702980390FFE703980490FFE70498CE
:101870000590FFE705980690FFE70698C0B20B9920
:1018800001F00301890000FA01F10898084308906B
:1018900008980B9921F0030143F60802C4F20102F3
:1018A000885043F60840C4F2010000680890099986
:1018B0000898884308900C988079C006002805D5C0
:1018C000FFE70999089808430890FFE7089843F64E
:1018D0000841C4F20101086043F60C40C4F2010063
:1018E0000068089009990898884308900C988079B6
:1018F0008006002805D5FFE7099908980843089055
:10190000FFE7089843F60C41C4F20101086043F672
:101910000440C4F2010000680890099908988843BF
:1019200008900C9880798007002805D5FFE7099971
:10193000089808430890FFE7089843F60441C4F26A
:101940000101086043F60040C4F2010000680890FD
:1019500009990898884308900C988079C00728B1A5
:10196000FFE70999089808430890FFE7089843F6AD
:101970000041C4F201010860FFE7FFE7FFE70B98B1
:1019800001300B902FE60EB07047000044F6540073
:10199000C2F200000068704740F20400C2F200008A
:1019A000027844F65401C2F200010868104408604D
:1019B0007047000080B543F60041C4F20201086898
:1019C00040F400700860086840F4806008600868AF
:1019D00040F480700860032000F0D0F80F2000F081
:1019E00005F800F07BF8002080BD000080B58CB0C9
:1019F0000B90002004900390FFE70020009043F636
:101A00004000C4F20200016841F01001016000686A
:101A100000F0100000900098FFE706A802A900F06F
:101A2000E7F909980490049820B9FFE700F010FA4C
:101A3000059004E000F00CFA40000590FFE70598DF
:101A40004DF68361C4F21B31A0FB01014FF0FF3062
:101A500000EB9140039040F20860C2F2000041F2B6
:101A60000001C4F20001016040F2E731C160039956
:101A70004160002101618160816100F0E9FD8DF824
:101A800007009DF8070028BBFFE740F20860C2F29C
:101A9000000000F02FFE8DF807009DF80700C0B988
:101AA000FFE7362000F046F80B980F280CD8FFE728
:101AB0000B993620002200F047F80B9840F20801FD
:101AC000C2F20001086003E001208DF80700FFE783
:101AD000FFE7FFE79DF807000CB080BD80B582B03E
:101AE000FFE70020019043F64400C4F202000168C1
:101AF00041F480410160006800F480400190019849
:101B0000FFE7FFE70020009043F64000C4F2020028
:101B1000016841F080510160006800F08050009041
:101B20000098FFE76FF001000F21002200F00CF891
:101B300002B080BD80B582B08DF807009DF9070026
:101B400002F00CFA02B080BD80B586B08DF81700A7
:101B5000049103920020029002F018FA02909DF97D
:101B60001700019002980499039A01F029FC01469C
:101B7000019802F013FA06B080BD000080B582B073
:101B80000190019802F04EFA02B080BD80B584B099
:101B900002900191029820B9FFE701208DF80F0013
:101BA00021E1019843F60041C4F20201096801F005
:101BB0000701884212D9FFE7019943F60040C4F2B9
:101BC00002000170006800F007000199884204D00B
:101BD000FFE701208DF80F0005E1FFE7029800788C
:101BE000800700282AD5FFE70298007840070028E0
:101BF00009D5FFE743F60801C4F20201086840F482
:101C0000E0500860FFE7029800780007002809D537
:101C1000FFE743F60801C4F20201086840F460409F
:101C20000860FFE743F60801C4F20201086820F0EB
:101C3000F000029A926810430860FFE7029800786B
:101C4000C00700286ED0FFE702984068012811D134
:101C5000FFE743F60000C4F20200006800F4003120
:101C60000020B0EB514F04D1FFE701208DF80F00A9
:101C7000B9E02CE002984068022805D0FFE70298FE
:101C80004068032811D1FFE743F60000C4F20200C8
:101C9000006800F000710020B0EB516F04D1FFE745
:101CA00001208DF80F009EE010E043F60000C4F222
:101CB0000200006800F002010020B0EB510F04D1D7
:101CC000FFE701208DF80F008DE0FFE7FFE743F607
:101CD0000801C4F20201086820F00300029A526869
:101CE00010430860FFF752FE0090FFE743F608003C
:101CF000C4F20200006800F00C0002994968B0EBE1
:101D0000810F0ED0FFE7FFF741FE0099401A41F224
:101D10008931884204D3FFE703208DF80F0062E089
:101D2000E4E7FFE7019843F60041C4F202010968C5
:101D300001F00701884212D2FFE7019943F6004003
:101D4000C4F202000170006800F0070001998842A7
:101D500004D0FFE701208DF80F0044E0FFE7029870
:101D60000078400700280CD5FFE743F60801C4F2CD
:101D70000201086820F4E050029AD268104308601B
:101D8000FFE702980078000700280DD5FFE743F62B
:101D90000801C4F20201086820F46040029A126946
:101DA00040EAC2000860FFE700F076F843F6080159
:101DB000C4F202010968C9B20A0946F63A51C0F6EE
:101DC0000001895CC84040F20001C2F200010860D5
:101DD00040F20800C2F200000068FFF707FE002092
:101DE0008DF80F00FFE79DF80F0004B080BD0000E4
:101DF00082B00190009101990F20086043F608001D
:101E0000C4F20200016801F00301019A5160016807
:101E100001F0F001019A9160016801F4E051019A2A
:101E2000D160006800F46040C0080199086143F681
:101E30000040C4F20200006800F00700009908604A
:101E400002B0704740F20000C2F200000068704724
:101E500080B5FFF7F7FF43F60801C4F202010968F5
:101E6000C1F3822246F64A51C0F60001895CC8409F
:101E700080BD000080B5FFF7E5FF43F60801C4F21E
:101E80000201096889B24A0B46F64A51C0F60001C0
:101E9000895CC84080BD000080B586B000200590F8
:101EA00004900390029043F60800C4F20200006818
:101EB00000F00C000146019140B1FFE701980428B1
:101EC0000AD0FFE7019808280CD04FE042F200400A
:101ED000C0F2F40002904FE041F20020C0F27A001C
:101EE000029049E043F60400C4F20200016801F0E8
:101EF0003F01059100684002002813D5FFE743F633
:101F00000400C4F202000068C0F3881041F200210E
:101F1000C0F27A01A0FB0101059A0023FEF7BCF98B
:101F2000049012E043F60400C4F202000068C0F31B
:101F3000881042F20041C0F2F401A0FB0101059AB1
:101F40000023FEF7A9F90490FFE743F60400C4F26A
:101F50000200006800F44031022000EBD130039011
:101F600004980399B0FBF1F0029005E042F20040C2
:101F7000C0F2F4000290FFE7029806B080BD0000B6
:101F800080B586B00490049820B9FFE701208DF851
:101F9000170050E304980078C007002800F0A580DF
:101FA000FFE743F60800C4F20200006800F00C00EE
:101FB000042813D0FFE743F60800C4F202000068CB
:101FC00000F00C0008281ED1FFE743F60400C4F21D
:101FD000020000684002002815D5FFE743F6000024
:101FE000C4F20200006800F400310020B0EB514F51
:101FF00008D0FFE70498406820B9FFE701208DF87A
:10200000170018E370E0FFE704984068B0F5803FE0
:1020100009D1FFE743F60001C4F20201086840F469
:102020008030086020E004984068B0F5A02F0DD102
:10203000FFE743F60001C4F20201086840F4802083
:102040000860086840F4803008600CE043F6000146
:10205000C4F20201086820F480300860086820F4A7
:1020600080200860FFE7FFE7FFE704984068E8B1D9
:10207000FFE7FFF78BFC0390FFE743F60000C4F295
:102080000200006800F400310020B0EB514F0CD189
:10209000FFE7FFF77BFC0399401A652804D3FFE7AD
:1020A00003208DF81700C6E2E7E71CE0FFF76EFC9F
:1020B0000390FFE743F60000C4F20200006800F45A
:1020C00000310020B0EB514F0CD0FFE7FFF75EFC72
:1020D0000399401A652804D3FFE703208DF8170001
:1020E000A9E2E7E7FFE7FFE7FFE70498007880074A
:1020F000002840F19680FFE743F60800C4F2020092
:10210000006810F00C0F13D0FFE743F60800C4F28C
:102110000200006800F00C0008282CD1FFE743F60D
:102120000400C4F2020000684002002823D4FFE744
:1021300043F60000C4F20200006800F00201002033
:10214000B0EB510F09D0FFE70498C068012804D014
:10215000FFE701208DF817006DE243F60001C4F29D
:102160000201086820F0F800049A126940EAC200EF
:102170000860FFE754E00498C06870B3FFE70021EF
:10218000C4F2472101200860FFF700FC0390FFE73D
:1021900043F60000C4F20200006800F002010020D3
:1021A000B0EB510F0CD1FFE7FFF7F0FB0399401A9A
:1021B000032804D3FFE703208DF817003BE2E7E78D
:1021C00043F60001C4F20201086820F0F800049A06
:1021D000126940EAC200086021E00021C4F24721F0
:1021E00000200860FFF7D2FB0390FFE743F60000F2
:1021F000C4F20200006800F002010020B0EB510FB1
:102200000CD0FFE7FFF7C2FB0399401A032804D361
:10221000FFE703208DF817000DE2E7E7FFE7FFE790
:10222000FFE704980078000700284BD5FFE70498E3
:10223000406918B3FFE740F68061C4F247210120EE
:102240000860FFF7A3FB0390FFE743F67400C4F2B6
:102250000200006800F002010020B0EB510F0CD129
:10226000FFE7FFF793FB0399401A032804D3FFE726
:1022700003208DF81700DEE1E7E722E040F68061F9
:10228000C4F2472100200860FFF780FB0390FFE7BE
:1022900043F67400C4F20200006800F0020100205E
:1022A000B0EB510F0CD0FFE7FFF770FB0399401A1A
:1022B000032804D3FFE703208DF81700BBE1E7E70D
:1022C000FFE7FFE7049800784007002840F1CE8040
:1022D000FFE700208DF8070043F64000C4F202003B
:1022E0000068C000002815D4FFE7FFE70020009039
:1022F00043F64000C4F20200016841F080510160E1
:10230000006800F0805000900098FFE701208DF8F1
:102310000700FFE747F20000C4F200000068C005B4
:10232000002822D4FFE747F20001C4F20001086848
:1023300040F480700860FFF729FB0390FFE747F245
:102340000000C4F200000068C00500280CD4FFE7BC
:10235000FFF71CFB0399401A032804D3FFE703206F
:102360008DF8170067E1EAE7FFE7FFE70498806868
:10237000012809D1FFE743F67001C4F202010868A1
:1023800040F0010008601FE00498806805280DD126
:10239000FFE743F67001C4F20201086840F0040050
:1023A0000860086840F0010008600CE043F6700126
:1023B000C4F20201086820F001000860086820F0FB
:1023C00004000860FFE7FFE7FFE704988068F8B1C2
:1023D000FFE7FFF7DBFA0390FFE743F67000C4F274
:1023E0000200006800F002010020B0EB510F0ED196
:1023F000FFE7FFF7CBFA0399401A41F2893188428F
:1024000004D3FFE703208DF8170014E1E5E71EE091
:10241000FFF7BCFA0390FFE743F67000C4F2020036
:10242000006800F002010020B0EB510F0ED0FFE772
:10243000FFF7ACFA0399401A41F28931884204D37C
:10244000FFE703208DF81700F5E0E5E7FFE79DF8CB
:102450000700012809D1FFE743F64001C4F2020159
:10246000086820F080500860FFE7FFE70498806963
:10247000002800F0DC80FFE743F60800C4F2020009
:10248000006800F00C00082800F08580FFE7049841
:10249000806902285CD1FFE76021C4F24721002057
:1024A0000860FFF773FA0390FFE743F60000C4F2F9
:1024B0000200006800F000710020B0EB516F0CD0FA
:1024C000FFE7FFF763FA0399401A032804D3FFE7F5
:1024D00003208DF81700AEE0E7E70499C869D1F84A
:1024E00020C04B6A8A6A40EA0C0040EA8310D2039B
:1024F0004FF6FF739A43A2F580321043C96A40EA4F
:10250000016043F60401C4F2020108606021C4F2D4
:10251000472101200860FFF739FA0390FFE743F6EF
:102520000000C4F20200006800F000710020B0EB6F
:10253000516F0CD1FFE7FFF729FA0399401A0328DE
:1025400004D3FFE703208DF8170074E0E7E721E0EC
:102550006021C4F2472100200860FFF717FA0390BA
:10256000FFE743F60000C4F20200006800F00071CB
:102570000020B0EB516F0CD0FFE7FFF707FA03998B
:10258000401A032804D3FFE703208DF8170052E018
:10259000E7E7FFE74AE004988069012804D1FFE7F4
:1025A00001208DF8170046E043F60400C4F2020053
:1025B0000068029004988069012831D0FFE70298F2
:1025C00000F480000499C969884229D1FFE7029884
:1025D00000F03F000499096A884221D1FFE7029880
:1025E00047F6C07108400499496AB0EB811F17D1C2
:1025F000FFE7029800F440300499896AC9034FF656
:10260000FF729143A1F58031884209D1FFE702981A
:1026100000F070600499C96AB0EB016F04D0FFE765
:1026200001208DF8170006E0FFE7FFE7FFE7002035
:102630008DF81700FFE79DF8170006B080BD000079
:1026400081B0009001B0704781B0009001B0704738
:1026500080B582B00090009820B9FFE701208DF886
:1026600007003FE0009890F83D0040B9FFE700996F
:10267000002081F83C00009800F038F8FFE700994E
:10268000022081F83D00009951F8040B00F0B8FFDA
:102690000099012081F84600FFE70099012081F8A8
:1026A0003E00009981F83F00009981F840000099B0
:1026B00081F84100FFE7FFE70099012081F842001F
:1026C000009981F84300009981F84400009981F84D
:1026D0004500FFE70099012081F83D0000208DF8BA
:1026E0000700FFE79DF8070002B080BD81B00090B1
:1026F00001B0704783B00190019890F83D00012827
:1027000004D0FFE701208DF80B006AE00199022058
:1027100081F83D0001980168C86840F00100C86078
:10272000019800680021C4F2010188423CD0FFE713
:1027300001980068B0F1804F36D0FFE7019800683B
:1027400040F20041C4F2000188422DD0FFE7019819
:10275000006840F60001C4F20001884224D0FFE77F
:102760000198006840F60041C4F2000188421BD085
:10277000FFE70198006840F20041C4F2010188427D
:1027800012D0FFE70198006844F20001C4F2010191
:10279000884209D0FFE70198006841F60001C4F2C1
:1027A0000001884212D1FFE701980068806800F0BC
:1027B000070000900098062807D0FFE701980168FD
:1027C000086840F001000860FFE706E00198016832
:1027D000086840F001000860FFE700208DF80B005A
:1027E000FFE79DF80B0003B07047000081B0009038
:1027F00001B0704780B584B0039003980068C0684A
:10280000029003980068006901909DF80400800719
:10281000002824D5FFE79DF80800800700281DD573
:10282000FFE7039801686FF0020008610399012037
:102830000877039800688069800720B1FFE7039854
:10284000FFF7D4FF06E0039800F0E2F8039800F0E9
:10285000E3F8FFE7039900200877FFE7FFE79DF81B
:1028600004004007002825D5FFE79DF80800400731
:1028700000281ED5FFE7039801686FF00400086187
:1028800003990220087703980068806910F4407F5C
:1028900004D0FFE70398FFF7A9FF06E0039800F0D4
:1028A000B7F8039800F0B8F8FFE70399002008771D
:1028B000FFE7FFE79DF804000007002824D5FFE7A5
:1028C0009DF80800000700281DD5FFE70398016860
:1028D0006FF00800086103990420087703980068E6
:1028E000C069800720B1FFE70398FFF77FFF06E08C
:1028F000039800F08DF8039800F08EF8FFE7039935
:1029000000200877FFE7FFE79DF80400C0060028D5
:1029100025D5FFE79DF80800C00600281ED5FFE773
:10292000039801686FF01000086103990820087788
:1029300003980068C06910F4407F04D0FFE7039853
:10294000FFF754FF06E0039800F062F8039800F0E8
:1029500063F8FFE7039900200877FFE7FFE79DF89A
:102960000400C00778B1FFE79DF80800C00748B130
:10297000FFE7039801686FF001000861039800F019
:102980004FF8FFE7FFE79DF804000006002810D588
:10299000FFE79DF808000006002809D5FFE7039827
:1029A00001686FF0800008610398FFF749FEFFE7B8
:1029B000FFE79DF804004006002810D5FFE79DF8CA
:1029C00008004006002809D5FFE7039801686FF06A
:1029D00040000861039800F035F8FFE7FFE79DF835
:1029E00004008006002810D5FFE79DF80800800647
:1029F000002809D5FFE7039801686FF020000861FF
:102A00000398FFF721FEFFE7FFE704B080BD000059
:102A100081B0009001B0704781B0009001B0704764
:102A200080B582B001900198006841F20001C4F2C3
:102A30000001884203D1FFE7FEF7AEFFFFE702B0D7
:102A400080BD000081B0009001B0704782B001905D
:102A5000ADF8021002B0704781B0009001B070472D
:102A600080B592B01190119800680068109011988C
:102A70000068C0680F901198006840690E900020AF
:102A80000D900C90109800F00F000D900D9888B9E3
:102A9000FFE79DF84000800600280AD5FFE79DF873
:102AA0003C008006002804D5FFE7119800F0EEFEF8
:102AB000EAE1FFE70D98002800F0C280FFE79DF8EB
:102AC0003800C00738B9FFE7BDF83C0010F4907F2C
:102AD00000F0B680FFE79DF84000C00758B1FFE75F
:102AE0009DF83D00C00730B1FFE71199486C40F0F8
:102AF00001004864FFE79DF84000400700280BD51F
:102B0000FFE79DF83800C00730B1FFE71199486C26
:102B100040F002004864FFE79DF84000800700286D
:102B20000BD5FFE79DF83800C00730B1FFE71199DA
:102B3000486C40F004004864FFE79DF8400000073F
:102B4000002811D5FFE79DF83C008006002805D439
:102B5000FFE79DF83800C00730B1FFE71199486CD6
:102B600040F008004864FFE71198406C002866D0E8
:102B7000FFE79DF84000800600280AD5FFE79DF892
:102B80003C008006002804D5FFE7119800F07EFE87
:102B9000FFE7119800684069C0F380100C9011980D
:102BA000406C0007002804D4FFE70C9800283ED0B2
:102BB000FFE7119800F00CFE11980068406940068C
:102BC00000282FD5FFE7FFE7FFE71198006850E8DE
:102BD000050F20F040000B90FFE70B991198026859
:102BE00042E805100028F0D1FFE7FFE71198C06B1D
:102BF00098B1FFE71198C16B43F2B170C0F60000C5
:102C000008651198C06BFEF7C3FC28B1FFE7119867
:102C1000C06B016D8847FFE703E01198FFF71CFFC9
:102C2000FFE703E01198FFF717FFFFE706E01198B1
:102C3000FFF712FF119900204864FFE7FFE723E147
:102C40001198006B012840F0FF80FFE79DF84000DD
:102C5000C006002840F1F880FFE79DF83C00C00660
:102C6000002840F1F180FFE7FFE700200A9011986B
:102C7000006800680A901198006840680A900A98F5
:102C8000FFE71198006840694006002840F1828003
:102C9000FFE71198C06B00684068ADF82600BDF8EA
:102CA0002600002875D0FFE7BDF826001199898D10
:102CB00088426EDAFFE7BDF826001199C8851198A1
:102CC000C06BC069B0F5807F58D0FFE7FFE7FFE732
:102CD0001198006850E8030F20F480700890FFE717
:102CE00008991198026842E803100028F0D1FFE724
:102CF000FFE7FFE7FFE71198006850E8050F20F0B5
:102D000001000790FFE707991198026842E8051053
:102D10000028F0D1FFE7FFE7FFE7FFE71198006821
:102D200050E8050F20F040000690FFE70699119843
:102D3000026842E805100028F0D1FFE7FFE711998B
:102D4000202081F84200119900200863FFE7FFE787
:102D50001198006850E8030F20F010000590FFE77D
:102D600005991198026842E803100028F0D1FFE7A6
:102D7000FFE71198C06BFEF795FBFFE71199022062
:102D800048631198818DC28D891A89B2FFF75EFE62
:102D9000FFE779E01199888DC98D401AADF81200CE
:102DA0001198C08D00284ED0FFE7BDF81200002812
:102DB00049D0FFE7FFE7FFE71198006850E8030FED
:102DC00020F490700390FFE703991198026842E89D
:102DD00003100028F0D1FFE7FFE7FFE7FFE71198B6
:102DE000006850E8050F20F001000290FFE702990B
:102DF0001198026842E805100028F0D1FFE7FFE7CC
:102E00001199202081F84200119900200863FFE702
:102E1000FFE71198006850E8030F20F010000190C0
:102E2000FFE701991198026842E803100028F0D1E9
:102E3000FFE7FFE71199022048631198BDF81210CF
:102E4000FFF704FEFFE71FE09DF8400000060028A2
:102E50000AD5FFE79DF83C000006002804D5FFE7EF
:102E6000119800F099FE0FE09DF840004006002800
:102E70000AD5FFE79DF83C004006002804D5FFE78F
:102E8000119800F0EFFCFFE712B080BD80B582B072
:102E90000090009820B9FFE701208DF8070040E07E
:102EA0000098806908B1FFE700E0FFE7009890F81C
:102EB000410040B9FFE70099002081F840000098E8
:102EC00000F034F8FFE70099242081F841000098D1
:102ED0000168C86820F40050C860009800F08CFDBC
:102EE00000980168086920F4904008610098016822
:102EF000486920F02A00486100980168C86840F4D9
:102F00000050C860009900204864009A202182F88F
:102F10004110009A82F84210009948638DF807002A
:102F2000FFE79DF8070002B080BD000080B594B0B7
:102F3000139000201290119010900F900E90139803
:102F4000006844F60001C4F20001884269D1FFE73D
:102F5000FFE700200D9043F64000C4F20200016834
:102F600041F480210160006800F480200D900D98EC
:102F7000FFE7FFE700200C9043F63000C4F20200A8
:102F8000016841F002010160006800F002000C904D
:102F90000C98FFE7FFE700200B9043F63000C4F2E7
:102FA0000200016841F008010160006800F00800BB
:102FB0000B900B98FFE74FF498400E90022003907F
:102FC0000F9000200790109003200490119007208C
:102FD0000590129040F20040C4F202000EA9069142
:102FE000FEF7F8FADDF80CC0049A05980699079BDD
:102FF0004FF4006ECDF838E0CDF83CC0109311923C
:10300000129040F60040C4F20200FEF7E3FA079A7D
:10301000272008900521FEF797FD0898FEF78AFD06
:1030200048E01398006841F20041C4F2010188426F
:103030003FD1FFE7FFE700200A9043F64400C4F2C7
:103040000200016841F020010160006800F02000EA
:103050000A900A98FFE7FFE70020099043F6300046
:10306000C4F20200016841F040010160006800F014
:10307000400009900998FFE74FF484400E90022029
:103080000F900020019010900320119008201290C2
:1030900041F60000C4F202000EA9FEF79BFA019A65
:1030A000472002900521FEF74FFD0298FEF742FDF2
:1030B000FFE7FFE714B080BD80B584B002900191B6
:1030C000ADF80220029890F84200202817D1FFE7BF
:1030D000019820B1FFE7BDF8020020B9FFE7012009
:1030E0008DF80F000FE00299002008630298019903
:1030F000BDF8022000F01EFD8DF80F0003E0022055
:103100008DF80F00FFE79DF80F0004B080BD0000B0
:1031100080B584B0039000200190FFE7019840F251
:103120004C51C2F20001096888422EDAFFE701998A
:1031300040F22C50C2F2000050F821008068039940
:1031400088421DD1FFE7019940F22C50C2F20000E5
:10315000009050F8211009798DF80B10019950F862
:1031600021009DF80B1002681268904700980199A1
:1031700050F82110886804310122FFF79DFFFFE716
:10318000FFE7019801300190C8E704B080BD00005E
:1031900081B0009001B07047FFE7FEE780B582B0D4
:1031A00040F2B850C2F20000009046F20041C4F272
:1031B0000001016003214160002101918160C16033
:1031C0004FF4002202614FF44012426101764176D1
:1031D0008176C17601774177FDF7A8FE18B1FFE748
:1031E000FDF7F0F9FFE702B080BD000080B582B0C6
:1031F00040F2E050C2F20000009046F60001C4F236
:103200000001016003214160002101918160C160E2
:103210004FF4002202614FF4401242610176417680
:103220008176C17601774177FDF780FE18B1FFE71F
:10323000FDF7C8F9FFE702B080BD000080B543F29A
:10324000D540C0F6000046F68C52C0F600020021C0
:1032500000F0BAFF40F2B451C2F20001086080BD34
:1032600086B0FFE70020059043F63000C4F202006C
:10327000016841F004010160006800F0040005905D
:103280000598FFE7FFE70020049043F63000C4F202
:103290000200016841F080010160006800F08000D8
:1032A00004900498FFE7FFE70020039043F6300006
:1032B000C4F20200016841F002010160006800F000
:1032C000020003900398FFE7FFE70020029043F617
:1032D0003000C4F20200016841F00801016000689A
:1032E00000F0080002900298FFE7FFE7002001903D
:1032F00043F63000C4F20200016841F001010160B0
:10330000006800F0010001900198FFE7FFE700204E
:10331000009043F63000C4F20200016841F0400121
:103320000160006800F0400000900098FFE706B0E0
:103330007047000080B582B040F25060C2F20000D9
:10334000019044F60001C4F2000101604FF4E13144
:10335000416000218160C16001610C2242614FF433
:1033600040728261C161FFF791FD18B1FFE7FDF77F
:1033700029F9FFE702B080BD80B582B040F29860C5
:10338000C2F20000019041F20041C4F2010101606B
:103390004FF4E121416000218160C16001610C2294
:1033A00042618161C161FFF771FD18B1FFE7FDF76F
:1033B00009F9FFE702B080BDFFE7FEE7FFE7FEE7A0
:1033C00088B0079006910592079800F007000490D6
:1033D0000498C0F10700052803D3FFE704200190FB
:1033E00004E00498C0F107000190FFE70198039002
:1033F00004980430062803D8FFE70020009003E07B
:10340000049803380090FFE700980290069803990B
:10341000012202FA01F101390840029B9840059906
:103420009A40013A1140084308B07047000000007C
:10343000EFF30980BFF36F8F154B1A681EF0100F62
:1034400008BF20ED108A20E9F04F10602DE9090037
:103450004FF0500080F31188BFF34F8FBFF36F8F91
:1034600002F036FB4FF0000080F31188BDE8090040
:1034700019680868B0E8F04F1EF0100F08BFB0ECF4
:10348000108A80F30988BFF36F8F704700BF00BFB9
:10349000D407002000000000000000000000000031
:1034A000074B19680868B0E8F04F80F30988BFF34C
:1034B0006F8F4FF0000080F31188704700BF00BF8E
:1034C000D407002080B56FF00400002100F088FDD3
:1034D00080BD000080B582B0019000F0EBFDFFE7F9
:1034E00000F006F84FF4FA7000F006FEF8E700006E
:1034F00080B540F27800C2F2000000F0B1FB80BD60
:1035000080B54EF21000CEF20000006803F0BCF867
:10351000012803D0FFE702F0EBFBFFE780BD0000CE
:1035200080B594B008A83021FCF77BFF00200790FD
:103530000690059004900390FFE70020029043F668
:103540004000C4F20200016841F08051016000684F
:1035500000F0805002900298FFE7FFE70020019002
:1035600047F20000C4F20000016841F480410160AC
:10357000006800F4804001900198FFE70120089066
:103580004FF48030099002210E914FF480000F908B
:1035900004201090A82211921291139008A8FEF70F
:1035A000EFFC18B1FFE7FDF70DF8FFE70F200390E0
:1035B00002200490002005904FF4A05006904FF494
:1035C0008050079003A80521FEF7E0FA18B1FFE745
:1035D000FCF7F8FFFFE714B080BD00004EF68851FD
:1035E000CEF20001086840F47000086070470000E7
:1035F00080B540F20860C2F20000FFF7FBF880BD22
:1036000083B0029001910298006800900298002116
:10361000C4F20101884225D0FFE70298B0F1804F43
:1036200020D0FFE7029840F20041C4F20001884236
:1036300018D0FFE7029840F60001C4F2000188426A
:1036400010D0FFE7029840F60041C4F20001884222
:1036500008D0FFE7029840F20041C4F2010188421D
:103660000AD1FFE7009820F07000009001984168AF
:10367000009808430090FFE702980021C4F201017E
:10368000884255D0FFE70298B0F1804F50D0FFE755
:10369000029840F20041C4F20001884248D0FFE79E
:1036A000029840F60001C4F20001884240D0FFE7D2
:1036B000029840F60041C4F20001884238D0FFE78A
:1036C000029840F20041C4F20101884230D0FFE785
:1036D000029844F20001C4F20101884228D0FFE7B9
:1036E000029844F20041C4F20101884220D0FFE771
:1036F000029844F60001C4F20101884218D0FFE7A5
:10370000029841F60001C4F20001884210D0FFE7A0
:10371000029841F60041C4F20001884208D0FFE758
:10372000029842F20001C4F2000188420AD1FFE788
:10373000009820F4407000900198C16800980843F8
:103740000090FFE7009820F0800001994969084344
:103750000090009802990860019880680299C862F8
:10376000019800680299886202980021C4F2010160
:10377000884208D0FFE7029840F20041C4F20101FC
:10378000884205D1FFE70198006902990863FFE7C5
:1037900002990120486102980069C00730B1FFE733
:1037A0000299086920F001000861FFE703B0704743
:1037B00080B582B001900198806B00900099002044
:1037C000C8850099C8840098FFF746F902B080BD0B
:1037D00084B00390FFE7FFE70398006850E8030F09
:1037E00020F490700290FFE702990398026842E883
:1037F00003100028F0D1FFE7FFE7FFE7FFE703989A
:10380000006850E8050F20F001000190FFE70199E2
:103810000398026842E805100028F0D1FFE7FFE7AF
:103820000398006B012814D1FFE7FFE7FFE7039837
:10383000006850E8030F20F010000090FFE70099A7
:103840000398026842E803100028F0D1FFE7FFE781
:10385000FFE70399202081F84200039900200863C4
:1038600004B0704780B582B0019001980168C868C3
:1038700020F04000C8600199202081F841000198A3
:10388000FFF786FC002002B080BD000080B586B046
:103890000490049890F84200222840F0A480FFE7AA
:1038A00004988068B0F5805F15D1FFE7049800693F
:1038B00088B9FFE7002003900498806A029004987A
:1038C000006840686FF35F20029908800499886A55
:1038D0000230886225E00498806A039000200290FC
:1038E00004988068B0F5805F08D0FFE7049880688E
:1038F00050B9FFE70498006930B9FFE70498006801
:1039000040680399087007E004980068406800F078
:103910007F0003990870FFE70499886A0130886284
:10392000FFE70499C88D0138C8850004002856D1E6
:10393000FFE704980168C86820F02000C860049878
:103940000168C86820F48070C860049801684869FC
:1039500020F0010048610499202081F84200049978
:10396000002048630498006B012830D1FFE70499D8
:1039700000200863FFE7FFE70498006850E8030FA2
:1039800020F010000190FFE701990498026842E8D6
:1039900003100028F0D1FFE7FFE7049800680068F3
:1039A000C00600280ED5FFE7FFE70020009004982E
:1039B00000680068009004980068406800900098D3
:1039C000FFE7FFE70498818DFFF740F803E00498D4
:1039D000FFF79EFBFFE700208DF8170007E00020AF
:1039E0008DF8170003E002208DF81700FFE79DF81F
:1039F000170006B080BD000080B586B00590059820
:103A00000068006920F44050059A1168D26810439C
:103A10000861059988680B694A69C96918431043A8
:103A20000843049005980068C06849F20C61884317
:103A30000499084305990968C860059800684069B9
:103A400020F44070059A1168926910434861059806
:103A5000006841F20001C4F20101884209D0FFE789
:103A60000598006841F20041C4F20101884204D186
:103A7000FFE7FEF7FFF9039003E0FEF7E9F9039093
:103A8000FFE70598C069B0F5004F29D1FFE703981B
:103A90001921A0FB0101059A1368029353685A008B
:103AA000DB0FFCF7F9FB0299864648F21F53C5F27B
:103AB000EB13AEFB0320420910014FF0640C02FB34
:103AC0001CEC322202EBCC02A2FB0332F82303EA05
:103AD000521300EB4300C2F342121044886026E008
:103AE00003981921A0FB0101059A136801935368FB
:103AF0009A009B0FFCF7D0FB0199844648F21F52B5
:103B0000C5F2EB12ACFB02304309642003FB10CC7E
:103B1000322000EB0C10A0FB0202F02000EA521051
:103B200000EB0310C2F3431210448860FFE706B0B5
:103B300080BD000083B002900191ADF80220019891
:103B400002998862BDF8020002998885BDF80200DA
:103B50000299C8850299002048640299222081F8C0
:103B600042000298006938B1FFE702980168C8680E
:103B700040F48070C860FFE702980168486940F02F
:103B80000100486102980168C86840F02000C860E0
:103B9000002003B07047000083B00190019890F8B6
:103BA000410021283AD1FFE701988068B0F5805F95
:103BB00013D1FFE70198006978B9FFE70198006A1F
:103BC0000090009800886FF35F20019909684860B1
:103BD0000199086A0230086208E0019A106A411CE3
:103BE00011620078019909684860FFE70199C88C63
:103BF0000138C884000468B9FFE701980168C86803
:103C000020F08000C86001980168C86840F040005A
:103C1000C860FFE700208DF80B0003E002208DF85C
:103C20000B00FFE79DF80B0003B0704780B540F232
:103C30005060C2F20000FEF713FF80BD80B540F275
:103C40009860C2F20000FEF70BFF80BDFFE7FEE7C1
:103C500080B500F005FA80BD80B500F00FFA80BD98
:103C600080B584B00390039800904FF40072014631
:103C700041F8082F01910021C160416101610822D2
:103C80008261017700F026F8009A0199ADF80A00E8
:103C90009DF80B0002F8390F9DF80A0050709DF84E
:103CA0000B0090709DF80A00D0709DF80B00107109
:103CB0009DF80A0050719DF80B0090719DF80A0064
:103CC000D07152F8350C02F11303FCF7A9FC04B0D3
:103CD00080BD000081B000904FF4FA6001B07047E1
:103CE00080B584B0039002918DF80720039800906E
:103CF00002999DF8072000F0ABF8009846F6545161
:103D0000C0F600010831016004B080BD85B00390A9
:103D1000039900910491002008600874886101F102
:103D20001C00683101910290FFE70299019A00207E
:103D300041F8040B084691420290F6D1FFE7009942
:103D40004FF40070C866049805B0704782B00190C7
:103D5000009102B07047000081B0009001B0704740
:103D600080B58CB00B90012109910020079008913B
:103D700005900690019002900390049040F2B85094
:103D8000C2F2000001A9FCF7F7FC18B1FFE7FCF74D
:103D900019FCFFE740F2B850C2F20000FDF720FB2B
:103DA00018B1FFE7FCF70EFCFFE740F2B850C2F293
:103DB00000000221FCF70AFC18B1FFE7FCF702FC47
:103DC000FFE70CB080BD000080B58CB00B900120E7
:103DD000099000210791089005910E20069001910D
:103DE0000291039104910A9040F2E050C2F2000067
:103DF00001A9FCF7C1FC18B1FFE7FCF7E3FBFFE703
:103E000040F2E050C2F20000FDF7EAFA18B1FFE715
:103E1000FCF7D8FBFFE740F2E050C2F200000221BD
:103E2000FCF7D4FB18B1FFE7FCF7CCFBFFE70CB0C5
:103E300080BD000080B582B00190019800900168BB
:103E40008968884700980168C968884702B080BDC2
:103E500089B0079006918DF8172007990291089173
:103E600046F67050C0F600000830086006984860BA
:103E70009DF8170081F83800002081F8390001F121
:103E80003A00413103910490FFE70499039A00201E
:103E900001F8010B084691420490F6D1FFE7029920
:103EA000002081F8410001F1420049310091019068
:103EB000FFE70199009A002001F8010B08469142A2
:103EC0000190F6D1FFE702980021C16401654068C6
:103ED00040F2B851C2F20001884219D1FFE740F226
:103EE000A050C2F200000078092810DCFFE7029819
:103EF00040F2A051C2F200010B7840F25052C2F2DF
:103F0000000242F82300087801300870FFE721E042
:103F1000069840F2E051C2F20001884219D1FFE751
:103F200040F2A150C2F200000078092810DCFFE73F
:103F3000029840F2A151C2F200010B7840F278528F
:103F4000C2F2000242F82300087801300870FFE74F
:103F5000FFE7FFE7089809B07047000081B08DF8CF
:103F600003009DF9030000280ED4FFE79DF903101C
:103F700001F01F02012090404A094EF20011CEF2DA
:103F8000000141F82200FFE701B070474EF60C50E7
:103F9000CEF200000068C0F30220704782B08DF8B6
:103FA000070000919DF9070000280AD4FFE7009858
:103FB00000019DF907104EF20042CEF20002885433
:103FC0000BE0009800019DF8071001F00F014EF67C
:103FD0001452CEF200028854FFE702B0704700008E
:103FE00082B08DF8070000919DF9070000280AD4DF
:103FF000FFE7009800019DF907104EF20042CEF253
:10400000000288540BE0009800019DF8071001F0B1
:104010000F014EF61452CEF200028854FFE702B0B0
:104020007047000083B00290029800F007000090F3
:104030004EF60C51CEF200010868019001984FF63F
:10404000FF02104001900198009A40EA02200022ED
:10405000C0F2FA52104301900198086003B0704713
:1040600080B540F27800C2F2000040F2B851C2F2CE
:1040700000010122FFF734FE80BD000080B582B050
:1040800040F2CC00C2F200000190FFE701980090DE
:10409000FFF73CFE009800F17001084640F2CC02A8
:1040A000C2F2000202F58C6291420190EED1FFE76C
:1040B00002B080BD80B540F27800C2F20000FFF788
:1040C000B9FE80BD80B582B000200190FDF772FC82
:1040D000FFF726FAFFF7C4F8FFF760F8FFF786F856
:1040E000FFF728F9FFF748F900F020F8FFF7A6F8E6
:1040F00000F040F8FFE7FEE780B584B00290EFF3F0
:1041000005800390039820B1FFE76FF00500019050
:1041100009E000200190029820B1FFE7029801F029
:10412000C1FBFFE7FFE7019804B080BD82B0EFF369
:1041300005800190019820B1FFE76FF00500009025
:1041400014E040F27400C2F20000006848B9FFE7D2
:1041500040F27401C2F200010120086000200090CA
:1041600003E04FF0FF300090FFE7FFE7009802B058
:104170007047000080B582B0EFF305800190019890
:1041800020B1FFE76FF00500009019E040F27400E5
:10419000C2F20000006801280DD1FFE7FFF792F995
:1041A00040F27401C2F200010220086001F018FC24
:1041B0000020009003E04FF0FF300090FFE7FFE7A2
:1041C000009802B080BD0000B0B58EB00B900A918F
:1041D000099200200690EFF305800D900D980028BD
:1041E00040F09980FFE70B98002800F09480FFE7EB
:1041F0008020079018200590002008904FF0FF3095
:104200000490099800284DD0FFE70998006820B174
:10421000FFE7099800680890FFE70998806920B1D6
:10422000FFE7099880690590FFE7059848B1FFE727
:104230000598382805D8FFE709980079C00718B114
:10424000FFE700200C9069E00998406928B1FFE77A
:104250000998406980080790FFE70998806880B155
:10426000FFE70998C0685C280BD3FFE7099800694D
:1042700038B1FFE70998406918B1FFE701200490C1
:104280000FE00998806858B9FFE70998C06838B905
:10429000FFE70998006918B9FFE700200490FFE7DD
:1042A000FFE702E000200490FFE70498012817D1FF
:1042B000FFE70B980899079A0A9BDDF814C0DDF810
:1042C00024E0DEF80850DEF81040EE46CEF8085044
:1042D000CEF80440CEF800C002F06EF9069019E066
:1042E0000498B0B9FFE70B980899BDF81C200A9B09
:1042F000DDF814C0EE4606ACCEF80440CEF800C09F
:1043000002F00AF9012803D0FFE700200690FFE73A
:10431000FFE7FFE7FFE706980C90FFE70C980EB069
:10432000B0BD000080B584B00390029145F220003A
:10433000C2F200000068009040F2D470C2F20000A7
:104340000068043001F066F808B9FFE700E0FFE715
:104350000398013080B9FFE7029868B1FFE740F2A7
:10436000D470C2F200000068011D44F6F870C2F279
:10437000000001F0F5F83DE0009803990844019031
:10438000019840F2D471C2F20001096848600198B6
:10439000009988420ED2FFE740F2E470C2F20000BA
:1043A000006840F2D471C2F200010968043101F0E2
:1043B000A1F81EE040F2DC70C2F20000006840F29A
:1043C000D471C2F200010968043101F093F8019838
:1043D00044F68471C2F200010968884207D2FFE7FF
:1043E000019844F68471C2F20001086000E0FFE722
:1043F000FFE7FFE704B080BD80B582B0019001F017
:10440000D7F844F65801C2F200010868013008608C
:1044100040F2D470C2F20000006898B9FFE701983A
:1044200040F2D471C2F20001086044F65800C2F2B2
:1044300000000068012803D1FFE700F0F7FA00E070
:10444000FFE71CE044F6EC70C2F200000068A0B97F
:10445000FFE740F2D470C2F200000068C06A019920
:10446000C96A884207D8FFE7019840F2D471C2F2C6
:104470000001086000E0FFE700E0FFE7FFE744F627
:104480006400C2F200000168013101600068019916
:1044900048640198C06A44F66801C2F200010968E4
:1044A000884208D9FFE70198C06A44F66801C2F261
:1044B00000010860FFE70199C86A00EB800240F242
:1044C000EC70C2F2000000EB8200043101F048F809
:1044D00001F09AF844F6EC70C2F200000068C8B12E
:1044E000FFE740F2D470C2F200000068C06A019990
:1044F000C96A88420CD2FFE74EF60451CEF20001A1
:104500004FF080500860BFF34F8FBFF36F8F00E014
:10451000FFE700E0FFE702B080BD000080B584B097
:1045200001F046F845F22400C2F2000000680028BD
:1045300040D1FFE744F62470C2F20000029000F080
:10454000B9FF44F63870C2F20000039000F0B2FFE9
:104550000299039840F2D872C2F20002116040F250
:10456000E871C2F20001086069460020086040F26C
:10457000E062C2F2000240F28073C2F200030A203D
:10458000102101F0D3FB014645F22400C2F20000E5
:104590000160006860B1FFE745F22400C2F200004C
:1045A000006846F6C151C0F6000101F01FF900E0B5
:1045B000FFE700E0FFE701F027F804B080BD00004E
:1045C00080B582B0FFE744F65C00C2F200000068EC
:1045D00008B3FFE700F0ECFF45F20C00C2F2000068
:1045E000C068C06801900198043000F013FF44F6E1
:1045F0005801C2F2000108680138086044F65C0105
:10460000C2F2000108680138086000F0FDFF01985F
:1046100000F08CF8D7E702B080BD000080B582B012
:10462000019000910198006CB8B1FFE70199C8684A
:104630000A6C1044C86001988168C068884204D33D
:10464000FFE701990868C86000E0FFE70098019A59
:10465000D168126CFBF798FEFFE702B080BD000046
:1046600080B586B0059004910392002002900598D1
:10467000806B01900598006C78B9FFE70598006899
:1046800048B9FFE70598806802F006F9029005999D
:104690000020886000E0FFE741E00398B8B9FFE739
:1046A000059A04995068126CFBF76EFE05994868EC
:1046B0000A6C10444860059948688968884204D3A8
:1046C000FFE705990868486000E0FFE726E0059AE3
:1046D0000499D068126CFBF757FE0599C8680A6CFC
:1046E000801AC86005980168C068884206D2FFE752
:1046F000059988680A6C801AC86000E0FFE7039893
:10470000022809D1FFE7019820B1FFE7019801389D
:10471000019000E0FFE700E0FFE7FFE7FFE7019817
:10472000013005998863029806B080BD80B582B0DB
:104730000090009890F8590040B9FFE70098006B8E
:1047400000F088FF009800F085FF1CE0009890F8CA
:104750005900012804D1FFE7009800F07BFF11E029
:10476000009890F8590002280BD0FFE74FF0500056
:1047700080F31188BFF36F8FBFF34F8F0190FFE776
:10478000FEE7FFE7FFE702B080BD000082B00190C6
:1047900040F2D870C2F2000000680068B0FA80F001
:1047A0004009019908600198006848B9FFE740F2A4
:1047B000D870C2F200000068C0680068009002E093
:1047C00000200090FFE7009802B0704784B04FF4DB
:1047D0007050009040F64C40C2F2000001909DF8ED
:1047E0000400400788B1FFE7019807300190019865
:1047F00020F007000190019A40F64C41C2F20001FE
:104800000098891A08440090FFE7019802900299E5
:1048100044F6F070C2F2000001600021416002988D
:10482000009A10440190019808380190019820F0F6
:1048300007000190019A40F2E070C2F200000260AD
:104840000268516002681160029903910199039A0C
:10485000891A51600068039908600398406844F61B
:104860008071C2F2000108600398406844F67871D4
:10487000C2F20001086044F64C71C2F200014FF030
:104880000040086004B0704780B582B00190FFE737
:10489000FFF796FE40F2EC70C2F2000000680228BA
:1048A0000CD3FFE74EF60451CEF200014FF08050DA
:1048B0000860BFF34F8FBFF36F8F00E0FFE7E7E7BC
:1048C00080B584B0DDF818C00390029101928DF894
:1048D0000330029818B9FFE70698006003E00198DA
:1048E00006990860FFE703980699C863029806993D
:1048F00008640698012101F0A1FA9DF803000699C9
:1049000081F84C0004B080BD80B588B0DDF834C0BB
:10491000DDF830C0DDF82CC0DDF828C00690059128
:10492000049203930C98006B04998900A522FBF76D
:1049300070FD0C98006B049900EB81000438029024
:10494000029820F0070002909DF80800400758B137
:10495000FFE74FF0500080F31188BFF36F8FBFF374
:104960004F8F0790FFE7FEE70598F8B1FFE70020BB
:104970000190FFE701980F2813D8FFE70598019AE7
:10498000805C0C99114481F8340005980199405CD1
:1049900008B9FFE705E0FFE7FFE701980130019064
:1049A000E8E70C99002081F8430004E00C9900200E
:1049B00081F83400FFE70A98382803D3FFE737204F
:1049C0000A9000E0FFE70A980C99C8620A980C99CF
:1049D000C8640C990020009008650C98043000F021
:1049E00081FD0C98183000F07DFD00980C9909614C
:1049F0000A99C1F138010C9A91610C9949620C999C
:104A000048650C9981F8580002980699039A00F0BD
:104A1000D1FC0C9908600B9820B1FFE70C980B991A
:104A2000086000E0FFE708B080BD000080B584B0FA
:104A300000200390FFE70398372810D8FFE703987A
:104A400000EB800140F2EC70C2F2000000EB81004C
:104A500000F030FDFFE7039801300390EBE744F6E8
:104A60005070C2F20000019000F024FD44F6647022
:104A7000C2F20000029000F01DFD44F69870C2F2F0
:104A8000000000F017FD45F20C00C2F2000000F03B
:104A900011FD44F6F870C2F2000000F00BFD019920
:104AA000029840F2DC72C2F20002116040F2E4713E
:104AB000C2F20001086004B080BD000083B0029023
:104AC00044F6F070C2F200000190FFE70198006820
:104AD0000299884205D2FFE7FFE70198006801903C
:104AE000F4E70198009000980199496808440299F8
:104AF000884209D1FFE7029842680199486810444A
:104B000048600198029000E0FFE70298009000984A
:104B100002994968084401990968884220D1FFE751
:104B20000198006840F2E071C2F200010968884211
:104B30000DD0FFE701980068426802994868104468
:104B400048600198006800680299086007E040F238
:104B5000E070C2F20000006802990860FFE704E01C
:104B60000198006802990860FFE70198029988425D
:104B700004D0FFE702980199086000E0FFE703B066
:104B80007047000080B586B00590049103920293AF
:104B900000200190049805994860059800610498E8
:104BA0000399884216D8FFE703980299401A05999D
:104BB0008969884203D3FFE70120019009E040F2B0
:104BC000E870C2F2000000680599043100F092FC20
:104BD000FFE717E003980299884208D2FFE704989C
:104BE0000299884203D3FFE70120019009E040F2D7
:104BF000D870C2F2000000680599043100F07AFC18
:104C0000FFE7FFE7019806B080BD000080B582B0E5
:104C1000019000F0CDFC0198806B18B9FFE70120EE
:104C2000009002E000200090FFE700F0EDFC00980B
:104C300002B080BD80B582B0019000F0B9FC01984F
:104C4000806B0199C96B884203D1FFE70120009076
:104C500002E000200090FFE700F0D6FC009802B0D0
:104C600080BD000008480068006880F308884FF0A5
:104C7000000080F3148862B661B6BFF34F8FBFF3B4
:104C80006F8F00DF00BF000008ED00E080B586B048
:104C90000490039140F2D870C2F200000068C0682E
:104CA000C06801900198043000F0B4FB019890F8BE
:104CB00028004007002823D5FFE70198049B81695D
:104CC0001944039AFFF75EFFC0B1FFE70198049A09
:104CD000694600230B60194601F0CAFF0290029852
:104CE00058B9FFE74FF0500080F31188BFF36F8F82
:104CF000BFF34F8F0590FFE7FEE700E0FFE707E017
:104D0000019991F8280000F0FE0081F82800FFE7E3
:104D10000198016A884706B080BD000080B58EB05A
:104D2000FFE745F22400C2F20000006807A9002254
:104D300001F09EFA002800F0B880FFE70798B0F174
:104D4000FF3F17DCFFE707A804300290029858B92C
:104D5000FFE74FF0500080F31188BFF36F8FBFF370
:104D60004F8F0D90FFE7FEE702990A68486889684F
:104D7000904700E0FFE70798002800F19580FFE7E3
:104D8000099806900698406928B1FFE70698043014
:104D900000F040FB00E0FFE705A800F0FBF80390FF
:104DA00007980190092800F27D800199DFE801F061
:104DB0000505053D456605053D45069991F8280020
:104DC00040F0010081F828000698089B8169194489
:104DD000039AFFF7D7FE30B3FFE70698016A8847CA
:104DE000069890F82800400700281AD5FFE7069893
:104DF000089982690A44694600230B60194601F04C
:104E000037FF0490049858B9FFE74FF0500080F343
:104E10001188BFF36F8FBFF34F8F0C90FFE7FEE752
:104E200000E0FFE700E0FFE73DE0069991F8280089
:104E300000F0FE0081F8280035E0069991F828007E
:104E400040F0010081F828000898069988610698CA
:104E5000806958B9FFE74FF0500080F31188BFF325
:104E60006F8FBFF34F8F0B90FFE7FEE70698039B12
:104E7000816919441A46FFF785FE14E0069890F8F8
:104E800028008007002804D4FFE7069800F0E2FB22
:104E900007E0069991F8280000F0FE0081F828004C
:104EA000FFE700E0FFE7FFE73BE70EB080BD000053
:104EB00080B584B00390029100F002FE684600F0D5
:104EC00069F801900098D8BBFFE7029860B9FFE746
:104ED00003980199884207D8FFE701F0BBFD0398CA
:104EE0000199FFF7D3FE2AE0029858B1FFE740F29C
:104EF000E870C2F2000000680068B0FA80F0400973
:104F00000290FFE745F22400C2F200000068039916
:104F1000019A891A029A00F093FC01F09BFD60B996
:104F2000FFE74EF60451CEF200014FF080500860CA
:104F3000BFF34F8FBFF36F8F00E0FFE7FFE702E0A3
:104F400001F088FDFFE704B080BD000081B040F2B1
:104F5000DC70C2F200000068006840B9FFE744F668
:104F60008471C2F200014FF0FF3008600FE040F2A0
:104F7000DC70C2F200000068C068C0680090009851
:104F8000406844F68471C2F200010860FFE701B096
:104F90007047000080B582B0019001F091FB009055
:104FA000009840F2D071C2F200010968884206D22E
:104FB000FFE700F011F801990120086003E0019972
:104FC00000200860FFE7009840F2D071C2F20001B3
:104FD0000860009802B080BD80B588B0FFE740F25D
:104FE000D870C2F200000068006800284ED0FFE7C9
:104FF00040F2D870C2F200000168C96809680691E1
:105000000068C068C06803900398043000F002FA9A
:105010000398016A8847039890F828004007002801
:1050200032D5FFE7069803998969084405900598E9
:10503000069988420FD9FFE70598039948600398BD
:10504000006140F2D870C2F2000000680399043198
:1050500000F050FA17E00398069A694600230B60A7
:10506000194601F005FE0290029858B9FFE74FF08B
:10507000500080F31188BFF36F8FBFF34F8F0790FD
:10508000FFE7FEE7FFE700E0FFE7A8E740F2D8729E
:10509000C2F200021068049040F2E871C2F200010E
:1050A000086810600498086008B080BD83B00020D4
:1050B000009040F20C00C2F200000068013058B1CC
:1050C000FFE74FF0500080F31188BFF36F8FBFF3FD
:1050D0004F8F0290FFE7FEE74FF0500080F31188FA
:1050E000BFF36F8FBFF34F8F0190FFE7009808B9B0
:1050F000FFE7FBE703B0704780B584B00390FFE79C
:1051000001A8FFF743FB029002980199FFF7D0FE38
:10511000FFF704FEF4E7000080B582B0019000F0D4
:1051200047FA019890F845008DF80300FFE79DF9D4
:105130000300012816DBFFE70198406A58B1FFE73A
:105140000198243001F01EFC18B1FFE700F0F4FBD9
:1051500000E0FFE700E005E09DF8030001388DF86E
:105160000300E4E70199FF2081F8450000F04CFAC4
:1051700000F01EFA019890F844008DF80200FFE755
:105180009DF90200012816DBFFE70198006980B154
:10519000FFE70198103001F0F5FB18B1FFE700F0D0
:1051A000CBFB00E0FFE79DF8020001388DF802001C
:1051B00000E000E0E4E70199FF2081F8440000F0FE
:1051C00023FA02B080BD000080B58AB006900020AE
:1051D000029000F075FC40F2E070C2F2000000683E
:1051E00018B9FFE7FFF7F2FA00E0FFE7069844F688
:1051F0004C71C2F200010968084240F0C580FFE727
:10520000069800B3FFE70698083006909DF818004E
:105210004007B0B1FFE7069820F00700083006907D
:105220009DF81800400758B1FFE74FF0500080F399
:105230001188BFF36F8FBFF34F8F0990FFE7FEE731
:1052400000E0FFE700E0FFE70698002800F09A8002
:10525000FFE7069844F67871C2F2000109688842B7
:1052600000F29080FFE744F6F070C2F20000049074
:1052700000680590FFE705984168069A0020914272
:10528000019007D2FFE705980068002818BF0120A9
:105290000190FFE70198C00730B1FFE7059804903F
:1052A000059800680590E6E7059840F2E071C2F2C3
:1052B00000010968884263D0FFE70498006808305D
:1052C000029005980068049908600598406806995E
:1052D000401A112821D3FFE7059806990844039046
:1052E0009DF80C00400758B1FFE74FF0500080F3E5
:1052F0001188BFF36F8FBFF34F8F0890FFE7FEE772
:10530000059840680699401A0399486006980599DF
:1053100048600398FFF7D2FB00E0FFE7059842687A
:1053200044F67870C2F200000168891A01600068D2
:1053300044F68071C2F20001096888420BD2FFE78F
:1053400044F67870C2F20000006844F68071C2F240
:105350000001086000E0FFE744F64C70C2F2000074
:105360000268059948681043486005990020086064
:1053700044F68C71C2F2000108680130086000E058
:10538000FFE700E0FFE700E0FFE701F063FB9DF8C7
:105390000800400758B1FFE74FF0500080F3118834
:1053A000BFF36F8FBFF34F8F0790FFE7FEE70298C1
:1053B0000AB080BD83B00290019100920298043837
:1053C000029002994FF080700860029804380290B1
:1053D000019820F0010002990860029804380290B8
:1053E000029945F2AD00C0F600000860029814383A
:1053F000029000980299086002980438029002997D
:105400006FF002000860029820380290029803B002
:105410007047000082B001900198006900900198E7
:105420004168806888600199486889684860009888
:1054300040680199884205D1FFE70198806800998A
:10544000486000E0FFE701990020086100990868C2
:10545000013808600098006802B0704783B002907D
:1054600001910092029944F66C20C2F2000008609B
:10547000019944F66C00C2F2000008600099802097
:10548000086003B07047000083B002900191009261
:10549000029944F6C860C2F200000860019944F61F
:1054A000C820C2F20000086000994FF480700860C4
:1054B00003B0704781B00090009901F10800486086
:1054C00000994FF0FF308860009901F10800C86032
:1054D000009901F10800086100990020086001B0FE
:1054E0007047000081B0009000990020086101B071
:1054F0007047000084B00390029102980068009009
:105500000098013020B9FFE703980069019010E08E
:10551000039808300190FFE70198406800680099FF
:10552000884205D8FFE7FFE7019840680190F3E75C
:10553000FFE70198406802994860029841688860D6
:10554000019802998860029801994860039802992D
:105550000861039908680130086004B070470000D2
:1055600083B00290019102984068009000980199E0
:10557000486000988068019988600198009989685E
:105580004860019800998860029801990861029921
:1055900008680130086003B070470000DFF80C00B5
:1055A000016841F4700101607047000088ED00E07F
:1055B00082B04FF0500080F31188BFF36F8FBFF3BC
:1055C0004F8F019040F20C00C2F2000001680131DF
:1055D00001600068012814D1FFE74EF60450CEF2B6
:1055E00000000068000658B1FFE74FF0500080F35C
:1055F0001188BFF36F8FBFF34F8F0090FFE7FEE777
:10560000FFE702B07047000082B040F20C00C2F227
:105610000000006858B9FFE74FF0500080F3118890
:10562000BFF36F8FBFF34F8F0090FFE7FEE740F2AD
:105630000C00C2F20000016801390160006830B955
:10564000FFE700200190019880F31188FFE702B086
:105650007047000080B586B00390039802900398CD
:1056600000285CD0FFE70298083802900298019069
:105670000198406844F64C71C2F200010968084282
:105680000BD1FFE74FF0500080F31188BFF36F8F0D
:10569000BFF34F8F0590FFE7FEE70198006858B110
:1056A000FFE74FF0500080F31188BFF36F8FBFF317
:1056B0004F8F0490FFE7FEE70198406844F64C7175
:1056C000C2F200010968084227D0FFE7019800688C
:1056D00008BBFFE744F64C70C2F200000268019973
:1056E00048689043486000F0EBF90198426844F63E
:1056F0007871C2F200010868104408600198FFF751
:10570000DDF944F69071C2F20001086801300860CA
:1057100001F0A0F900E0FFE700E0FFE7FFE706B0D7
:1057200080BD00004EF21001CEF2000100200860A2
:105730004EF21802CEF20002106040F20000C2F2F7
:105740000000006844F6D352C1F26202A0FB0202DC
:105750004FF0FF3000EB92104EF21402CEF2000236
:10576000106007200860704784B0EFF30580019057
:10577000019810281ED3FFE701984EF2F031CEF2C7
:105780000001405C8DF803009DF8030044F64C01D5
:10579000C2F20001097888420BDAFFE74FF05000AF
:1057A00080F31188BFF36F8FBFF34F8F0390FFE734
:1057B000FEE7FFE74EF60C50CEF20000006800F462
:1057C000E06044F65001C2F20001096888420BD93A
:1057D000FFE74FF0500080F31188BFF36F8FBFF3E6
:1057E0004F8F0290FFE7FEE704B0704783B002904E
:1057F000019100200090FFE7009807281DD8FFE7DF
:10580000009944F6AC70C2F2000050F8310070B953
:10581000FFE70198009A44F6AC71C2F2000141F82A
:1058200032000298009A01EBC201486005E0FFE7F0
:10583000FFE7009801300090DEE703B070470000FA
:1058400080B584B003900291019203980090FFF715
:10585000AFFE009890F94400013028B9FFE70099A5
:10586000002081F84400FFE7009890F945000130DE
:1058700028B9FFE70099002081F84500FFE7FFF70E
:10588000C3FE0098806B38B9FFE700982430029976
:10589000019A00F07BF800E0FFE70098FFF73CFC7E
:1058A00004B080BD80B584B00290002001900298C1
:1058B000E0B1FFE744F66000C2F20000006858B1B2
:1058C000FFE74FF0500080F31188BFF36F8FBFF3F5
:1058D0004F8F0390FFE7FEE700F0F2F802980021F7
:1058E000FEF720FD01F0B6F8019000E0FFE7019817
:1058F00060B9FFE74EF60451CEF200014FF0805040
:105900000860BFF34F8FBFF36F8F00E0FFE704B075
:1059100080BD000081B0009044F68870C2F20000A3
:1059200000680099086045F22000C2F2000000689B
:105930000099486001B0704745F22C01C2F20001A5
:10594000012008607047000080B584B0029001918A
:10595000029858B9FFE74FF0500080F31188BFF369
:105960006F8FBFF34F8F0390FFE7FEE7029840F27F
:10597000D471C2F2000109681831FFF7BBFD01982C
:105980000121FEF7CFFC04B080BD000080B584B0DB
:10599000029001910092029858B9FFE74FF0500031
:1059A00080F31188BFF36F8FBFF34F8F0390FFE732
:1059B000FEE7029840F2D471C2F200010968183182
:1059C000FFF7CEFD009820B1FFE74FF0FF300190C8
:1059D000FFE701980099FEF7A5FC04B080BD000028
:1059E00080B58AB0002003900690059006A805A90E
:1059F00004AAFFF733FD039B049A0599DDF818C04C
:105A00006846C0F808C04160036044F68900C0F6EB
:105A1000000046F6BC51C0F6000100F0CDFD014685
:105A200044F67C70C2F200000160006818B1FFE724
:105A30000120079002E000200790FFE70798012867
:105A400004D1FFE701F0CAF8079000E0FFE70798EC
:105A5000012823D1FFE74FF0500080F31188BFF3F6
:105A60006F8FBFF34F8F099044F68471C2F200012B
:105A70004FF0FF30086044F6EC71C2F200010120E3
:105A8000086045F22001C2F200010020086000F029
:105A900083F808B1FFE700E0FFE70FE00798013067
:105AA00058B9FFE74FF0500080F31188BFF36F8FB4
:105AB000BFF34F8F0890FFE7FEE7FFE70AB080BD16
:105AC00044F66001C2F200010868013008607047C6
:105AD00083B044F66000C2F20000006838B1FFE70E
